:100000000C94B4040C94DC040C94DC040C94DC0418
:100010000C94DC040C94DC040C94DC040C94DC04E0
:100020000C94DC040C94DC040C948C170C94FB17DB
:100030000C94DC040C94DC040C94DC040C94DC04C0
:100040000C94DC040C94D71A0C94DC040C94DC049F
:100050000C94DC040C94DC040C94DC040C942D1A39
:100060000C94DC040C94DC040C94DC040C94DC0490
:100070000C94DC040C94DC040C94DC040C94DC0480
:100080000C94771A0C94DC040C94DC040C94DC04BF
:100090000C94DC040C94DC040C94DC040C94DC0460
:1000A0000C94DC040C94DC040C94DC0406011501B3
:1000B000260137014A015D01720188019F01B801E3
:1000C000D201EE010B022A024B026E029302BA0227
:1000D000E40210033F037003A403DC031704550478
:1000E0009704DD0427057505C80520067D06E00692
:1000F0004907B8072D08A9082D09B9094D0AEA0AC8
:10010000900B400CFA0CC00D910E6F0F5A1053114A
:100110005B1272139A14D41520178018F519801BDE
:10012000231DDE1EB420A622B524E4263429A72BE5
:10013000402E0031EA330037453ABC3D68414C451A
:100140006B49C84D68524F57805C00621011121302
:10015000151617181A1C1D1F21232527292C2E318F
:1001600034373A3E4145494E52575C62686E757B62
:10017000838B939CA5AFB9C4D0DCE9F700000000E5
:10018000003E5B4F5B3E3E6B4F6B3E1C3E7C3E1C1D
:10019000183C7E3C181C577D571C1C5E7F5E1C0063
:1001A000183C1800FFE7C3E7FF0018241800FFE71A
:1001B000DBE7FF30483A060E2629792926407F05DD
:1001C0000507407F05253F5A3CE73C5A7F3E1C1CF3
:1001D00008081C1C3E7F14227F22145F5F005F5FB3
:1001E00006097F017F006689956A6060606060949F
:1001F000A2FFA29408047E040810207E20100808A4
:100200002A1C08081C2A08081E101010100C1E0CAE
:100210001E0C30383E3830060E3E0E060000000040
:100220000000005F00000007000700147F147F1427
:10023000242A7F2A1223130864623649562050006C
:1002400008070300001C2241000041221C002A1C58
:100250007F1C2A08083E0808008070300008080843
:100260000808000060600020100804023E51494563
:100270003E00427F400072494949462141494D3381
:100280001814127F1027454545393C4A49493141E8
:10029000211109073649494936464949291E0000B6
:1002A000140000004034000000081422411414140B
:1002B0001414004122140802015909063E415D59F7
:1002C0004E7C1211127C7F494949363E4141412200
:1002D0007F4141413E7F494949417F090909013E2A
:1002E000414151737F0808087F00417F4100204051
:1002F000413F017F081422417F404040407F021C63
:10030000027F7F0408107F3E4141413E7F09090979
:10031000063E4151215E7F09192946264949493245
:1003200003017F01033F4040403F1F2040201F3F0B
:100330004038403F63140814630304780403615990
:10034000494D43007F4141410204081020004141D2
:10035000417F04020102044040404040000307087E
:100360000020545478407F2844443838444444287A
:10037000384444287F385454541800087E09021821
:10038000A4A49C787F0804047800447D40002040A9
:10039000403D007F1028440000417F40007C0478ED
:1003A00004787C080404783844444438FC18242435
:1003B0001818242418FC7C080404084854545424B5
:1003C00004043F44243C4040207C1C2040201C3C32
:1003D0004030403C44281028444C9090907C446429
:1003E000544C4400083641000000770000004136BC
:1003F000080002010204023C2623263C1EA1A16142
:10040000123A4040207A3854545559215555794173
:100410002154547841215554784020545579400C4A
:100420001E5272123955555559395454545939552B
:100430005454580000457C410002457D420001456E
:100440007C40F0292429F0F0282528F07C545545DB
:10045000002054547C547C0A097F4932494949326E
:100460003248484832324A4848303A4141217A3A83
:1004700042402078009DA0A07D39444444393D404D
:1004800040403D3C24FF2424487E4943662B2FFCFA
:100490002F2BFF0929F620C0887E090320545479A8
:1004A000410000447D413048484A32384040227A79
:1004B000007A0A0A727D0D19317D2629292F2826F6
:1004C0002929292630484D402038080808080808FE
:1004D0000808382F10C8ACBA2F102834FA00007B57
:1004E000000008142A142222142A1408950022005D
:1004F00095AA005500AAAA55AA55AA000000FF0017
:10050000101010FF00141414FF001010FF00FF1053
:1005100010F010F0141414FC001414F700FF000085
:10052000FF00FF1414F404FC141417101F10101F04
:10053000101F1414141F00101010F0000000001FF2
:10054000101010101F10101010F010000000FF10FD
:100550001010101010101010FF10000000FF1400F9
:1005600000FF00FF00001F10170000FC04F414142B
:100570001710171414F404F40000FF00F7141414F7
:1005800014141414F700F7141414171410101F1077
:100590001F141414F4141010F010F000001F101F9A
:1005A0000000001F14000000FC140000F010F01008
:1005B00010FF10FF141414FF141010101F0000007F
:1005C00000F010FFFFFFFFFFF0F0F0F0F0FFFFFF83
:1005D0000000000000FFFF0F0F0F0F0F38444438DA
:1005E000447C2A2A3E147E02020606027E027E0215
:1005F00063554941633844443C04407E201E200634
:10060000027E020299A5E7A5991C2A492A1C4C7270
:1006100001724C304A4D4D303048784830BC625AF7
:10062000463D3E494949007E0101017E2A2A2A2A87
:100630002A44445F444440514A444040444A514063
:100640000000FF0103E080FF000008086B6B083624
:1006500012362436060F090F060000181800000095
:100660001010003040FF0101001F01011E00191D84
:100670001712003C3C3C3C0000000000080B00024C
:10068000020200000904000001020200000524002B
:1006900010010524010101042402060524060001BD
:1006A0000705810310004009040100020A00000050
:1006B0000705020240000007058302400000040312
:1006C000090412010002EF020140412336800001BB
:1006D0000102030141726475696E6F204C4C430046
:1006E00041424C3133303900F0F89C8E8783878E3D
:1006F0009CF8F00000FEFF0303030303070EFCF861
:100700000000FEFF0303030303070EFCF80000FFD5
:10071000FF00000000000000FFFF0000FEFF8383D9
:10072000838383C7EE7C380000F8FC0E07030303C5
:10073000070EFCF800003F7FE0C08080C0E07F3FF4
:10074000FFFF01010101010101FFFF0000FFFF0C9C
:100750000C0C0C1C3E77E3C100007FFFC0C0C0C082
:10076000C0E0703F1F00001F3F70E0C0C0C0E070DD
:100770003F1F00007FFFC1C1C1C1C1E3773E1C0024
:10078000001F3F70E0C0C0C0E0703F1F00000000CD
:100790000001FFFF01000000D5F0E3E3A1C881CF15
:1007A000D9F1AF200022290024737065616B2E53AC
:1007B0007065616B2822006C00640074003E003E8E
:1007C000003E002020494E56202055534220204D07
:1007D00041502020524144003E000706050401001C
:1007E000080A0B0C0D0900000000250028002B0052
:1007F0002E00310000000000240027002A002D00F8
:100800003000040404040403040502020202040389
:10081000020202020606060606060404020202049A
:1008200004040802011040804010204080408008ED
:10083000020401804020100201108010204040205E
:1008400005010904A10185030509190129201500E5
:1008500025017501952055006500810205021500EE
:1008600026FF00A10009BB09BA750895028102C0E4
:1008700005010939150025073500463B016514754A
:1008800004950181020939150025073500463B0111
:100890006514750495018102150026FF007508098D
:1008A00001A10009300931093209330934093595AC
:1008B000068102C0C000000000000000002A2B28B2
:1008C0000000000000000000000000000000000028
:1008D00000000000002C9EB4A0A1A2A434A6A7A5ED
:1008E000AE362D3738271E1F20212223242526B37C
:1008F00033B62EB7B89F8485868788898A8B8C8D7E
:100900008E8F909192939495969798999A9B9C9D8F
:100910002F3130A3AD350405060708090A0B0C0D6D
:100920000E0F101112131415161718191A1B1C1D6F
:10093000AFB1B0B50005010906A10185020507198F
:10094000E029E715002501750195088102950175DB
:1009500008810395067508150025730507190029F8
:10096000738100C07B1B882A11241FBECFEFDAE001
:10097000DEBFCDBF11E0A0E0B1E0ECE4FDE502C0D8
:1009800005900D92A436B107D9F726E0A4E6B1E0B0
:1009900001C01D92A63CB207E1F714E0C3EBD4E01E
:1009A00004C02197FE010E94A12CC23BD107C9F7C8
:1009B0000E948A1C0C94992E0C940000809199013D
:1009C0000895E5E0F2E0A0E0B8E000800EBC8111FF
:1009D000012C1197A0FDFDCF0192B9F70DB4089538
:1009E000480F592F511D1416150684F580389105AE
:1009F0006CF597FF02C090E080E04138510514F09B
:100A000040E850E0481BFB01E770FF2721E001C0F0
:100A1000220FEA95EAF777FF02C0695F7F4FFB017B
:100A200033E0F595E7953A95E1F7F695FE2FEE2739
:100A3000F795E795E80FF91FEB5FFD4F415030F058
:100A40008191DF011197822B8C93F8CF0895603448
:100A5000710510F40C94F00408952F923F924F9278
:100A60005F926F927F928F929F92AF92BF92CF923E
:100A7000DF92EF92FF920F931F93CF93DF93CDB747
:100A8000DEB72E970FB6F894DEBF0FBECDBF5B0169
:100A90006A013E872D87261737070CF001C1E6163D
:100AA000F7060CF415C1621773075CF03A2D2B2D75
:100AB000AD84BE843D872E87382F292FC601C32ED3
:100AC000D22EAE14BF04A1F5C816D90654F0382FA3
:100AD000292F8C159D0514F43C2D2D2D6C01832F91
:100AE000922F0C151D052CF0801791070CF4C801EE
:100AF00086018F5F482F401BB501C8012E960FB6A7
:100B0000F894DEBF0FBECDBFDF91CF911F910F9143
:100B1000FF90EF90DF90CF90BF90AF909F908F901D
:100B20007F906F905F904F903F902F900C9427058F
:100B3000302F212F8C01832F922F3E2D2F2D7501C9
:100B4000A32EB22E9601201B310B38872F834D85A3
:100B50005E854E195F095A8749873C01601A710A00
:100B600095012E193F093A832983AC014C195D097F
:100B70005C834B83C5012D853E85821B930B9C872F
:100B80008B872A153B05F1F1215031093E832D83D6
:100B90004701512C412C312C212C8D819E818815AF
:100BA0009905ACF1C10169857A850E94862C9B016B
:100BB000200F311FC20169817A810E94862C600F4B
:100BC000711F4F815885240E351E460C571C621725
:100BD00073071CF4922F9B01692F6F5F462F421BF6
:100BE000B401C9010E9427055FEF851A950AD5CF88
:100BF0003C2D2D2D6C01832F922F3A2D2B2DAD8462
:100C0000BE8475C04D855E855E834D83C1CFC401B2
:100C10002D853E85821B930B2B813C81829FA001F9
:100C2000839F500D929F500D11245E834D83C4010C
:100C30008E199F09869D7001879DF00C969DF00C82
:100C40001124A814B9040CF455C08D819E816B85C4
:100C50007C850E94862C9B012C0D3D1DC70169815E
:100C60007A810E94862C600F711F4D815E818B817D
:100C70009C81480F591F5E834D83E60CF71C621759
:100C800073071CF4922F9B01692F6F5F462F421B45
:100C9000B401C9010E9427059FEF891A990AD1CF93
:100CA0002D853E85E216F3060CF00BCFE616F7060F
:100CB0000CF49ECF302F212F8A016C01832F922FAD
:100CC0003D852E857E876D875701E32EF22EEECE71
:100CD0004D855E85E416F5060CF434CF302F212FB8
:100CE0008601C32ED22E3E2D2F2DED84FE843D870E
:100CF0002E8728CF2E960FB6F894DEBF0FBECDBF3D
:100D0000DF91CF911F910F91FF90EF90DF90CF90E7
:100D1000BF90AF909F908F907F906F905F904F901B
:100D20003F902F9008955E9881E00E94E1045E9AC2
:100D30000895CF93DF9390E0FC01EF5DF74F24918E
:100D40008E5F974FFC0184918823C1F090E0880F5B
:100D5000991FFC01EC50F84FC591D491FC01EA5168
:100D6000F84FA591B4919FB7F8948881E22FE09550
:100D70008E2388838C91E823EC939FBFDF91CF91E2
:100D80000895FC018091F001882311F13FB7F89498
:100D900082E08093E9002091F200822F90E0181603
:100DA000190614F481E090E0882339F0289844E68D
:100DB0004093EF014091F1004083222339F02091CC
:100DC000F200211103C02BE62093E8003FBF0895F5
:100DD0008FEF9FEF0895823108F08251E82FF0E005
:100DE000E652F84FE49190917B008E2F880F880F88
:100DF00080729F7D892B80937B00E770E064E09395
:100E00007C0080917A00806480937A0080917A00DF
:100E100086FDFCCF809178009091790008954091F3
:100E2000B2015091B3012091B0013091B10142174C
:100E30005307B4F49091E8009570E1F39091E800C5
:100E400092FD19C08093F1008091B2019091B3019D
:100E500001968F739927892B19F48EEF8093E80000
:100E60008091B2019091B30101969093B301809368
:100E7000B20181E0089580E00895DF92EF92FF9241
:100E80000F931F93CF93DF93D82E8A01EB017B0141
:100E9000E40EF51ECE15DF0559F0D7FE12C0FE0197
:100EA00084910E940F0721968111F4CF0FEF1FEF5D
:100EB000C801DF91CF911F910F91FF90EF90DF90CC
:100EC00008958881EECF2FB7F89487708093E9005A
:100ED0009091E800892F807295FF04C09091F200F4
:100EE00080E4891B2FBF0895615030F02091F100FC
:100EF000FC0120830196F8CF289884E68093EF01C7
:100F00000895EF92FF920F931F93CF93DF938C017D
:100F10007B01D0E0C0E0F701EC0FFD1F6491662378
:100F200061F0D801ED91FC910190F081E02DC801B4
:100F30000995892B11F02196EECFCE01DF91CF914B
:100F40001F910F91FF90EF900895AF92BF92CF92B3
:100F5000DF92EF92FF920F931F93CF93DF936C0179
:100F60007B018B01040F151FEB015E01AE18BF085A
:100F7000C017D10759F06991D601ED91FC9101900C
:100F8000F081E02DC6010995892B79F7C501DF9124
:100F9000CF911F910F91FF90EF90DF90CF90BF9076
:100FA000AF9008958091A80181110DC082E08093D7
:100FB000A40184E08093A5011092A7011092A601DC
:100FC00081E08093A80184EA91E008950F931F9334
:100FD000CF93DF931F92CDB7DEB782E0898342E4DF
:100FE00050E06CE776E080E80E943D070E94D2075F
:100FF000DC0112960D911C910115110589F0D801A3
:10100000ED91FC910280F381E02DBE016F5F7F4F77
:10101000C801099597FD04C0F80100851185ECCF42
:1010200089810F90DF91CF911F910F910895CF93F8
:10103000DF931F92CDB7DEB76983DC01ED91FC91A0
:101040000280F381E02D41E050E0BE016F5F7F4FF1
:1010500009950F90DF91CF91089583E08093E90087
:101060008091F200882319F08AE38093E8000895C4
:1010700083E00E94630790E00895CF93DF931F926F
:10108000CDB7DEB7FC018485958597FD08C02FEFAD
:101090003FEF358724870F90DF91CF910895CE01E0
:1010A00001960E94C106019719F4898190E0F3CF5F
:1010B0008FEF9FEFF0CF0F931F93CF93DF931F928C
:1010C000CDB7DEB78C01FC018485958597FF0BC0F9
:1010D000CE0101960E94C106019771F4898190E0CA
:1010E000F80195878487F801848595850F90DF91B5
:1010F000CF911F910F9108958FEF9FEFF1CFFC01DA
:101100008485958597FD0BC09FB7F89482E0809306
:10111000E9008091F2009FBF90E0019608959FB78B
:10112000F89482E08093E9008091F2009FBF90E004
:1011300008950DB407FEFDCF8EB5599A0895FC01B0
:101140006150704021F00E94AB088193F9CF0E945A
:101150009908808308950DB407FEFDCF8EB51EBC9F
:1011600008950E94AB08982F0C9499080E94AB0830
:10117000982F0C94AB0859980E94990A862F0E94C8
:10118000990A852F0E94990A842F0C94990A462F58
:101190005091B801570F6091B901681F83E00E9418
:1011A000BB081EBC0895CF93DF93CFEFD1E06883D7
:1011B00079838A831B820E94C7080E94B6088C83A9
:1011C0000E94B1088D83DF91CF9108953F924F9295
:1011D0005F926F927F928F929F92AF92BF92CF92C7
:1011E000DF92EF92FF920F931F93CF93DF935C01F7
:1011F0006B013901842E302E9E2C842FB9010E9460
:10120000C7080E94B608582EC82FD92F0E94B108CF
:10121000FC019E012A0D3B1D121613060CF0F7C0AF
:1012200040E8A416B1040CF0F2C08C0D9D1D1816F8
:1012300019060CF0ECC040E4C416D1040CF0E7C071
:10124000B7FE0BC0EE24FF24EA18FB085E18203816
:1012500031055CF040E8542E08C0213831051CF0FF
:1012600020E8522E5A18F12CE12CD7FEE2C00027BC
:1012700011270C191D09087FCF01801B910B4E2EE1
:10128000401A8134910534F08C2D8195877030E4BB
:10129000432E480E159507951595079515950795B5
:1012A000CF010796969587959695879596958795FC
:1012B000389E9001399E300D1124200F311F40E0DF
:1012C000BE010D2E000C880B0E945C2CA82FCB01B8
:1012D0008E0D9F1DA11DF7FCAA9594FE05C0880FD9
:1012E000991FAA1FCC0FDD1F24E0620E711C811C08
:1012F000680E791E8A1E960183E0359527958A959A
:10130000E1F7020F30E80303D0011124AA0DBB1D41
:10131000AE0DBF1D95FE05C0252D2150330BA20F2C
:10132000B31F31E0C1FC34E0C0FC330FC2FC329586
:10133000AB5FBD4F242D599883E08EBD8091B801DD
:101340009091B901870D981D0DB407FEFDCF9EBD8C
:101350000DB407FEFDCF8EBD0DB407FEFDCF6EBCF4
:101360006C0E7D1E811C0DB407FEFDCF1EBC990CBA
:10137000073014F4089430FD8894979462E021FDBE
:1013800068E022FD629520FF66956A9511F028308D
:101390000CF06FEF952D0EB41EBC93FC0626862F25
:1013A00090FC802D92FC0024039EA00194FA36F458
:1013B000C895C89511240EB41EBC90FC082E039E3F
:1013C000003034F08C9191FE4827402148274C93FF
:1013D000A058BF4F97FE06C08C9191FE582751210F
:1013E00058275C93112495FCA15895FEAF57B1097D
:1013F0009A9589F6852D95FE81958058A80FB11D87
:10140000285003950DB4599A12160CF494CFDF911D
:10141000CF911F910F91FF90EF90DF90CF90BF90F1
:10142000AF909F908F907F906F905F904F903F9084
:1014300008954E2E813491051CF080E4482E4C18FE
:1014400010E000E02DCF2F923F924F926F927F924B
:101450008F92CF92DF92EF92FF920F931F93CF93D1
:10146000DF931B01482E9FEF291A390A490A0E946F
:10147000C7080E949908182F882309F44BC08D30A3
:10148000B1F0C0901501D09016018A3099F4809186
:1014900017019091180120910402C20ED11C909363
:1014A000140180931301D0921601C0921501842D6E
:1014B000B101D7CFF0900202C0911301D091140175
:1014C0006090FF017090000280900102EF2C082FC5
:1014D000482D9301B601CE010E94E60880910302D7
:1014E000F5FE0CC081E0781A8108882DB301610FE8
:1014F000711D811D0E94C7080E9499088C0F9D2FA5
:10150000911D2091190130911A01821793070CF057
:10151000BECFC5CFDF91CF911F910F91FF90EF907C
:10152000DF90CF908F907F906F904F903F902F9053
:1015300008958EBD00008EB50DB407FEFCCF089552
:10154000FC010E94620B319728F068517C4F8F4F4D
:101550009F4FF9CFAB01FC010E94620B6417750726
:101560008E079F07C8F308957F928F929F92AF9244
:10157000BF92CF92DF92EF92FF920F931F93CF9380
:10158000DF93C82E8B017A018091F001811110C088
:101590008FEF9FEFDF91CF911F910F91FF90EF9011
:1015A000DF90CF90BF90AF909F908F907F900895E5
:1015B0008091B60180FF05C08091E0008260809339
:1015C000E000CE2DDF2DD12C8AEFB82E8C2D877028
:1015D000982E8C2D8072882E8C2D8074782E9AE314
:1015E000A92E209719F4DD2009F450C08C2D0E94FB
:1015F0006307811108C0BA94BB2051F281E090E0EA
:101600000E94A00AEECF8C171D0611F00CF08C2F53
:101610009FB7F8949092E9002091E80025FD02C060
:101620009FBFDFCF282F30E0C21BD30B882029F0CB
:101630008150A0F01092F100FBCFF801C7FC0AC066
:10164000815050F041914093F100FACF4491409382
:10165000F10031968150D0F7020F131FDD2021F0E9
:10166000A092E800D12CDCCF8091E80085FD07C076
:10167000A092E800DD24D394209791F2F3CF209735
:1016800079F6772069F2A092E800CACF5D9884E6E7
:101690008093B501C7017ECFCF93DF93EC0180919A
:1016A0001201882331F083E00E94B40A181619064B
:1016B00034F081E090E09B838A8380E090E0DF91CA
:1016C000CF910895A0EAB1E02FB7F8947D918D9164
:1016D0009C9166B52FBFA89B05C06F3F18F47F5F34
:1016E0008F4F9F4F22E0660F771F881F991F2A9503
:1016F000D1F70895AB01FC010E94620B41505109E2
:10170000E109F10928F068517C4F8F4F9F4FF6CFC8
:10171000AB01FC010E94620B641775078E079F07DF
:10172000C8F308952FB7F89460919C0170919D01C2
:1017300080919E0190919F012FBF089590E00C949D
:10174000A00A8FB18095807F669B88601C9B846017
:10175000089590E49093C0001092BF008093D10050
:10176000089590E1282F81E061FD84E060FD880FFD
:1017700062FD8295687F969FD0011124A20FAB5F16
:10178000BD4F0C90082A40FF08260C92089580381F
:10179000910528F46034710510F40C94B10B089590
:1017A000FF920F931F93CF93DF93EC018B01F42EE5
:1017B00042FF0BC041E001960E94C70B41E0B80117
:1017C0006F5F7F4FCE010E94C70BF1FE0DC041E05D
:1017D000B801CE0101960E94C70B41E0B8016150EB
:1017E0007109CE010E94C70BF3FE0DC041E0B801A4
:1017F0006F5F7F4FCE010E94C70B41E0B801CE0161
:1018000001970E94C70BF0FE12C0B8016150710928
:1018100041E0CE010E94C70B41E0B801CE01019723
:10182000DF91CF911F910F91FF900C94C70BDF9127
:10183000CF911F910F91FF900895EF92FF920F9318
:101840001F93CF93DF937C018B01040F111DEB01DC
:1018500077FF02C0D0E0C0E0C8010134110514F0E8
:1018600080E490E0C817D9073CF441E0BE01C7010D
:101870000E94C70B2196F0CFDF91CF911F910F915E
:10188000FF90EF9008950F931F93CF93DF93EC0198
:101890008C010F5F1F4F42E168E370E0C8010E94B6
:1018A000F00442E16FE370E0C8010E94270546E0C2
:1018B00069E370E0CE010E941D0C46E069E370E030
:1018C000CE0143960E941D0C41E069E370E0C8011F
:1018D0000E94D00B629642E069E370E0CE010E9464
:1018E000D00B44E06EE370E0CE010E94D00B48E0E4
:1018F0006EE370E0C801DF91CF911F910F910C94BE
:10190000D00B2F923F924F925F926F927F928F9265
:101910009F92AF92BF92CF92DF92EF92FF920F937E
:101920001F93CF93DF935C014B01C42FD0E081E084
:1019300090E03C016C1A7D0A442455244C1A5D0A3F
:10194000440C551CCC24C394D12CF12CE12C822FB7
:101950008170282E33243394300E122F127077FCAE
:1019600006C0219782E0480E511C640C751C8FEF55
:10197000E81AF80A82E0C80ED11C6C0C7D1C2220EB
:10198000A9F04C2F440F430DB4016C1B7D0BC50116
:101990008E0D9F1D0E941D0C402F4C0DB4016E1921
:1019A0007F09CE018A0D9B1D0E941D0C1123A9F0F9
:1019B0004C2F440F430DB4016C1B7D0BC5018E19D8
:1019C0009F090E941D0C402F4C0DB4016E197F0918
:1019D000C5018C1B9D0B0E941D0CEC16FD060CF422
:1019E000BECFDF91CF911F910F91FF90EF90DF90CD
:1019F000CF90BF90AF909F908F907F906F905F90AF
:101A00004F903F902F900895DF92EF92FF920F93A7
:101A10001F93CF93DF937B01D22EEC018C01040F37
:101A2000111DC017D1073CF44D2DB701CE010E9406
:101A30001D0C2196F6CFDF91CF911F910F91FF9052
:101A4000EF90DF900895EF92FF920F931F93CF9343
:101A5000DF937C018B01C42FD22F0E942705B80190
:101A60006D0F711D615071094C2FC7010E94270530
:101A70004D2FB801C7010E941D0CC7018C0F911D8D
:101A80004D2FB8010197DF91CF911F910F91FF90DA
:101A9000EF900C941D0C2F923F924F925F926F9299
:101AA0007F928F929F92AF92BF92CF92DF92EF92EE
:101AB000FF920F931F93CF93DF9300D000D0CDB749
:101AC000DEB78C017C836B83645F7F4F41E00E94B3
:101AD000C70B6B817C816C50710941E0C8010E9489
:101AE000C70B41E06B817C81C8010C960E94C70B3B
:101AF00041E06B817C81C8010C970E94C70B81E09B
:101B000090E09A838983D12CC12C8CE0E82EF12CB3
:101B100098EE292E33243A9425EFA22EBB24BA94B2
:101B20009FEFC91AD90A89819A8102969A8389837B
:101B3000A80EB91E3601600E711E41E08B809C809C
:101B40008E0C9F1CB401C3010E94C70B28014C18C6
:101B50005D0841E0B401C2010E94C70B41E08B80E7
:101B60009C808E189F08B401C3010E94C70B41E0FE
:101B7000B401C2010E94C70B8B809C808C0C9D1C01
:101B800041E0B40138016E0C7F1CC3010E94C70BF9
:101B900041E0B40128014E185F08C2010E94C70B42
:101BA0008B809C808C189D0841E0B401C3010E9489
:101BB000C70B41E0B401C2010E94C70BCE14DF0481
:101BC000BCF00F900F900F900F90DF91CF911F916D
:101BD0000F91FF90EF90DF90CF90BF90AF909F90CC
:101BE0008F907F906F905F904F903F902F900895CF
:101BF000B7FC96CF91E0E91AF10882E0280E311C7B
:101C0000A20CB31C8DCF90E0E5E0F2E091119FEFC4
:101C10008FEF91939193919391938150D0F710927C
:101C2000DD011092DC011092DF011092DE010895B7
:101C30008F929F92AF92BF92CF92DF92EF92FF92DC
:101C40000F931F93CF93DF936D3089F0C090DC0129
:101C5000D090DD016A30D1F41092DF011092DE01E4
:101C600088E0C80ED11CD092DD01C092DC0181E079
:101C700090E0DF91CF911F910F91FF90EF90DF9057
:101C8000CF90BF90AF909F908F9008950091DE010C
:101C90001091DF01E5E06E9FE0011124C458DE4F92
:101CA0004801F12CF5E0E12CFF1629F0CE01019658
:101CB000FE01E490EC01B12CA12C4E2D4170B60137
:101CC0006A0D7B1DC4010E94C70BE694FFEFAF1A9B
:101CD000BF0A88E0A816B10481F7F394EFEF8E1ADB
:101CE0009E0AF6E0FF12DECF0A5F1F4F1093DF015E
:101CF0000093DE01BCCF9091ED01982329F49091DF
:101D0000EE01982381E009F480E00895CF93C82F75
:101D10000E94A10BC82381E009F080E0CF910895D3
:101D2000CF93C82F0E94A10B982F9C2381E09C1376
:101D300080E0CF91089580E00C94E1042F923F92CF
:101D40004F925F926F927F928F929F92AF92BF92CB
:101D5000CF92DF92EF92FF920F931F93CF93DF9377
:101D600000D01F92CDB7DEB79B838A837B016A01C7
:101D700009838901061B170B17FF03C011950195F5
:101D8000110946018A819B81881A990A97FE03C02E
:101D9000919481949108801691065CF49C2D8D2D70
:101DA0006901292F382F9A818B81FB82EA82E92EE3
:101DB000F82E8A819B81C816D9065CF49E2D8F2D42
:101DC0007901292F382F9A818B81DB82CA82C92E13
:101DD000D82E16018A819B81281A390A29014E18AA
:101DE0005F0857FE03C0519441945108310137FEFA
:101DF00003C09FEF691A790A759467948FEFE21612
:101E0000F3060CF481E0A82E880FBB088A819B8121
:101E1000C816D906CCF04981BC01C70180169106CD
:101E20001CF0B7018A819B810E94C70B641875085A
:101E300077FE04C0EA0CFB1C620C731C8A819B8138
:101E400001969B838A83E2CF0F900F900F90DF91D2
:101E5000CF911F910F91FF90EF90DF90CF90BF90A7
:101E6000AF909F908F907F906F905F904F903F903A
:101E70002F9008956F927F928F929F92AF92BF9210
:101E8000CF92DF92EF92FF920F931F93CF93DF9346
:101E9000EC016B015A014901380101E00E949E0EDC
:101EA0009701A301B401C5010E949E0E9601AE01E7
:101EB000B701C3010E949E0EDF91CF911F910F9138
:101EC000FF90EF90DF90CF90BF90AF909F908F905A
:101ED0007F906F90089580919701882321F0109250
:101EE000970180E0089590919C0120919801392FED
:101EF000321B303138F43F3091F091E093BF889538
:101F000013BE089581E08093970190939801EAEBC6
:101F1000F1E08081918101968083918381E0089531
:101F2000DC01FB0112962C91129784819581281770
:101F3000190641F491818081813A31F49D7F81E0DD
:101F4000913009F080E008958132E1F79B3029F467
:101F500082811F968C9381E008959A3099F782814F
:101F600050968C93F8CFAF92BF92CF92DF92EF92C0
:101F7000FF920F931F93CF93DF931F92CDB7DEB7DE
:101F80007C0169836A01590141E050E0BE016F5F45
:101F90007F4FFC0183810E94B40A8C0197FD0BC026
:101FA000F7018381A501B60180640E94B40A080F7D
:101FB000191F97FD8C01C8010F90DF91CF911F91E0
:101FC0000F91FF90EF90DF90CF90BF90AF9008956A
:101FD000DC01FB0188E4808389E4818384E48283DB
:101FE0001D969C911D979F709F5B93831D968D916D
:101FF0009C9124E0969587952A95E1F78F708F5BE9
:10200000848385E00895EF92FF920F931F93CF93FF
:10201000DF93FB012081213871F52381223259F5AC
:10202000DC0112964C91248135814217130619F573
:10203000EC010B851C85F12CE12C0115110589F0B3
:10204000F801448155816281738180E80E943D07D7
:102050008F3F980749F0E80EF91ED8010D911C91A9
:10206000ECCF81E08F87C701DF91CF911F910F9156
:10207000FF90EF90089590E080E0F6CFCF93DF934C
:10208000CDB7DEB769970FB6F894DEBF0FBECDBFF0
:10209000FC01DB018C918F5F8C939E012D5F3F4F84
:1020A0008DE0D9011D928A95E9F729E0298384E022
:1020B0008A8391E09D8383E08E832A8721E22B87A8
:1020C0009C879D879F8722E2288B27E02B8B25E02A
:1020D0002C8B8E8B20E430E0388F2F8B998F828170
:1020E0008B8395858685998B8A8B838180688D8B80
:1020F00049E150E0BE016F5F7F4F80E00E943D07E5
:1021000069960FB6F894DEBF0FBECDBFDF91CF91B9
:102110000895CF93DF9380918F01811167C081E093
:10212000809382018093830128E831E03093850118
:102130002093840110928701109286012EE231E0F3
:1021400030937F0120937E0110928A0110928901C1
:1021500010928C0110928B0180938D0180938E01DF
:1021600081EC809388010E94D207FC0181819091CB
:102170008201482F490F5527551F483051059CF5BE
:10218000A281B381109709F52EE731E033832283D2
:102190002081209380018093810180918301820FAF
:1021A000808320918401A22FB09185018A2F821B08
:1021B0008917C8F481813D91C82FD0E0C050DF4F0E
:1021C00038838F5F8183F2CFD90118962D913C918E
:1021D000199721153105C1F72EE731E019963C9387
:1021E0002E931897D5CF81E080938F018EE791E0F1
:1021F000DF91CF910895CF93DF93EC010E94891076
:1022000028E030E0AE0162E0DF91CF910C94B30F93
:10221000E5E8F6E01682178210861186128613868C
:10222000148289E896E00C94FB100F931F93CF93D0
:10223000DF93CDB7DEB72D970FB6F894DEBF0FBE94
:10224000CDBF30916D0620916E0690916F06809102
:10225000700639832A839B838C83809171068D83DA
:10226000809172068E83809173069091740628E0A7
:1022700097FD09C068E671E00E94862C6DE270E06F
:102280000E94862C262F809175069091760668E034
:1022900097FD08C068E671E00E94862C6DE270E050
:1022A0000E94862C80E1689FB0011124262B2F8389
:1022B0008091640681588887809165068158898756
:1022C0008091660681588A8780916706909168069A
:1022D00008E611E0B8010E94862CBC01990F880B1A
:1022E000990B0E94932A2DE73FE345E35FE30E94A9
:1022F000CE2A0E942D2C6B878091690690916A06E8
:10230000B8010E94862CBC01990F880B990B0E9482
:10231000932A2DE73FE345E35FE30E94CE2A0E9424
:102320002D2C6C8780916B0690916C06B8010E94F1
:10233000862CBC01990F880B990B0E94932A2DE7DC
:102340003FE345E35FE30E94CE2A0E942D2C6D8778
:102350000E9489102DE030E0AE014F5F5F4F63E0D7
:102360000E94B30F2D960FB6F894DEBF0FBECDBFFF
:10237000DF91CF911F910F91089541E050E060E00F
:1023800070E004C0440F551F661F771F8A95D2F76F
:1023900080916D0690916E06A0916F06B0917006C7
:1023A000842B952BA62BB72B80936D0690936E06EE
:1023B000A0936F06B09370068091630681110C9410
:1023C0001511089541E050E060E070E004C0440F52
:1023D000551F661F771F8A95D2F7409550956095D7
:1023E000709580916D0690916E06A0916F06B091E8
:1023F000700684239523A623B72380936D069093BC
:102400006E06A0936F06B0937006809163068111EB
:102410000C9415110895CF92DF92EF92FF920F93D3
:102420001F93CF93DF936C01EB017B01E40EF51E4C
:1024300010E000E0CE15DF0581F069916D30D1F339
:10244000D601ED91FC910190F081E02DC601099536
:10245000892B19F00F5F1F4FEDCFC801DF91CF918E
:102460001F910F91FF90EF90DF90CF900895DC01C6
:10247000683888F1685816968C911697861721F15E
:1024800017968C9117978617F9F018968C911897D4
:102490008617D1F019968C9119978617A9F01A967C
:1024A0008C911A97861781F01B968C911B97861733
:1024B00059F0FD01369690E080E0219121114FC046
:1024C0008A0F9B1FFC016683CD0104960E94FB10BE
:1024D00081E090E00895862F90E067FF12C0FC0134
:1024E000E058F10921E030E001C0220FEA95EAF757
:1024F00014968C911497822B14968C93149760E009
:10250000BACF1C96ED91FC911D97E80FF91F6491CD
:10251000611109C081E090E013969C938E9312970D
:1025200090E080E00895862F807C803C69F41496CA
:102530008C911497806414968C9314976F73623304
:1025400009F099CF64E697CF67FFF9CF14968C9185
:102550001497826014968C9314976F77F0CF01963E
:102560008630910509F0A9CFD5CFEF92FF921F9346
:10257000CF93DF93EC01162F0E9437127C01E8E71E
:10258000E10F183890F4812F90E017FF2AC0FC016A
:10259000E058F10981E090E001C0880FEA95EAF780
:1025A00080959C8189238C83E0E0DE0186E0EE2328
:1025B00041F016969C911697E91303C016961C924B
:1025C0001697815011968111F2CFCE0104960E9488
:1025D000FB10C7019927DF91CF911F91FF90EF90DA
:1025E0000895EC85FD85E80FF91FE491EE2389F34A
:1025F0008E2F807C803C41F48C818F7B8C83EF73A9
:10260000E23399F6E4E6D1CFE7FFFACF8C818D7FF4
:102610008C83EF77F5CF6F927F928F92CF92DF927C
:10262000EF920F931F93CF93DF93C091F4018091AA
:10263000F301082E000C990BC817190609F477C08E
:102640006091FC017091FD018091FE010E94C7081C
:10265000609193068C2F0E94662CD091F301092F74
:1026600010E02D2F0D2E000C330B0217130709F469
:1026700050C00E94AB08E0919406F0919506E00FDF
:10268000F11F8083CF5F2091FC013091FD014091CB
:10269000FE012F5F3F4F4F4F2093FC013093FD0110
:1026A0004093FE012091F9013091FA014091FB0124
:1026B0006090F6017090F7018090F801C090FC01E5
:1026C000D090FD01E090FE01260D371D481D2C1510
:1026D0003D054E05C1F4803EB1F48091F901909121
:1026E000FA01A091FB018093FC019093FD01A0935E
:1026F000FE010E9499086091FC017091FD0180919A
:10270000FE010E94C708DF3F09F0A2CF1092F3013B
:102710009FCF9093F401DF91CF911F910F91EF9094
:10272000DF90CF908F907F906F900C949908DF91FD
:10273000CF911F910F91EF90DF90CF908F907F906E
:102740006F900895E82FF0E0E85DFE4F80818130C2
:1027500019F08330A9F008958091730181110FC0A1
:1027600080916F008D7F80936F0080916E01E0916A
:102770006C01F0916D01908180958923808308958B
:1027800010927D0180917C018111F9CF80917A01B5
:10279000E0917801F0917901EECFCF93C0E0809184
:1027A000F101C81728F48C2F0E94A213CF5FF7CF36
:1027B0001092F201CF910895CF92DF92EF92FF92A3
:1027C0001F93CF93DF939091F101891708F03CC0DC
:1027D000813021F490916701911136C067FD34C0BA
:1027E000E82FF0E0E85DFE4F1081E62FF0E0603367
:1027F00098F5E45BFE4FE491CE2FD0E0F12CE12C74
:1028000060E074E284EF90E0A7019E010E94A62B95
:10281000215031094109510991E02115310581E02B
:10282000480751056CF060E970ED83E090E0A70186
:102830009E010E94A62B215031094109510993E0C4
:10284000113089F0133039F1DF91CF911F91FF9052
:10285000EF90DF90CF900895EE0FFF1FE45BFF4FE6
:10286000C591D491CBCF809173018111EDCF80912F
:102870008100887F892B8093810030938900209389
:102880008800109285001092840080916F00826011
:1028900080936F00D9CF80919100887F892B80939E
:1028A0009100309399002093980010929500109217
:1028B0009400D0936901C093680181E080937D0109
:1028C00080917100826080937100BECFCF93DF93BF
:1028D000D1E08091F501811115C0E0916A01F0917C
:1028E0006B01CF01019690936B0180936A01E49193
:1028F0008E2F807FCE2FCF708038D9F48C2F0E94FE
:10290000A213E7CF8091F301E0919406F091950630
:10291000E80FF11D87FDFA95E0818F5F082E000C0E
:10292000990B6091930670E00E94862C8093F301CE
:10293000DFCF803999F5E0919606F09197060995D9
:102940008D2780937B018091F50181110FC0E0916B
:102950006A01F0916B01CF01019690936B01809316
:102960006A0164918C2F0E94DC13B3CF8091F30134
:10297000E0919406F0919506E80FF11D87FDFA9518
:1029800020818F5F082E000C990B6091930670E0F8
:102990000E94862C8093F301622FE4CF87FD63C0F1
:1029A0008091F5012E2F30E0322F2227811142C075
:1029B000E0916A01F0916B01CF01019690936B0158
:1029C00080936A01E491C9018E2BFC01209168017A
:1029D00030916901DF010E941E2C6C507E4F8F4F99
:1029E0009F4F28EE33E040E050E00E94FC2B209304
:1029F0007401309375014093760150937701809173
:102A0000740190917501A0917601B0917701892BA5
:102A10008A2B8B2B61F481E090E0A0E0B0E0809302
:102A2000740190937501A0937601B0937701DF91C3
:102A3000CF9108958091F301E0919406F09195066D
:102A4000E80FF11D87FDFA959081F901E92B8F5F61
:102A5000082E000C990B6091930670E00E94862C62
:102A60008093F301B3CF803E29F410926B01109252
:102A70006A012FCF803F09F02CCF1092F201D7CFFF
:102A80006093FC017093FD018093FE016093F90156
:102A90007093FA018093FB012093F6013093F701C4
:102AA0004093F80181E08093F5011092F4019FEFCB
:102AB0009093F3018093F2018091F20181110E94C1
:102AC0000B130C9466149091F101923009F46DC0CF
:102AD000292F30E0F901E85DFE4F40812B593E4F30
:102AE000F9018083913031F420916501281302C0EF
:102AF000909367019F5F9093F10190E0FC01EE5F7E
:102B0000F74F24918F5D974FFC01849130E0220FA5
:102B1000331FF901EA51F84F65917491F901EC50B6
:102B2000F84FA591B4919C91982B9C93413019F04A
:102B30004330D9F0089590916400977F909364009A
:102B40001092800010928100909181009860909383
:102B500081009091810091609093810070936D014C
:102B600060936C0180936E01089590916500977F4A
:102B700090936500109290001092910090919100B6
:102B80009860909391009091910091609093910042
:102B9000709379016093780180937A016CE380E00F
:102BA0000E94DC1380E00C94A213089586E190E06B
:102BB0000E94A90B63E070E080E090E00E947A0B35
:102BC00086E190E00E94A90B65E070E080E090E073
:102BD0000E947A0B81E190E00E94A90B68E070E00E
:102BE00080E090E00E947A0B81E190E00E94A90BC6
:102BF0006BE070E080E090E00E947A0B81E190E071
:102C00000E94A90B6DE070E080E090E00E947A0BDA
:102C10001092C0000895089590E080E00895FB01AF
:102C200001900020E9F73197AF01461B570BDC01FB
:102C3000ED91FC910280F381E02D0994CF93DF9315
:102C4000BC0185E896E00E948107EC0160E671E036
:102C500085E896E00E940F168C0F9D1FDF91CF91A3
:102C600008958F929F92AF92BF92CF92DF92EF9290
:102C7000FF920F931F93CF93DF93CDB7DEB7A1974A
:102C80000FB6F894DEBF0FBECDBF6C01990FEE08F2
:102C9000FF08F7FE4BC06DE28EEB96E00E94180E27
:102CA0008C0122273327A9012C193D094E095F0900
:102CB00019A2CE0181967C019AE0892E912CA12C3B
:102CC000B12CCA01B901A50194010E94FC2B605DE1
:102CD000F70162937F01211531054105510589F7FF
:102CE00090E080E0309729F0BF018EEB96E00E94E3
:102CF0000F16080F191F60E671E08EEB96E00E9438
:102D00000F16800F911FA1960FB6F894DEBF0FBE6D
:102D1000CDBFDF91CF911F910F91FF90EF90DF908A
:102D2000CF90BF90AF909F908F900895A70196018C
:102D300019A28E010F5D1F4F8AE0C82ED12CE12C05
:102D4000F12CCA01B901A70196010E94FC2B605D1C
:102D5000F80162938F01211531054105510589F76D
:102D6000309739F0BF018EEB96E00E940F168C0170
:102D7000C2CF10E000E0BFCFCF93DF93EC01809192
:102D8000980690919906009759F020919A063091F3
:102D90009B062C173D0720F081E0DF91CF9108952D
:102DA000BE016F5F7F4F0E94CC2D009789F09093FA
:102DB000990680939806D0939B06C0939A0620911B
:102DC0009C0630919D06232B39F7FC011082E4CF3D
:102DD00080E0E3CF82E090E00E948C2B882331F0EA
:102DE0003E9A3F9A81E0809399010895109299014B
:102DF0003E983F9808956F927F928F92EF92FF9244
:102E00000F931F93CF93DF931F92CDB7DEB73B0194
:102E1000882E10E000E0882DB301600F711F811D26
:102E20000E94C70861E070E0CE0101960E949F08F1
:102E3000C80101962981222311F08C01ECCF0E9458
:102E4000A72C7C01882DB3010E94C708B801C701D7
:102E50000E949F08F701E00FF11F1082E114F104B6
:102E600029F0B70185E896E00E940F1660E671E050
:102E700085E896E00E940F16E114F10469F0C7019D
:102E80000F90DF91CF911F910F91FF90EF908F9056
:102E90007F906F900C94432D0F90DF91CF911F91F5
:102EA0000F91FF90EF908F907F906F900895CF9348
:102EB000DF93EC0163E885E896E00E94371262E751
:102EC00085E896E00E94371264E670E080E090E0CA
:102ED0000E947A0B0E9408116CED75E080E090E092
:102EE0000E947A0BBE01DD0F880B0E94FB1664E680
:102EF00070E080E090E00E947A0B60EB85E896E05D
:102F00000E94371264E670E080E090E00E947A0B45
:102F1000DF91CF910C9408111F920F920FB60F9270
:102F200011248F939F938091E1009091E100937F12
:102F30009093E10083FF0FC01092E90091E090931D
:102F4000EB001092EC0092E39093ED001092F001F0
:102F500098E09093F00082FF22C093E09093E90004
:102F60009091F200992319F09AE39093E8009091E0
:102F7000B501992341F09091B50191509093B5011D
:102F8000911101C05D9A9091EF01992341F09091C8
:102F9000EF0191509093EF01911101C0289A84FFA5
:102FA00018C08091E2008E7E81608093E200809163
:102FB000E1008F7E8093E1008091B6018E7E80617A
:102FC0008093B6019F918F910F900FBE0F901F902D
:102FD000189580FFF7CF8091E2008E7E806180930C
:102FE000E2008091E1008E7E8093E1008091B60145
:102FF0008E7E8160E5CF1F920F920FB60F92112443
:10300000CF92DF92EF92FF920F931F932F933F93F4
:103010004F935F936F937F938F939F93AF93BF93E0
:10302000EF93FF93CF93DF93CDB7DEB76C97DEBFFF
:10303000CDBF1092E9008091E80083FF25C068E0D1
:10304000CE0145960E94740782EF8093E8008D8937
:1030500087FF39C09091E80090FFFCCF982F9076C1
:1030600009F034C19E894F89588D2F89F88C9111B0
:1030700031C0803861F58091B7018093F1001092E2
:10308000F1008EEF8093E8006C960FB6F894DEBFE7
:103090000FBECDBFDF91CF91FF91EF91BF91AF9167
:1030A0009F918F917F916F915F914F913F912F9160
:1030B0001F910F91FF90EF90DF90CF900F900FBE78
:1030C0000F901F9018959EEF9093E800C7CF109235
:1030D000F100D5CF913059F48111D3CF4130510552
:1030E00081F68091B7018D7F8093B701CACF93306D
:1030F00049F48111C6CF4130510519F68091B701CD
:103100008260F2CF953041F48091E80080FFFCCFDF
:1031100020682093E300B5CF963009F0A9C00B8D4D
:103120001C8D22E01092E9001092B3011092B201BE
:10313000F2122EC01092B1011092B0010E94E60767
:103140001F8299E09983FA8291E09E8390EA9887A2
:103150009AEF99872091B2013091B301275F3F4FD9
:103160003C832B838D831092E9001092B30110925F
:10317000B2011093B1010093B00149E050E0BE01EB
:103180006F5F7F4F80E00E943D070E94E60779CF86
:103190001093B1010093B0010E94D207DC01129696
:1031A0000D911C910115110509F451C1D801ED9142
:1031B000FC910480F581E02DBE016B5E7F4FC8015C
:1031C0000995009709F03EC1F80100851185EACF05
:1031D000F3E0FF120EC08F89882309F440C08230CB
:1031E00061F440E867E080EE96E00E94481B8111A0
:1031F00048CF81E28093EB0047CF813029F440E84B
:103200006BE084ED96E0F1CF833099F70E94D2070E
:10321000DC011296ED90FC908E010F5F1F4F68014C
:10322000E114F10479F0D701ED91FC910680F7816A
:10323000E02DB801C7010995080F111DF701E084C1
:10324000F184EECFD8011C92F60101900020E9F73D
:103250003197BF016C197D0940E0C601C6CF6EEB06
:1032600076E0FB01449150E080E80E943D0709CFE1
:10327000973009F4BECF983021F481E08093F100BB
:1032800000CF993009F0FDCE837009F0B2CFE1E0B4
:10329000F1E081E031E096E32191222371F0809307
:1032A000E9003093EB00DF0111972C912093EC00A3
:1032B0009093ED008F5F873079F78EE78093EA0077
:1032C0001092EA008F898093F001DBCE8B8D9C8D6C
:1032D0001092E9001092B3011092B2019093B101E3
:1032E0008093B001898D811192C08E899D89913A18
:1032F00049F4813209F07DCF47E050E06BE071E0A6
:1033000080E0B3CF913209F074CF833269F48F89B2
:10331000988DB0E0A0E08093070190930801A093FE
:103320000901B0930A01ADCE803269F48091E800C2
:1033300082FFFCCF67E08BE091E00E9474078BEF87
:103340008093E8009ECE823209F09BCE8F898093D5
:103350001201EEEFFFE7859194918B3F9C4D51F167
:10336000E0E0F8E080910B0190910C01A0910D013B
:10337000B0910E01803B9440A105B105F1F480911C
:10338000120180FD1AC0EE3F8AE0F80789F587E751
:1033900097E791838083809160008093B40188E1F6
:1033A0009BE00FB6F894A895809360000FBE9093B1
:1033B000600067CEEEEFFAE0D5CF8081918187374C
:1033C000974709F05ECEA895809160008861809350
:1033D00060008091B40180936000EE3F2AE0F20724
:1033E00089F08091FE0A9091FF0A9183808349CEF3
:1033F000808191818737980751F29093FF0A8093DB
:10340000FE0AC5CF1092FF0A1092FE0A3ACE0E9421
:10341000D207DC0112960D911C910115110509F4DA
:10342000E8CED801ED91FC910190F081E02DBE0134
:103430006B5E7F4FC8010995811123CEF80100858D
:103440001185EBCF181619060CF41BCED2CEF1E085
:10345000FF12BECE62EC76E004CF0F920FB68F93D0
:103460009F93EF93FF9380919B018D5F8D3708F0C1
:103470008D5780939B01ECE9F1E080818E4F808332
:1034800091819F4F918382818F4F828383818F4F60
:103490008383E0EAF1E080818F5F808381818F4FB9
:1034A000818382818F4F828383818F4F83838FB10A
:1034B0008F6066991C9B88278F3681F480919A01D2
:1034C000981B963068F0E0E0F8E087E7808381831E
:1034D00088E180936000F0936000FFCF90939A01A1
:1034E000FF91EF919F918F910FBE0F9018951F92B2
:1034F0000F920FB60F9211242F933F934F935F9328
:103500006F937F938F939F93AF93BF93EF93FF93AB
:1035100080917D01882389F080917C0181110DC00B
:1035200080917B01811109C090917A01E09178012D
:10353000F09179018081892780838091F20188232D
:1035400029F18091740190917501A0917601B0915B
:103550007701892B8A2B8B2BC9F080917401909174
:103560007501A0917601B09177010197A109B10988
:103570008093740190937501A0937601B0937701C5
:10358000892B8A2B8B2B11F40E946614FF91EF91EB
:10359000BF91AF919F918F917F916F915F914F916B
:1035A0003F912F910F900FBE0F901F9018951F9273
:1035B0000F920FB60F9211248F939F93AF93BF93E7
:1035C000EF93FF9380917301882309F454C0809195
:1035D0006F0190917001A0917101B0917201892BDE
:1035E0008A2B8B2BA1F190916E01E0916C01F091EF
:1035F0006D0180818927808380916F019091700196
:10360000A0917101B0917201181619061A061B06D5
:103610009CF480916F0190917001A0917101B09123
:1036200072010197A109B10980936F019093700114
:10363000A0937101B0937201FF91EF91BF91AF918F
:103640009F918F910F900FBE0F901F901895109221
:103650007C011092730180916F008D7F80936F00C9
:1036600080916E01E0916C01F0916D0190818095E7
:1036700089238083E1CF80917B018111DDCF9091FF
:103680006E01E0916C01F0916D0180818927F1CF8D
:10369000EF92FF920F931F93CF93DF93F82E192F82
:1036A000E62E042F81E0860F880F0E940F0783E02B
:1036B0000E940F07CF2DD12FEC0EFD2EF11CCE1541
:1036C000DF05B9F007FF13C0FE0184910E940F07C8
:1036D000182F80E00E940F07812321968111EFCFE0
:1036E000DF91CF911F910F91FF90EF900895888106
:1036F000EDCF81E0F5CF109208061092070688EE14
:1037000093E0A0E0B0E08093090690930A06A093AE
:103710000B06B0930C068AE391E090930606809323
:1037200005068FEF9FEF909312068093110680910C
:103730005B06811113C0109256061092550680E464
:1037400098E0909358068093570685E790E0909311
:103750005A068093590681E080935B060E94891087
:10376000FC01A385B485109709F0B6C085E596E005
:1037700094878387858596852091590630915A06CE
:10378000820F931F968785871092640610926506B4
:1037900010926606109268061092670610926A06EA
:1037A0001092690610926C0610926B0610926D06CC
:1037B00010926E0610926F061092700610927106AB
:1037C000109272068FEF9FEF9093740680937306AA
:1037D000909376068093750610928806109287065D
:1037E0008CE491E0909386068093850680917D0617
:1037F000811113C0109278061092770685E399E044
:1038000090937A06809379068FE290E090937C06FD
:1038100080937B0681E080937D060E948910FC01E5
:10382000A385B485109709F062C087E796E0948776
:1038300083878585968520917B0630917C06820F53
:10384000931F9687858785EB98E0909392068093E7
:1038500091061092C1061092C00688E591E09093FF
:10386000BF068093BE068EED94E0909397068093FA
:1038700096068EE996E0909395068093940680E2F2
:1038800080939306109299061092980610929B06C8
:1038900010929A0610929D0610929C0690E080E08D
:1038A0000E94BC162091980630919906811129C07A
:1038B0002115310519F0C9010E94432D1092990676
:1038C0001092980610929D0610929C0610929B06EC
:1038D00010929A060895DC018D919C9111970097A2
:1038E000D1F785E596E08D939C9344CFDC018D91D3
:1038F0009C9111970097D1F787E796E08D939C9361
:1039000098CF10929D0610929C0662E671E0C90164
:103910000C94922E00D0CDB7DEB7789483E084BDAE
:1039200083E085BD81E080936E00E1E8F0E083E014
:103930008083E0E881E08083E1E983E08083E0E95F
:1039400081E08083E1EC87E08083E3EC81E08083A9
:10395000E0EC82E08083E2EC81E08083EAE787E0CC
:103960008083806880831092F0011092B7011092DA
:10397000B6018091D70081608093D70080EA809360
:10398000D80089B5806189BD89B5826089BD09B4D7
:1039900000FEFDCF81E090E00E94A00A8091D80057
:1039A0008F7C80618093D8008091E000807F80933D
:1039B000E0008091E1008E7E8093E1008DE08093B5
:1039C000E200559A209A81EC80937C0081EF85B9C2
:1039D00087EE84B982E38BB982EF8AB9769A6E98C2
:1039E00080EF81BB10BA80E58CBD81E08DBD85E0A4
:1039F0000E949E0B5F9A85E00E949E0B5C98E8E90E
:103A0000F7E085918EBD00000DB407FEFDCFE53ACD
:103A1000C1F75C9A81E88093640081E0809365003F
:103A20000E949B0E80E80E94900E8823A9F05C986B
:103A300085EA8EBD00000DB407FEFDCF5C9A2E987E
:103A40002F982D988091640080628093640081E0BB
:103A500083BF889513BEFCCF84E00E94900E88231C
:103A6000B9F12D9884E80E94900E8823A1F02D9A38
:103A700088EC0E949E0B2F986FEF82E090E00E94EE
:103A8000942B84EF91E00E94A00A2F9A84E80E9470
:103A9000900E8111FBCF84E10E94900E8823A1F04B
:103AA0002D9A88EC0E949E0B2E9860E082E090E0B8
:103AB0000E94942B84EF91E00E94A00A2E9A84E148
:103AC0000E94900E8111FBCF88EC0E949E0BC4CF08
:103AD0002D9A0E94EA1681E090E00E948C2B282FFC
:103AE0002470F22E81FF0CC021112E9801EF1FEFE0
:103AF00080E40E94900E882309F4A8C02E9A2F9A81
:103B000082E30E949E0B0E94A10B8111F9CF5E9A65
:103B10005E9AE4E1F0E08EEB9FEF259135915591AF
:103B200045912851354909F4CA018093B801909311
:103B3000B90159988BEA0E94990A599A1092180172
:103B40001092170180E890E090931A018093190178
:103B5000809120010E9499068AE00E9499060E94A5
:103B6000930650E1E52E00E024EC36E140E070E001
:103B700060E090E080E00E94E6085E980E949B0E64
:103B80005E9A68EE73E080E090E00E947A0B8FEF1F
:103B90009FEF909312068093110681E08093630655
:103BA0000E94151185EB98E0909392068093910600
:103BB0000E94EA1688EC90E00E94BC1685E00E9404
:103BC00063158DE00E946315809164008E7F809361
:103BD000640060E2262E312C3EEFA32EBB24BA9463
:103BE00042E4C42ED12C0E946B0F882341F18091B6
:103BF000EE018093ED010E94A10B8093EE01809174
:103C0000EC01823011F40C94742608F0BAC08823B9
:103C100009F421C1813009F47CC184E00E947B0E4B
:103C2000882359F08091EC01823039F08091EB01CA
:103C3000813019F02E982F982D980E94930680E0DD
:103C400090E0892B81F20E940000C6CFFF2029F06E
:103C50000430110511F42E9A2F9881E00E94E1049E
:103C6000802F8770E82EA80173E0559547957A95C7
:103C7000E1F79A013695322F2227379527952B5F4A
:103C80003D4F70E060E04E3F9FEF590761F190E0DB
:103C900080E0DB01A851B94F6901E0E8CE0ED11CEC
:103CA000FD01E80FF91FE491F0E03F010E2C02C086
:103CB000660C771C0A94E2F74F3F540739F059011C
:103CC000A80EB91EF50194889628948AEE2039F042
:103CD0005601A80EB91EF50194889728948A01967A
:103CE00088359105E9F64F5F5F4F20583F4F685A7E
:103CF0007F4F603B710539F60E949B0E8FE00E945A
:103D00009E0B0F5F1F4F0931110509F0F1CEFF2007
:103D100011F02F9A2D9880E991E00E94A00A2D9A27
:103D200081E090E00E948C2B80FFEACE8AE090E058
:103D30000E948C2B9FEF980F9E3F08F0E1CE22E36C
:103D400030E03093DF012093DE0128E330E0309350
:103D5000DD012093DC010AE010E0682F8EEB96E095
:103D60000E94180E0F5F1F4FC8010E948C2B00315C
:103D7000110599F70E949B0E88EE93E00E94A00A1D
:103D8000BFCE833011F40C94152A843009F045CF4E
:103D90000E946B0F81110C94782A0E94030E1092DE
:103DA000E8011092E7018090E7019090E80120E897
:103DB0008216910414F00C94762A809120010E94BE
:103DC000EB067C01EE0CFF1CF092E601E092E501AF
:103DD000B7010F2C000C880B990B25E0660F771F9D
:103DE000881F991F2A95D1F720E034E040E050E089
:103DF0000E94A62B29013093E4012093E301309324
:103E0000EA012093E9016091E1017091E20101E092
:103E1000A401C4010E949E0E1092DF011092DE01E7
:103E20003092DD012092DC015092E2014092E101EA
:103E3000C7010E9431168091E3019091E4010E9434
:103E400031168091E7019091E80101969093E80185
:103E50008093E701A8CF1091BC01E12C012F20E055
:103E600030E040E070E060E08DE290E00E94E60823
:103E70008091BA019091BB016CE070E00E94722CBD
:103E8000892B59F4173008F041C01F5F1093BC0113
:103E90008091C4018F5F8093C4011092140110922D
:103EA00013018CE190E0909316018093150168EC6A
:103EB0007EE180E00E94D3086AE87BE380E00E9414
:103EC000230AE5E5F0E0F0931401E09313018CE19F
:103ED00090E0909316018093150168E97BE380E000
:103EE0000E94230A88E00E947B0E882331F02E9ADC
:103EF0002F9A2D9A81E08093EC018091C401853145
:103F000009F08BCE81E08093EC0187CE1092BC014A
:103F1000C4CF8091EB01811118C126E0E22EF12C73
:103F2000F0921801E092170100E810E010931A01D6
:103F30000093190164E574E180E00E94D308F092D7
:103F40001401E092130110921601109215016FE90D
:103F50007BE380E00E94230A1092C30180E490E09A
:103F6000909314018093130125E030E03093160103
:103F700020931501909318018093170110931A0153
:103F8000009319011091C201113009F4D0C008F456
:103F9000C5C0123009F4D2C080E10E947B0E882394
:103FA00029F0123018F41F5F1093C20180E80E94BC
:103FB0007B0E882339F08091C201882319F081504B
:103FC0008093C2016091C1016450770B24E044E00A
:103FD00090E080E00E94040D8091EB01833009F0B5
:103FE0009AC58091F20181110E940B1305E010E047
:103FF00010931401009313011092160110921501F1
:1040000068EC7EE180E00E94D3086EE17DE380E011
:104010000E94230A10931401009313018CE090E096
:10402000909316018093150162E07DE380E00E9489
:10403000230A109314010093130188E190E09093F8
:1040400016018093150160E17DE380E00E94230A60
:104050008091BD01813009F404C508F4F9C48230AF
:1040600009F40AC56FEB77E08EEB96E00E948107BA
:10407000E12C00E024EC37E040E06AE070E08EE5FF
:1040800090E00E94E6088EE590E090931C018093FA
:104090001B0180911B0190911C018E3791050CF042
:1040A000F2C4809164008E7F8093640086E10E9458
:1040B000EB06DC01909164009160909364002BE129
:1040C00030E00E949A2C28EC30E040E050E00E9462
:1040D000A62B29013A019FE0490E511C611C711C5D
:1040E00050921E0140921D01E0901B01F0901C01B6
:1040F0006091E1017091E20101E09201A701C70125
:104100000E949E0E5092E2014092E101EFEFEE1A02
:10411000FE0AF0921C01E0921B01BBCF8AE0809363
:10412000C10166EC7BE380E00E94230A35CF84E185
:104130008093C1016EEF7BE380E0F6CF8EE1809348
:10414000C1016CE27CE380E0EFCF8230C9F580E80A
:104150000E947B0E882339F08091C001882319F0DA
:1041600081508093C00180E10E947B0E882339F04A
:104170008091C001823018F48F5F8093C0018091DC
:10418000C0018130B1F048F0823009F025CFE12C38
:1041900000E020E530E140E005C0E12C00E028E44B
:1041A00038E040E064EF7FEF90E080E00E94E608B6
:1041B00013CF98E0E92E00E02CE43CE040E0F2CFA1
:1041C000813009F009CF109214011092130110925E
:1041D00016011092150168EC7EE180E00E94D30880
:1041E0008091BF01823009F4B5C008F06AC088230D
:1041F00009F484C0813009F495C061EC77E08EEB5E
:1042000096E00E94810780E10E947B0E1091E00100
:10421000882349F08091BF01843028F4111103C034
:104220008F5F8093BF0180E80E947B0E882349F056
:104230008091BF01882329F0111103C08150809320
:10424000BF0188E00E947B0E882349F0111107C04E
:104250000E94D6151092BE0181E08093E00180910A
:10426000E001882309F4F0C31091BF012EE240E47D
:104270006FE070E080E490E00E94230D64E574E15B
:1042800080E00E94D308123009F4BFC208F0A8C031
:10429000112309F4F8C0113009F4B1C26DEB77E0D5
:1042A0008EEB96E00E94810788E00E947B0E909141
:1042B0001F01882309F4C1C39111BFC31092E0010B
:1042C0008BCE843009F476C008F45CC0853009F0E8
:1042D00094CF85E090E0909314018093130188E2DD
:1042E00090E09093160180931501B092DF01A092A7
:1042F000DE019093DD018093DC017FCF85E090E0CB
:104300009093140180931301B092DF01A092DE011B
:104310001092DD011092DC0162E47CE380E00E94F7
:10432000230A6BCF85E090E09093140180931301F2
:1043300088E090E09093160180931501B092DF0120
:10434000A092DE019093DD018093DC016CE77CE3B9
:1043500080E0E5CF85E090E0909314018093130115
:1043600080E190E09093160180931501B092DF01F7
:10437000A092DE019093DD018093DC016CE87CE388
:1043800080E0CDCF85E090E09093140180931301FD
:1043900088E190E09093160180931501B092DF01BF
:1043A000A092DE019093DD018093DC0165EC7CE35B
:1043B00080E0B5CF85E090E09093140180931301E5
:1043C0003092160120921501B092DF01A092DE0119
:1043D0003092DD012092DC016DED7CE380E09FCF27
:1043E000133009F4C4C2143009F058CFD092180128
:1043F000C092170180E890E090931A018093190110
:1044000080E10E947B0E882339F08091BE018230CA
:1044100018F48F5F8093BE0180E80E947B0E882392
:1044200039F08091BE01882319F081508093BE013C
:104430008091BE018111E2C2D0921401C092130199
:1044400083E190E0909316018093150129E330E019
:104450003093DF012093DE019093DD018093DC0136
:104460006EEE7CE380E00E94230A86E190E0909368
:1044700021018093200184E00E947B0E882309F4AF
:104480000DCF84E0BFC1D0921801C092170180E81F
:1044900090E090931A018093190180E10E947B0EB5
:1044A000882339F08091BE01833018F48F5F8093A8
:1044B000BE0180E80E947B0E882339F08091BE0106
:1044C000882319F081508093BE018091BE01811133
:1044D0005FC0D0921401C092130183E190E09093E9
:1044E00016018093150129E330E03093DF0120931A
:1044F000DE019093DD018093DC0160E57CE380E0E8
:104500000E94230A84E00E947B0E882309F4FFC0E6
:1045100068E873E180E090E00E947A0B8BE29EE312
:104520000E94571760EA7FE080E090E00E947A0BDB
:1045300066E37EE380E00E94FB1660ED77E080E0BA
:1045400090E00E947A0B6BE57EE380E00E94FB1610
:1045500060ED77E080E090E00E947A0B68EA77E017
:1045600085E896E00E94810769E97EE380E00E9489
:10457000FB1685EA97E00E941E1660ED77E080E06A
:1045800090E00E947A0B66E27EE380E00E94FB16D8
:104590008091BE01813009F0BAC089E390E0909328
:1045A000DF018093DE0188E190E09093DD0180934C
:1045B000DC01D0921401C0921301909316018093F4
:1045C00015016BE67CE380E00E94230A84E00E94F0
:1045D0007B0E882309F4EAC068E873E180E090E08C
:1045E0000E947A0B62E885E896E00E94371263EC3D
:1045F00085E896E00E94371264E670E080E090E083
:104600000E947A0B0E9408116CED75E080E090E04A
:104610000E947A0B60E37DE385E896E00E940F1626
:1046200060EB85E896E00E9437120E94081168EB63
:104630007BE080E090E00E947A0B6FE37DE380E016
:104640000E94FB1660ED77E080E090E00E947A0B1C
:104650006BE47DE380E00E94FB1660ED77E080E094
:1046600090E00E947A0B60E67DE380E00E94FB16FA
:1046700060ED77E080E090E00E947A0B61E77DE3F7
:1046800080E00E94FB1660ED77E080E090E00E9401
:104690007A0B61E87DE380E00E94FB1660ED77E035
:1046A00080E090E00E947A0B69EC7DE380E00E945C
:1046B000FB1660ED77E080E090E00E947A0B60E806
:1046C00085E896E00E94371268E785E896E00E9448
:1046D000371264E670E080E090E00E947A0B0E945E
:1046E000081160ED77E080E090E00E947A0B64E2D0
:1046F0007EE380E00E94FB1668EB7BE080E090E0C8
:104700000E947A0B66E27EE380E00E94FB168091B5
:10471000BE01823009F04AC0D0921401C092130148
:104720000EE110E010931601009315016EE57CE395
:1047300080E00E94230A89E390E09093DF01809358
:10474000DE011093DD010093DC0184E00E947B0E0A
:10475000882309F4A3CD68E873E180E090E00E942B
:104760007A0B8BE290E40E94571768EB7BE080E0C5
:1047700090E00E947A0B6FE270E480E00E94FB16EA
:1047800060ED77E080E090E00E947A0B69E470E4ED
:1047900080E00E94FB1660ED77E080E090E00E94F0
:1047A0007A0B62E570E480E00E94FB168091BE0106
:1047B000833009F073CDD0921401C092130103E24B
:1047C00010E010931601009315016EE170E480E093
:1047D0000E94230A89E390E09093DF018093DE0139
:1047E0001093DD010093DC0184E00E947B0E88239E
:1047F00009F454CD86EF9FE30E9457174FCD0E94D6
:10480000D61582E08093EC0149CDD0921801C09278
:10481000170180E890E090931A018093190180E1DC
:104820000E947B0E882339F08091BE01823018F4FB
:104830008F5F8093BE0180E80E947B0E882339F051
:104840008091BE01882319F081508093BE01809130
:10485000BE01811129C0D0921401C092130183E1DD
:1048600090E0909316018093150129E330E0309396
:10487000DF012093DE019093DD018093DC0167E985
:104880007CE380E00E94230A84E00E947B0E882360
:10489000C9F163E885E896E00E94371287EB97E05C
:1048A0000E941E160E9408118091BE01813051F5B0
:1048B000D0921401C092130188E190E09093160108
:1048C0008093150129E330E03093DF012093DE016E
:1048D0009093DD018093DC0164EA7CE380E00E9438
:1048E000230A84E00E947B0E882309F4D7CC63E876
:1048F00085E896E00E94371289EB97E00E941E1629
:104900000E9408118091BE01823009F0C7CCD0927C
:104910001401C09213018EE190E0909316018093F0
:10492000150129E330E03093DF012093DE019093FD
:10493000DD018093DC0164EB7CE380E00E94230ACC
:1049400084E00E947B0E882309F4A8CC60E885E807
:1049500096E00E94371262E885E896E00E943712DE
:104960008BEB97E00E941E160E94081197CCD09204
:104970001801C092170180E890E090931A0180938B
:10498000190180E10E947B0E882339F08091BE01DD
:10499000823018F48F5F8093BE0180E80E947B0E06
:1049A000882339F08091BE01882319F081508093CB
:1049B000BE018091BE01811171CCD0921401C092D0
:1049C000130183E190E0909316018093150129E390
:1049D00030E03093DF012093DE019093DD0180937E
:1049E000DC016CEC7CE380E00E94230A84E00E94FE
:1049F0007B0E882309F452CC83E004CF813009F088
:104A00004DCCD0921401C092130188E190E09093B4
:104A100016018093150129E330E03093DF012093E4
:104A2000DE019093DD018093DC0168EF7CE380E0A0
:104A30000E94230A87E190E01ACD992309F4CCCA99
:104A4000915090931F01C8CA82E080931F01C4CA8D
:104A5000B092DF01A092DE011092DD011092DC0124
:104A600001CBB092DF01A092DE018AE090E090934A
:104A7000DD018093DC01F6CAB092DF01A092DE0175
:104A800087E190E0F4CF80E10E947B0E882339F02B
:104A90008091BD01823018F48F5F8093BD0180E862
:104AA0000E947B0E882339F08091BD01882319F084
:104AB00081508093BD0188E00E947B0E882359F0CD
:104AC0008091BD01811107C08091F201882309F412
:104AD00099C00E94CD1388E00E947B0E882359F074
:104AE0008091BD01813039F48091F201882309F46D
:104AF00092C00E94CD1388E00E947B0E882359F05B
:104B00008091BD01823039F48091F201882309F44B
:104B10008BC00E94CD131092DF011092DE0188E35A
:104B200090E09093DD018093DC0163EC77E08EEB05
:104B300096E00E94810701E024E330E040E850E085
:104B400064E370E090E080E00E949E0E20E430E09C
:104B500042E250E064E370E082E290E00E949E0E48
:104B600020E430E040E450E064E370E080E490E072
:104B70000E949E0E20E430E04EE550E064E370E0D9
:104B80008EE590E00E949E0E84E00E94900E1091AF
:104B9000EB01882339F0113009F451C01092C4019F
:104BA0001092EC01111149C001E023E330E043E22F
:104BB00050E063E370E090E080E00E949E0E20E40D
:104BC00030E043E250E063E370E083E290E00E9473
:104BD0009E0E80E40E947B0E882329F0133018F487
:104BE0001F5F1093EB0180E20E947B0E882309F483
:104BF00014C88091EB01882309F40FC88150809379
:104C0000EB010BC828E83BE340E062E372E380E09D
:104C10000E94401560CF29EC3CE240E06CEC74E26D
:104C200080E00E94401567CF20E332E340E06BEC68
:104C30007CE280E00E9440156ECF1130F1F401E07B
:104C400023E330E041E450E063E370E081E290E090
:104C50000E949E0E21E430E041E250E063E370E008
:104C600081E290E00E949E0E20E430E041E450E0BA
:104C700063E370E081E490E0AACF1230F1F401E048
:104C800020E430E04FE350E063E370E08FE390E036
:104C90000E949E0E23E330E04FE550E063E370E0B6
:104CA0008FE390E00E949E0E20E430E04FE550E05C
:104CB00063E370E08FE590E08ACF133009F089CF8D
:104CC00001E020E430E04DE550E063E370E08DE585
:104CD00090E00E949E0E23E330E040E850E063E362
:104CE00070E08DE590E073CF0E94920B0091D701A8
:104CF0001091D8012091D9013091DA0106171707D8
:104D00002807390708F0C6C08091D601811104C078
:104D10008091D501882351F082E00E94E21183E066
:104D20000E94E2111092D5011092D60180E80E94F3
:104D3000900E882359F080E10E94860E882331F07E
:104D40008FEF9FEF9093D4018093D30180E80E946E
:104D5000860E882349F080E10E94860E882321F088
:104D60001092D4011092D30180E10E94900E88230A
:104D700059F080E80E94860E882331F0E1E0F0E0EF
:104D8000F093D401E093D30180E10E94900E811151
:104D9000D2C01092CF011092D0011092D101109286
:104DA000D20180E20E94900E882359F080E40E9494
:104DB000860E882331F08FEF9FEF9093CE01809382
:104DC000CD0180E20E94860E882349F080E40E9493
:104DD000860E882321F01092CE011092CD0180E43E
:104DE0000E94900E882359F080E20E94860E88234C
:104DF00031F0E1E0F0E0F093CE01E093CD0180E40A
:104E00000E94900E8111D6C01092C9011092CA0161
:104E10001092CB011092CC0188E00E94900E882362
:104E200009F407C180E00E94BD1184E00E94900E49
:104E3000882309F402C181E00E94BD110091D301D1
:104E40001091D4018091C7019091C80108171907EA
:104E500059F0009365068091630681110E94151137
:104E60001093C8010093C7010091CD011091CE01AC
:104E70008091C5019091C6010817190759F0009358
:104E800064068091630681110E9415111093C6017A
:104E90000093C5018091D501882349F08091D60106
:104EA000882329F01092E00181E08093EC010E94B8
:104EB0006B0F811164C20E94030E8091CD0190910D
:104EC000CE01009709F4BDC08130910509F438C1C5
:104ED000019609F0F9C0B5E2EB2EF12C02E110E0E9
:104EE00029E130E04EE150E06DE070E082E190E0D9
:104EF0000E942D0529E14CE06DE070E087E090E034
:104F00000E94040D19E1E12EF12C02E210E025E2ED
:104F100030E04EE250E06DE070E08EE290E00E9402
:104F20003A0F29E14CE06DE070E08EE290E00E94E3
:104F3000230D00E0BFC080E80E94900E882309F492
:104F400028CF4090CF015090D0016090D101709057
:104F5000D201411451046104710459F40E94920B6E
:104F60006093CF017093D0018093D1019093D201CF
:104F700018CF0E94920B64197509860997096D3242
:104F800071408105910508F40CCF0E94920B685185
:104F90007C4F8F4F9F4F6093D7017093D8018093C0
:104FA000D9019093DA0183E00E94BD1181E08093E2
:104FB000D601F7CE80E20E94900E882309F424CF18
:104FC0004090C9015090CA016090CB017090CC0113
:104FD000411451046104710459F40E94920B6093CE
:104FE000C9017093CA018093CB019093CC0114CF77
:104FF0000E94920B64197509860997096D327140F8
:105000008105910508F408CF0E94920B68517C4FEE
:105010008F4F9F4F6093D7017093D8018093D90130
:105020009093DA0182E00E94BD1181E08093D50166
:10503000F3CE80E00E94E211F8CE81E00E94E211FE
:10504000FDCE05E2E02EF12C02E110E029E130E096
:105050004EE150E06DE070E082E190E00E943A0F96
:1050600029E14CE06DE070E087E090E00E94230DC4
:1050700089E1E82EF12C02E210E025E230E04EE278
:1050800050E06DE070E08EE290E00E943A0F29E17E
:105090004CE06DE070E08EE290E00E94230D00E0B5
:1050A00024E230E042E150E06EE070E082E190E026
:1050B0000E949E0E24E230E04EE250E06EE070E08E
:1050C0008EE290E00E949E0E8091D3019091D401D7
:1050D000009709F46DC08130910509F458C101961B
:1050E00009F0A7C05BE0E52EF12C04E110E02BE015
:1050F00030E04CE250E067E170E080E290E00E9436
:105100002D052CE049E170E060E084E190E00E9430
:10511000040D67E2E62EF12C27E230E04CE250E08D
:105120006BE170E080E290E00E943A0F2CE049E1F0
:1051300067E270E084E190E00E94230D00E06FC020
:10514000F5E2EF2EF12C02E110E029E130E04EE132
:1051500050E06DE070E082E190E00E943A0F29E1BA
:105160004CE06DE070E087E090E00E94230DA9E143
:10517000EA2EF12C02E210E025E230E04EE250E0AF
:105180006DE070E08EE290E00E942D0529E14CE098
:105190006DE070E08EE290E00E94040D00E024E2F9
:1051A00030E042E150E06EE070E082E190E08ACFD2
:1051B0007BE0E72EF12C04E110E02BE030E04CE244
:1051C00050E067E170E080E290E00E943A0F2CE04E
:1051D00049E170E060E084E190E00E94230DE7E2A5
:1051E000EE2EF12C27E230E04CE250E06BE170E073
:1051F00080E290E00E943A0F2CE049E167E270E023
:1052000084E190E00E94230D00E02BE030E045E1D6
:1052100050E06BE070E08BE290E00E949E0E27E28F
:1052200030E04BE250E067E270E085E190E00E9400
:105230009E0E88E00E94900E882309F4DEC049E1AA
:1052400062E170E088E590E00E941D0C10E000E053
:1052500023E04CE06EE170E088E590E00E94810C74
:1052600084E00E94900E882309F4CEC049E16CE0EE
:1052700070E083E790E00E941D0C10E000E023E066
:105280004CE068E170E083E790E00E94810C80913F
:10529000D501882309F4BFC028E042E168E370E04B
:1052A00089E290E00E94040D05E010E021E041E079
:1052B00069E370E08AE390E00E94810C22E041E023
:1052C00069E370E089E290E00E94810C8091D60150
:1052D000882309F4A5C028E042E168E370E085E492
:1052E00090E00E94040D05E010E021E041E069E358
:1052F00070E086E590E00E94810C22E041E069E3E5
:1053000070E085E490E00E94810C40E070E060E095
:1053100084E190E00E94B10B40E070E060E08CE23C
:1053200090E00E94B10B40E062E370E084E190E025
:105330000E94B10B40E062E370E08CE290E00E94DA
:10534000B10B40E06DE070E087E090E00E94B10BAF
:1053500040E065E270E087E090E00E94B10B40E041
:105360006DE070E089E390E00E94B10B40E065E2FF
:1053700070E089E390E00E94B10B0E949B0E6AE00E
:1053800070E080E090E00E947A0B0C940D1E3BE0F0
:10539000E32EF12C04E110E02BE030E04CE250E091
:1053A00067E170E080E290E00E943A0F2CE049E172
:1053B00070E060E084E190E00E94230D47E2E42E7B
:1053C000F12C27E230E04CE250E06BE170E080E24B
:1053D00090E00E942D052CE049E167E270E084E155
:1053E00090E00E94040D00E02BE030E045E150E049
:1053F0006BE070E08BE290E01ACF6EE170E088E540
:1054000090E00E944B0D2CCF68E170E083E790E0C4
:105410000E944B0D3CCF88E290E00E94430C56CF97
:1054200084E490E00E94430C70CF8091DB018823DC
:1054300001F11092DF011092DE011092DD01109255
:10544000DC0168ED77E08EEB96E00E9481074091E9
:105450009C0650919D0660919806709199068EEB7E
:1054600096E00E94A50760E671E08EEB96E00E9450
:105470000F1685E096E00E947F08181619065CF565
:1054800085E096E00E943D08F82E89831A820091FB
:105490009C0610919D060F5F1F4FC8010E94BC160D
:1054A000882399F0209198063091990680919C0666
:1054B00090919D06BE016F5F7F4F820F931F0E94E8
:1054C000922E10939D0600939C06FAE0FF1203C0F3
:1054D00081E08093DB0188E00E947B0E882311F439
:1054E0000C940D1E1092EC010C940D1E0E949B0E4C
:1054F00088E00E94900E882321F01092E0010C9425
:10550000821F84E00E94900E8111F7CF0C940D1E33
:105510008091980690919906009711F00C94432D74
:105520000895E89409C097FB3EF490958095709596
:1055300061957F4F8F4F9F4F9923A9F0F92F96E9DF
:10554000BB279395F695879577956795B795F11154
:10555000F8CFFAF4BB0F11F460FF1BC06F5F7F4FF1
:105560008F4F9F4F16C0882311F096E911C0772303
:1055700021F09EE8872F762F05C0662371F096E80C
:10558000862F70E060E02AF09A95660F771F881FDB
:10559000DAF7880F9695879597F908950E94E12A82
:1055A0000C94522B0E94442B38F00E944B2B20F07D
:1055B000952311F00C943B2B0C94412B11240C944B
:1055C000862B0E94632B70F3959FC1F3950F50E0DB
:1055D000551F629FF001729FBB27F00DB11D639FA5
:1055E000AA27F00DB11DAA1F649F6627B00DA11D4B
:1055F000661F829F2227B00DA11D621F739FB00DF1
:10560000A11D621F839FA00D611D221F749F332760
:10561000A00D611D231F849F600D211D822F762FF9
:105620006A2F11249F5750409AF0F1F088234AF0D6
:10563000EE0FFF1FBB1F661F771F881F9150504042
:10564000A9F79E3F510580F00C943B2B0C94862BC0
:105650005F3FE4F3983ED4F3869577956795B795C9
:10566000F795E7959F5FC1F7FE2B880F911D9695E3
:10567000879597F9089597F99F6780E870E060E053
:1056800008959FEF80EC089500240A9416161706DB
:1056900018060906089500240A9412161306140623
:1056A00005060895092E0394000C11F4882352F086
:1056B000BB0F40F4BF2B11F460FF04C06F5F7F4F3E
:1056C0008F4F9F4F089557FD9058440F551F59F025
:1056D0005F3F71F04795880F97FB991F61F09F3FDF
:1056E00079F087950895121613061406551FF2CF08
:1056F0004695F1DF08C0161617061806991FF1CF58
:1057000086957105610508940895E894BB2766277E
:105710007727CB0197F90895F999FECF92BD81BD06
:10572000F89A992780B50895262FF999FECF92BD52
:1057300081BDF89A019700B4021639F01FBA20BD56
:105740000FB6F894FA9AF99A0FBE0895052E97FBB2
:105750001EF400940E94BD2B57FD07D00E94FC2B25
:1057600007FC03D04EF40C94BD2B5095409530951A
:1057700021953F4F4F4F5F4F0895909580957095BD
:1057800061957F4F8F4F9F4F08952F923F924F9279
:105790005F926F927F928F929F92AF92BF92CF92C1
:1057A000DF92EF92FF920F931F93CF93DF93CDB7CA
:1057B000DEB7CA1BDB0B0FB6F894DEBF0FBECDBF42
:1057C00009942A88398848885F846E847D848C8413
:1057D0009B84AA84B984C884DF80EE80FD800C811C
:1057E0001B81AA81B981CE0FD11D0FB6F894DEBFFF
:1057F0000FBECDBFED010895A1E21A2EAA1BBB1B5F
:10580000FD010DC0AA1FBB1FEE1FFF1FA217B3078C
:10581000E407F50720F0A21BB30BE40BF50B661FA2
:10582000771F881F991F1A9469F760957095809566
:1058300090959B01AC01BD01CF010895A29FB001DD
:10584000B39FC001A39F700D811D1124911DB29FB4
:10585000700D811D1124911D08950E946B2B88F0FD
:105860009F5798F0B92F9927B751B0F0E1F0660F24
:10587000771F881F991F1AF0BA95C9F714C0B13065
:1058800091F00E94852BB1E008950C94852B672F31
:10589000782F8827B85F39F0B93FCCF38695779594
:1058A0006795B395D9F73EF490958095709561957D
:1058B0007F4F8F4F9F4F0895DB01582F0E941E2C62
:1058C000529F800DA49F800D11240895991B79E0AB
:1058D00004C0991F961708F0961B881F7A95C9F780
:1058E00080950895AA1BBB1B51E107C0AA1FBB1FCF
:1058F000A617B70710F0A61BB70B881F991F5A955C
:10590000A9F780959095BC01CD01089597FB072ECE
:1059100016F4009407D077FD09D00E94722C07FC82
:1059200005D03EF4909581959F4F089570956195AF
:105930007F4F08950E941E2CB7FF0895821B930B82
:105940000895EE0FFF1F0590F491E02D09940F9339
:105950001F93CF93DF938230910510F482E090E0A3
:10596000E091C406F091C50630E020E0B0E0A0E090
:10597000309799F42115310509F44AC0281B390BD9
:1059800024303105D8F58A819B816115710589F133
:10599000FB0193838283FE0111C04081518102810A
:1059A000138148175907E0F04817590799F41097E1
:1059B00061F012960C93129713961C933296CF01B6
:1059C000DF91CF911F910F9108950093C40610931A
:1059D000C506F4CF2115310551F04217530738F0B1
:1059E000A901DB019A01BD01DF01F801C1CFEF017F
:1059F000F9CF9093C5068093C406CDCFFE01E20F88
:105A0000F31F819391932250310939832883D7CF93
:105A10002091C2063091C306232B41F4209124012A
:105A2000309125013093C3062093C20620912201B4
:105A3000309123012115310541F42DB73EB7409136
:105A4000260150912701241B350BE091C206F091ED
:105A5000C306E217F307A0F42E1B3F0B28173907E4
:105A600078F0AC014E5F5F4F2417350748F04E0FBA
:105A70005F1F5093C3064093C206819391939FCFBB
:105A8000F0E0E0E09CCFCF93DF930097E9F0FC01DA
:105A9000329713821282A091C406B091C506ED011F
:105AA00030E020E01097A1F420813181820F931F14
:105AB0002091C2063091C3062817390709F061C04A
:105AC000F093C306E093C206DF91CF910895EA01F7
:105AD000CE17DF07E8F54A815B819E01411551052C
