:100000000C94B4040C94DC040C94DC040C94DC0418
:100010000C94DC040C94DC040C94DC040C94DC04E0
:100020000C94DC040C94DC040C94A0160C940F17B4
:100030000C94DC040C94DC040C94DC040C94DC04C0
:100040000C94DC040C94EB190C94DC040C94DC048C
:100050000C94DC040C94DC040C94DC040C94411926
:100060000C94DC040C94DC040C94DC040C94DC0490
:100070000C94DC040C94DC040C94DC040C94DC0480
:100080000C948B190C94DC040C94DC040C94DC04AC
:100090000C94DC040C94DC040C94DC040C94DC0460
:1000A0000C94DC040C94DC040C94DC0406011501B3
:1000B000260137014A015D01720188019F01B801E3
:1000C000D201EE010B022A024B026E029302BA0227
:1000D000E40210033F037003A403DC031704550478
:1000E0009704DD0427057505C80520067D06E00692
:1000F0004907B8072D08A9082D09B9094D0AEA0AC8
:10010000900B400CFA0CC00D910E6F0F5A1053114A
:100110005B1272139A14D41520178018F519801BDE
:10012000231DDE1EB420A622B524E4263429A72BE5
:10013000402E0031EA330037453ABC3D68414C451A
:100140006B49C84D68524F57805C00621011121302
:10015000151617181A1C1D1F21232527292C2E318F
:1001600034373A3E4145494E52575C62686E757B62
:10017000838B939CA5AFB9C4D0DCE9F700000000E5
:10018000003E5B4F5B3E3E6B4F6B3E1C3E7C3E1C1D
:10019000183C7E3C181C577D571C1C5E7F5E1C0063
:1001A000183C1800FFE7C3E7FF0018241800FFE71A
:1001B000DBE7FF30483A060E2629792926407F05DD
:1001C0000507407F05253F5A3CE73C5A7F3E1C1CF3
:1001D00008081C1C3E7F14227F22145F5F005F5FB3
:1001E00006097F017F006689956A6060606060949F
:1001F000A2FFA29408047E040810207E20100808A4
:100200002A1C08081C2A08081E101010100C1E0CAE
:100210001E0C30383E3830060E3E0E060000000040
:100220000000005F00000007000700147F147F1427
:10023000242A7F2A1223130864623649562050006C
:1002400008070300001C2241000041221C002A1C58
:100250007F1C2A08083E0808008070300008080843
:100260000808000060600020100804023E51494563
:100270003E00427F400072494949462141494D3381
:100280001814127F1027454545393C4A49493141E8
:10029000211109073649494936464949291E0000B6
:1002A000140000004034000000081422411414140B
:1002B0001414004122140802015909063E415D59F7
:1002C0004E7C1211127C7F494949363E4141412200
:1002D0007F4141413E7F494949417F090909013E2A
:1002E000414151737F0808087F00417F4100204051
:1002F000413F017F081422417F404040407F021C63
:10030000027F7F0408107F3E4141413E7F09090979
:10031000063E4151215E7F09192946264949493245
:1003200003017F01033F4040403F1F2040201F3F0B
:100330004038403F63140814630304780403615990
:10034000494D43007F4141410204081020004141D2
:10035000417F04020102044040404040000307087E
:100360000020545478407F2844443838444444287A
:10037000384444287F385454541800087E09021821
:10038000A4A49C787F0804047800447D40002040A9
:10039000403D007F1028440000417F40007C0478ED
:1003A00004787C080404783844444438FC18242435
:1003B0001818242418FC7C080404084854545424B5
:1003C00004043F44243C4040207C1C2040201C3C32
:1003D0004030403C44281028444C9090907C446429
:1003E000544C4400083641000000770000004136BC
:1003F000080002010204023C2623263C1EA1A16142
:10040000123A4040207A3854545559215555794173
:100410002154547841215554784020545579400C4A
:100420001E5272123955555559395454545939552B
:100430005454580000457C410002457D420001456E
:100440007C40F0292429F0F0282528F07C545545DB
:10045000002054547C547C0A097F4932494949326E
:100460003248484832324A4848303A4141217A3A83
:1004700042402078009DA0A07D39444444393D404D
:1004800040403D3C24FF2424487E4943662B2FFCFA
:100490002F2BFF0929F620C0887E090320545479A8
:1004A000410000447D413048484A32384040227A79
:1004B000007A0A0A727D0D19317D2629292F2826F6
:1004C0002929292630484D402038080808080808FE
:1004D0000808382F10C8ACBA2F102834FA00007B57
:1004E000000008142A142222142A1408950022005D
:1004F00095AA005500AAAA55AA55AA000000FF0017
:10050000101010FF00141414FF001010FF00FF1053
:1005100010F010F0141414FC001414F700FF000085
:10052000FF00FF1414F404FC141417101F10101F04
:10053000101F1414141F00101010F0000000001FF2
:10054000101010101F10101010F010000000FF10FD
:100550001010101010101010FF10000000FF1400F9
:1005600000FF00FF00001F10170000FC04F414142B
:100570001710171414F404F40000FF00F7141414F7
:1005800014141414F700F7141414171410101F1077
:100590001F141414F4141010F010F000001F101F9A
:1005A0000000001F14000000FC140000F010F01008
:1005B00010FF10FF141414FF141010101F0000007F
:1005C00000F010FFFFFFFFFFF0F0F0F0F0FFFFFF83
:1005D0000000000000FFFF0F0F0F0F0F38444438DA
:1005E000447C2A2A3E147E02020606027E027E0215
:1005F00063554941633844443C04407E201E200634
:10060000027E020299A5E7A5991C2A492A1C4C7270
:1006100001724C304A4D4D303048784830BC625AF7
:10062000463D3E494949007E0101017E2A2A2A2A87
:100630002A44445F444440514A444040444A514063
:100640000000FF0103E080FF000008086B6B083624
:1006500012362436060F090F060000181800000095
:100660001010003040FF0101001F01011E00191D84
:100670001712003C3C3C3C0000000000080B00024C
:10068000020200000904000001020200000524002B
:1006900010010524010101042402060524060001BD
:1006A0000705810310004009040100020A00000050
:1006B0000705020240000007058302400000040312
:1006C000090412010002EF020140412336800001BB
:1006D0000102030141726475696E6F204C4C430046
:1006E00041726475626F7900F0F89C8E8783878E03
:1006F0009CF8F00000FEFF0303030303070EFCF861
:100700000000FEFF0303030303070EFCF80000FFD5
:10071000FF00000000000000FFFF0000FEFF8383D9
:10072000838383C7EE7C380000F8FC0E07030303C5
:10073000070EFCF800003F7FE0C08080C0E07F3FF4
:10074000FFFF01010101010101FFFF0000FFFF0C9C
:100750000C0C0C1C3E77E3C100007FFFC0C0C0C082
:10076000C0E0703F1F00001F3F70E0C0C0C0E070DD
:100770003F1F00007FFFC1C1C1C1C1E3773E1C0024
:10078000001F3F70E0C0C0C0E0703F1F00000000CD
:100790000001FFFF01000000D5F08D14A1C881CF3A
:1007A000D9F1AF200000000000250028002B002E0A
:1007B00000310000000000240027002A002D003036
:1007C00000040404040403040502020202040302F8
:1007D00002020206060606060604040202020404D9
:1007E0000408020110408040102040804080080230
:1007F000040180402010020110801020404020227F
:10080000290024737065616B2E537065616B28221B
:10081000006C00640074003E000706050401000837
:100820000A0B0C0D093E003E002020494E562020A8
:1008300055534220204D41502020524144003E005B
:1008400005010904A10185030509190129201500E5
:1008500025017501952055006500810205021500EE
:1008600026FF00A10009BB09BA750895028102C0E4
:1008700005010939150025073500463B016514754A
:1008800004950181020939150025073500463B0111
:100890006514750495018102150026FF007508098D
:1008A00001A10009300931093209330934093595AC
:1008B000068102C0C000000000000000002A2B28B2
:1008C0000000000000000000000000000000000028
:1008D00000000000002C9EB4A0A1A2A434A6A7A5ED
:1008E000AE362D3738271E1F20212223242526B37C
:1008F00033B62EB7B89F8485868788898A8B8C8D7E
:100900008E8F909192939495969798999A9B9C9D8F
:100910002F3130A3AD350405060708090A0B0C0D6D
:100920000E0F101112131415161718191A1B1C1D6F
:10093000AFB1B0B50005010906A10185020507198F
:10094000E029E715002501750195088102950175DB
:1009500008810395067508150025730507190029F8
:10096000738100C08F1ADB2811241FBECFEFDAE09D
:10097000DEBFCDBF11E0A0E0B1E0E2EFF9E502C0DB
:1009800005900D92A236B107D9F726E0A2E6B1E0B4
:1009900001C01D92AC3BB207E1F714E0C3EBD4E019
:1009A00004C02197FE010E94F42AC23BD107C9F777
:1009B0000E949E1B0C94EC2C0C94000080919701DB
:1009C0000895EBEFF1E0A0E0B8E000800EBC8111EB
:1009D000012C1197A0FDFDCF0192B9F70DB4089538
:1009E000480F592F511D1416150684F580389105AE
:1009F0006CF597FF02C090E080E04138510514F09B
:100A000040E850E0481BFB01E770FF2721E001C0F0
:100A1000220FEA95EAF777FF02C0695F7F4FFB017B
:100A200033E0F595E7953A95E1F7F695FE2FEE2739
:100A3000F795E795E80FF91FE550FE4F415030F06C
:100A40008191DF011197822B8C93F8CF0895603448
:100A5000710510F40C94F00408952F923F924F9278
:100A60005F926F927F928F929F92AF92BF92CF923E
:100A7000DF92EF92FF920F931F93CF93DF93CDB747
:100A8000DEB72E970FB6F894DEBF0FBECDBF5B0169
:100A90006A013E872D87261737070CF001C1E6163D
:100AA000F7060CF415C1621773075CF03A2D2B2D75
:100AB000AD84BE843D872E87382F292FC601C32ED3
:100AC000D22EAE14BF04A1F5C816D90654F0382FA3
:100AD000292F8C159D0514F43C2D2D2D6C01832F91
:100AE000922F0C151D052CF0801791070CF4C801EE
:100AF00086018F5F482F401BB501C8012E960FB6A7
:100B0000F894DEBF0FBECDBFDF91CF911F910F9143
:100B1000FF90EF90DF90CF90BF90AF909F908F901D
:100B20007F906F905F904F903F902F900C9427058F
:100B3000302F212F8C01832F922F3E2D2F2D7501C9
:100B4000A32EB22E9601201B310B38872F834D85A3
:100B50005E854E195F095A8749873C01601A710A00
:100B600095012E193F093A832983AC014C195D097F
:100B70005C834B83C5012D853E85821B930B9C872F
:100B80008B872A153B05F1F1215031093E832D83D6
:100B90004701512C412C312C212C8D819E818815AF
:100BA0009905ACF1C10169857A850E94D92A9B011A
:100BB000200F311FC20169817A810E94D92A600FFA
:100BC000711F4F815885240E351E460C571C621725
:100BD00073071CF4922F9B01692F6F5F462F421BF6
:100BE000B401C9010E9427055FEF851A950AD5CF88
:100BF0003C2D2D2D6C01832F922F3A2D2B2DAD8462
:100C0000BE8475C04D855E855E834D83C1CFC401B2
:100C10002D853E85821B930B2B813C81829FA001F9
:100C2000839F500D929F500D11245E834D83C4010C
:100C30008E199F09869D7001879DF00C969DF00C82
:100C40001124A814B9040CF455C08D819E816B85C4
:100C50007C850E94D92A9B012C0D3D1DC70169810D
:100C60007A810E94D92A600F711F4D815E818B812C
:100C70009C81480F591F5E834D83E60CF71C621759
:100C800073071CF4922F9B01692F6F5F462F421B45
:100C9000B401C9010E9427059FEF891A990AD1CF93
:100CA0002D853E85E216F3060CF00BCFE616F7060F
:100CB0000CF49ECF302F212F8A016C01832F922FAD
:100CC0003D852E857E876D875701E32EF22EEECE71
:100CD0004D855E85E416F5060CF434CF302F212FB8
:100CE0008601C32ED22E3E2D2F2DED84FE843D870E
:100CF0002E8728CF2E960FB6F894DEBF0FBECDBF3D
:100D0000DF91CF911F910F91FF90EF90DF90CF90E7
:100D1000BF90AF909F908F907F906F905F904F901B
:100D20003F902F9008955E9881E00E94E1045E9AC2
:100D30000895FC018091E601882311F13FB7F894F2
:100D400082E08093E9002091F200822F90E0181653
:100D5000190614F481E090E0882339F0289844E6DD
:100D60004093E5014091F1004083222339F0209126
:100D7000F200211103C02BE62093E8003FBF089545
:100D80008FEF9FEF08954091B0015091B1012091F4
:100D9000AE013091AF0142175307B4F49091E800CF
:100DA0009570E1F39091E80092FD19C08093F100F5
:100DB0008091B0019091B10101968F739927892B91
:100DC00019F48EEF8093E8008091B0019091B10109
:100DD00001969093B1018093B00181E0089580E085
:100DE0000895DF92EF92FF920F931F93CF93DF93BB
:100DF000D82E8A01EB017B01E40EF51ECE15DF052E
:100E000059F0D7FE12C0FE0184910E94C3062196BC
:100E10008111F4CF0FEF1FEFC801DF91CF911F9128
:100E20000F91FF90EF90DF9008958881EECF2FB75C
:100E3000F89487708093E9009091E800892F807280
:100E400095FF04C09091F20080E4891B2FBF0895A4
:100E5000615030F02091F100FC0120830196F8CF21
:100E6000289884E68093E5010895EF92FF920F930E
:100E70001F93CF93DF938C017B01D0E0C0E0F7019B
:100E8000EC0FFD1F6491662361F0D801ED91FC9198
:100E90000190F081E02DC8010995892B11F0219670
:100EA000EECFCE01DF91CF911F910F91FF90EF9088
:100EB0000895AF92BF92CF92DF92EF92FF920F937D
:100EC0001F93CF93DF936C017B018B01040F151FE0
:100ED000EB015E01AE18BF08C017D10759F0699148
:100EE000D601ED91FC910190F081E02DC6010995AC
:100EF000892B79F7C501DF91CF911F910F91FF9059
:100F0000EF90DF90CF90BF90AF9008958091A601B1
:100F100081110DC082E08093A20184E08093A3013F
:100F20001092A5011092A40181E08093A60182EAAB
:100F300091E008950F931F93CF93DF931F92CDB746
:100F4000DEB782E0898342E450E06CE776E080E837
:100F50000E94F1060E948607DC0112960D911C91F9
:100F60000115110589F0D801ED91FC910280F38102
:100F7000E02DBE016F5F7F4FC801099597FD04C04A
:100F8000F80100851185ECCF89810F90DF91CF9119
:100F90001F910F910895CF93DF931F92CDB7DEB7C6
:100FA0006983DC01ED91FC910280F381E02D41E049
:100FB00050E0BE016F5F7F4F09950F90DF91CF9199
:100FC000089583E08093E9008091F200882319F06E
:100FD0008AE38093E800089583E00E94170790E079
:100FE0000895CF93DF931F92CDB7DEB7FC018485C0
:100FF000958597FD08C02FEF3FEF358724870F9029
:10100000DF91CF910895CE0101960E949906019734
:1010100019F4898190E0F3CF8FEF9FEFF0CF0F931A
:101020001F93CF93DF931F92CDB7DEB78C01FC01E6
:101030008485958597FF0BC0CE0101960E94990685
:10104000019771F4898190E0F80195878487F80110
:10105000848595850F90DF91CF911F910F91089511
:101060008FEF9FEFF1CFFC018485958597FD0BC035
:101070009FB7F89482E08093E9008091F2009FBFCF
:1010800090E0019608959FB7F89482E08093E9007C
:101090008091F2009FBF90E008950DB407FEFDCF50
:1010A0008EB5729A0895FC016150704021F00E9443
:1010B0005F088193F9CF0E944D08808308950DB495
:1010C00007FEFDCF8EB51EBC08950E945F08982FC5
:1010D0000C944D080E945F08982F0C945F0872983A
:1010E0000E944D0A862F0E944D0A852F0E944D0AAC
:1010F000842F0C944D0A462F5091B601570F6091E2
:10110000B701681F83E00E946F081EBC0895CF934B
:10111000DF93C5EFD1E0688379838A831B820E94C5
:101120007B080E946A088C830E9465088D83DF918A
:10113000CF9108953F924F925F926F927F928F92DC
:101140009F92AF92BF92CF92DF92EF92FF920F9356
:101150001F93CF93DF935C016B013901842E302EF6
:101160009E2C842FB9010E947B080E946A08582E89
:10117000C82FD92F0E946508FC019E012A0D3B1D36
:10118000121613060CF0F7C040E8A416B1040CF0D8
:10119000F2C08C0D9D1D181619060CF0ECC040E431
:1011A000C416D1040CF0E7C0B7FE0BC0EE24FF2438
:1011B000EA18FB085E18203831055CF040E8542E30
:1011C00008C0213831051CF020E8522E5A18F12CA5
:1011D000E12CD7FEE2C0002711270C191D09087F5A
:1011E000CF01801B910B4E2E401A8134910534F0B3
:1011F0008C2D8195877030E4432E480E1595079508
:101200001595079515950795CF010796969587959E
:101210009695879596958795389E9001399E300DC5
:101220001124200F311F40E0BE010D2E000C880B51
:101230000E94AF2AA82FCB018E0D9F1DA11DF7FC88
:10124000AA9594FE05C0880F991FAA1FCC0FDD1F19
:1012500024E0620E711C811C680E791E8A1E9601A4
:1012600083E0359527958A95E1F7020F30E803036F
:10127000D0011124AA0DBB1DAE0DBF1D95FE05C0EA
:10128000252D2150330BA20FB31F31E0C1FC34E0F8
:10129000C0FC330FC2FC3295A550BE4F242D72986E
:1012A00083E08EBD8091B6019091B701870D981DA6
:1012B0000DB407FEFDCF9EBD0DB407FEFDCF8EBD64
:1012C0000DB407FEFDCF6EBC6C0E7D1E811C0DB4EF
:1012D00007FEFDCF1EBC990C073014F4089430FDB6
:1012E0008894979462E021FD68E022FD629520FFDA
:1012F00066956A9511F028300CF06FEF952D0EB4BD
:101300001EBC93FC0626862F90FC802D92FC0024A8
:10131000039EA00194FA36F4C895C89511240EB422
:101320001EBC90FC082E039E003034F08C9191FE80
:101330004827402148274C93A058BF4F97FE06C02E
:101340008C9191FE5827512158275C93112495FCCC
:10135000A15895FEAF57B1099A9589F6852D95FE4E
:1013600081958058A80FB11D285003950DB4729A2D
:1013700012160CF494CFDF91CF911F910F91FF9033
:10138000EF90DF90CF90BF90AF909F908F907F9025
:101390006F905F904F903F9008954E2E813491054D
:1013A0001CF080E4482E4C1810E000E02DCF2F9266
:1013B0003F924F926F927F928F92CF92DF92EF92F5
:1013C000FF920F931F93CF93DF931B01482E9FEF44
:1013D000291A390A490A0E947B080E944D08182FD1
:1013E000882309F44BC08D30B1F0C0901501D09026
:1013F00016018A3099F4809117019091180120917B
:10140000FA01C20ED11C9093140180931301D09263
:101410001601C0921501842DB101D7CFF090F801CB
:10142000C0911301D09114016090F5017090F60104
:101430008090F701EF2C082F482D9301B601CE01C3
:101440000E949A088091F901F5FE0CC081E0781A9B
:101450008108882DB301610F711D811D0E947B08D9
:101460000E944D088C0F9D2F911D209119013091E4
:101470001A01821793070CF0BECFC5CFDF91CF9131
:101480001F910F91FF90EF90DF90CF908F907F9002
:101490006F904F903F902F9008958EBD00008EB5B5
:1014A0000DB407FEFCCF0895FC010E94160B319786
:1014B00028F068517C4F8F4F9F4FF9CFAB01FC0153
:1014C0000E94160B641775078E079F07C8F30895CF
:1014D0007F928F929F92AF92BF92CF92DF92EF92C4
:1014E000FF920F931F93CF93DF93C82E8B017A0146
:1014F0008091E601811110C08FEF9FEFDF91CF91B6
:101500001F910F91FF90EF90DF90CF90BF90AF9021
:101510009F908F907F9008958091B40180FF05C0C7
:101520008091E00082608093E000CE2DDF2DD12CF1
:101530008AEFB82E8C2D8770982E8C2D8072882E75
:101540008C2D8074782E9AE3A92E209719F4DD2033
:1015500009F450C08C2D0E941707811108C0BA945D
:10156000BB2051F281E090E00E94540AEECF8C172C
:101570001D0611F00CF08C2F9FB7F8949092E900A3
:101580002091E80025FD02C09FBFDFCF282F30E06B
:10159000C21BD30B882029F08150A0F01092F100DB
:1015A000FBCFF801C7FC0AC0815050F04191409335
:1015B000F100FACF44914093F10031968150D0F779
:1015C000020F131FDD2021F0A092E800D12CDCCF08
:1015D0008091E80085FD07C0A092E800DD24D39447
:1015E000209791F2F3CF209779F6772069F2A092B5
:1015F000E800CACF5D9884E68093B301C7017ECF2F
:10160000CF93DF93EC0180911201882331F083E0C6
:101610000E94680A1816190634F081E090E09B8356
:101620008A8380E090E0DF91CF910895AEE9B1E048
:101630002FB7F8947D918D919C9166B52FBFA89B93
:1016400005C06F3F18F47F5F8F4F9F4F22E0660FFA
:10165000771F881F991F2A95D1F70895AB01FC01C8
:101660000E94160B41505109E109F10928F0685117
:101670007C4F8F4F9F4FF6CFAB01FC010E94160BA2
:10168000641775078E079F07C8F308952FB7F8945E
:1016900060919A0170919B0180919C0190919D01B4
:1016A0002FBF089590E00C94540A8FB18095807FED
:1016B000669B88601C9B8460089590E49093C000B2
:1016C0001092BF008093D100089590E1282F81E00F
:1016D00061FD84E060FD880F62FD8295687F969FC2
:1016E000D0011124A20FA550BE4F0C90082A40FF34
:1016F00008260C9208958038910528F4603471050D
:1017000010F40C94650B0895FF920F931F93CF93E1
:10171000DF93EC018B01F42E42FF0BC041E00196F8
:101720000E947B0B41E0B8016F5F7F4FCE010E94AA
:101730007B0BF1FE0DC041E0B801CE0101960E9485
:101740007B0B41E0B80161507109CE010E947B0B17
:10175000F3FE0DC041E0B8016F5F7F4FCE010E94E4
:101760007B0B41E0B801CE0101970E947B0BF0FE9C
:1017700012C0B8016150710941E0CE010E947B0B9B
:1017800041E0B801CE010197DF91CF911F910F91F8
:10179000FF900C947B0BDF91CF911F910F91FF90E5
:1017A0000895EF92FF920F931F93CF93DF937C01E5
:1017B0008B01040F111DEB0177FF02C0D0E0C0E0E8
:1017C000C8010134110514F080E490E0C817D9076E
:1017D0003CF441E0BE01C7010E947B0B2196F0CF93
:1017E000DF91CF911F910F91FF90EF9008950F938C
:1017F0001F93CF93DF93EC018C010F5F1F4F42E1EA
:1018000068E370E0C8010E94F00442E16FE370E019
:10181000C8010E94270546E069E370E0CE010E94FE
:10182000D10B46E069E370E0CE0143960E94D10BF4
:1018300041E069E370E0C8010E94840B629642E0D7
:1018400069E370E0CE010E94840B44E06EE370E037
:10185000CE010E94840B48E06EE370E0C801DF9186
:10186000CF911F910F910C94840B2F923F924F9226
:101870005F926F927F928F929F92AF92BF92CF9220
:10188000DF92EF92FF920F931F93CF93DF935C0150
:101890004B01C42FD0E081E090E03C016C1A7D0A3E
:1018A000442455244C1A5D0A440C551CCC24C39482
:1018B000D12CF12CE12C822F8170282E33243394EB
:1018C000300E122F127077FC06C0219782E0480E6E
:1018D000511C640C751C8FEFE81AF80A82E0C80EE0
:1018E000D11C6C0C7D1C2220A9F04C2F440F430D01
:1018F000B4016C1B7D0BC5018E0D9F1D0E94D10B89
:10190000402F4C0DB4016E197F09CE018A0D9B1D2D
:101910000E94D10B1123A9F04C2F440F430DB401A9
:101920006C1B7D0BC5018E199F090E94D10B402FA6
:101930004C0DB4016E197F09C5018C1B9D0B0E94D3
:10194000D10BEC16FD060CF4BECFDF91CF911F91A9
:101950000F91FF90EF90DF90CF90BF90AF909F904E
:101960008F907F906F905F904F903F902F90089551
:10197000DF92EF92FF920F931F93CF93DF937B0140
:10198000D22EEC018C01040F111DC017D1073CF4BD
:101990004D2DB701CE010E94D10B2196F6CFDF91DC
:1019A000CF911F910F91FF90EF90DF900895EF92EC
:1019B000FF920F931F93CF93DF937C018B01C42F72
:1019C000D22F0E942705B8016D0F711D615071095A
:1019D0004C2FC7010E9427054D2FB801C7010E9457
:1019E000D10BC7018C0F911D4D2FB8010197DF91CD
:1019F000CF911F910F91FF90EF900C94D10B2F92EC
:101A00003F924F925F926F927F928F929F92AF928E
:101A1000BF92CF92DF92EF92FF920F931F93CF93DB
:101A2000DF9300D000D0CDB7DEB78C017C836B8311
:101A3000645F7F4F41E00E947B0B6B817C816C5027
:101A4000710941E0C8010E947B0B41E06B817C8100
:101A5000C8010C960E947B0B41E06B817C81C80120
:101A60000C970E947B0B81E090E09A838983D12CB4
:101A7000C12C8CE0E82EF12C98EE292E33243A94D8
:101A800025EFA22EBB24BA949FEFC91AD90A8981E7
:101A90009A8102969A838983A80EB91E3601600E38
:101AA000711E41E08B809C808E0C9F1CB401C30191
:101AB0000E947B0B28014C185D0841E0B401C20173
:101AC0000E947B0B41E08B809C808E189F08B401A4
:101AD000C3010E947B0B41E0B401C2010E947B0B59
:101AE0008B809C808C0C9D1C41E0B40138016E0CF5
:101AF0007F1CC3010E947B0B41E0B40128014E18FA
:101B00005F08C2010E947B0B8B809C808C189D0813
:101B100041E0B401C3010E947B0B41E0B401C2016A
:101B20000E947B0BCE14DF04BCF00F900F900F903F
:101B30000F90DF91CF911F910F91FF90EF90DF9069
:101B4000CF90BF90AF909F908F907F906F905F905D
:101B50004F903F902F900895B7FC96CF91E0E91AEF
:101B6000F10882E0280E311CA20CB31C8DCF8F929D
:101B70009F92AF92BF92CF92DF92EF92FF920F931C
:101B80001F93CF93DF936D3089F0C090DC01D0902C
:101B9000DD016A30D1F41092DF011092DE0188E09D
:101BA000C80ED11CD092DD01C092DC0181E090E032
:101BB000DF91CF911F910F91FF90EF90DF90CF9029
:101BC000BF90AF909F908F9008950091DE0110918B
:101BD000DF01E5E06E9FE0011124C458DE4F4801AB
:101BE000F12CF5E0E12CFF1629F0CE010196FE0163
:101BF000E490EC01B12CA12C4E2D4170B6016A0D80
:101C00007B1DC4010E947B0BE694FFEFAF1ABF0A55
:101C100088E0A816B10481F7F394EFEF8E1A9E0ABC
:101C2000F6E0FF12DECF0A5F1F4F1093DF01009333
:101C3000DE01BCCF9091E301982329F49091E40157
:101C4000982381E009F480E00895CF93C82F0E9483
:101C5000550BC82381E009F080E0CF910895CF9320
:101C6000C82F0E94550B982F9C2381E09C1380E085
:101C7000CF91089580E00C94E1042F923F924F920F
:101C80005F926F927F928F929F92AF92BF92CF920C
:101C9000DF92EF92FF920F931F93CF93DF9300D0C9
:101CA0001F92CDB7DEB79B838A837B016A010983CC
:101CB0008901061B170B17FF03C011950195110928
:101CC00046018A819B81881A990A97FE03C09194E4
:101CD00081949108801691065CF49C2D8D2D6901EC
:101CE000292F382F9A818B81FB82EA82E92EF82EE8
:101CF0008A819B81C816D9065CF49E2D8F2D7901AF
:101D0000292F382F9A818B81DB82CA82C92ED82E47
:101D100016018A819B81281A390A29014E185F0809
:101D200057FE03C0519441945108310137FE03C05E
:101D30009FEF691A790A759467948FEFE216F3069C
:101D40000CF481E0A82E880FBB088A819B81C816FD
:101D5000D906CCF04981BC01C701801691061CF060
:101D6000B7018A819B810E947B0B6418750877FEFE
:101D700004C0EA0CFB1C620C731C8A819B810196D7
:101D80009B838A83E2CF0F900F900F90DF91CF91CA
:101D90001F910F91FF90EF90DF90CF90BF90AF9089
:101DA0009F908F907F906F905F904F903F902F907B
:101DB00008956F927F928F929F92AF92BF92CF922F
:101DC000DF92EF92FF920F931F93CF93DF93EC017B
:101DD0006B015A014901380101E00E943D0E970153
:101DE000A301B401C5010E943D0E9601AE01B701E9
:101DF000C3010E943D0EDF91CF911F910F91FF9083
:101E0000EF90DF90CF90BF90AF909F908F907F909A
:101E10006F90089580919501882321F0109295018B
:101E200080E0089590919A0120919601392F321BFC
:101E3000303138F43F3091F091E093BF889513BE74
:101E4000089581E08093950190939601E8EBF1E08D
:101E50008081918101968083918381E00895DC01E6
:101E6000FB0112962C9112978481958128171906EF
:101E700041F491818081813A31F49D7F81E09130FC
:101E800009F080E008958132E1F79B3029F48281E6
:101E90001F968C9381E008959A3099F7828150962D
:101EA0008C93F8CFAF92BF92CF92DF92EF92FF92D6
:101EB0000F931F93CF93DF931F92CDB7DEB77C01B3
:101EC00069836A01590141E050E0BE016F5F7F4FB5
:101ED000FC0183810E94680A8C0197FD0BC0F70109
:101EE0008381A501B60180640E94680A080F191F4A
:101EF00097FD8C01C8010F90DF91CF911F910F9139
:101F0000FF90EF90DF90CF90BF90AF900895DC01ED
:101F1000FB0188E4808389E4818384E482831D96C5
:101F20009C911D979F709F5B93831D968D919C91B3
:101F300024E0969587952A95E1F78F708F5B8483CF
:101F400085E00895EF92FF920F931F93CF93DF9355
:101F5000FB012081213871F52381223259F5DC0102
:101F600012964C91248135814217130619F5EC0124
:101F70000B851C85F12CE12C0115110589F0F80168
:101F8000448155816281738180E80E94F1068F3F10
:101F9000980749F0E80EF91ED8010D911C91ECCF7D
:101FA00081E08F87C701DF91CF911F910F91FF9043
:101FB000EF90089590E080E0F6CFCF93DF93CDB718
:101FC000DEB769970FB6F894DEBF0FBECDBFFC0138
:101FD000DB018C918F5F8C939E012D5F3F4F8DE0D5
:101FE000D9011D928A95E9F729E0298384E08A8343
:101FF00091E09D8383E08E832A8721E22B879C8753
:102000009D879F8722E2288B27E02B8B25E02C8B56
:102010008E8B20E430E0388F2F8B998F82818B83D9
:1020200095858685998B8A8B838180688D8B49E124
:1020300050E0BE016F5F7F4F80E00E94F10669961D
:102040000FB6F894DEBF0FBECDBFDF91CF910895DC
:10205000CF93DF9380918D01811167C081E08093E0
:1020600080018093810126E831E030938301209341
:10207000820110928501109284012CE231E03093AC
:102080007D0120937C0110928801109287011092AB
:102090008A011092890180938B0180938C0181ECDD
:1020A000809386010E948607FC01818190918001C6
:1020B000482F490F5527551F483051059CF5A281DF
:1020C000B381109709F52CE731E033832283208117
:1020D00020937E0180937F0180918101820F808314
:1020E00020918201A22FB09183018A2F821B891730
:1020F000C8F481813D91C82FD0E0C050DF4F3883B4
:102100008F5F8183F2CFD90118962D913C91199759
:1021100021153105C1F72CE731E019963C932E9338
:102120001897D5CF81E080938D018CE791E0DF9106
:10213000CF910895CF93DF93EC010E94281028E0FF
:1021400030E0AE0162E0DF91CF910C94520FEBE7EB
:10215000F6E0168217821086118612861386148284
:102160008FE796E00C949A100F931F93CF93DF9311
:10217000CDB7DEB72D970FB6F894DEBF0FBECDBF3B
:102180003091630620916406909165068091660601
:1021900039832A839B838C83809167068D8380910A
:1021A00068068E838091690690916A0628E097FD03
:1021B00009C068E671E00E94D92A6DE270E00E94D1
:1021C000D92A262F80916B0690916C0668E097FDC6
:1021D00008C068E671E00E94D92A6DE270E00E94B2
:1021E000D92A80E1689FB0011124262B2F8380918A
:1021F0005A068158888780915B068158898780912B
:102200005C0681588A8780915D0690915E0608E69B
:1022100011E0B8010E94D92ABC01990F880B990BD3
:102220000E94E6282DE73FE345E35FE30E94212972
:102230000E94802A6B8780915F0690916006B801AA
:102240000E94D92ABC01990F880B990B0E94E6289D
:102250002DE73FE345E35FE30E9421290E94802AA6
:102260006C878091610690916206B8010E94D92A1C
:10227000BC01990F880B990B0E94E6282DE73FE3DC
:1022800045E35FE30E9421290E94802A6D870E9416
:1022900028102DE030E0AE014F5F5F4F63E00E94F9
:1022A000520F2D960FB6F894DEBF0FBECDBFDF9153
:1022B000CF911F910F91089541E050E060E070E0F0
:1022C00004C0440F551F661F771F8A95D2F780916F
:1022D000630690916406A0916506B0916606842B12
:1022E000952BA62BB72B8093630690936406A0933F
:1022F0006506B09366068091590681110C94B4105E
:10230000089541E050E060E070E004C0440F551FC4
:10231000661F771F8A95D2F7409550956095709506
:102320008091630690916406A0916506B09166065F
:1023300084239523A623B723809363069093640692
:10234000A0936506B09366068091590681110C949E
:10235000B4100895CF92DF92EF92FF920F931F93E4
:10236000CF93DF936C01EB017B01E40EF51E10E0CF
:1023700000E0CE15DF0581F069916D30D1F3D60113
:10238000ED91FC910190F081E02DC6010995892B1A
:1023900019F00F5F1F4FEDCFC801DF91CF911F9153
:1023A0000F91FF90EF90DF90CF900895DC01683897
:1023B00088F1685816968C911697861721F1179612
:1023C0008C9117978617F9F018968C9118978617A5
:1023D000D1F019968C9119978617A9F01A968C91BD
:1023E0001A97861781F01B968C911B97861759F0C8
:1023F000FD01369690E080E0219121114FC08A0FB7
:102400009B1FFC016683CD0104960E949A1081E017
:1024100090E00895862F90E067FF12C0FC01E0581D
:10242000F10921E030E001C0220FEA95EAF71496A5
:102430008C911497822B14968C93149760E0BACFEA
:102440001C96ED91FC911D97E80FF91F64916111A5
:1024500009C081E090E013969C938E93129790E0D0
:1024600080E00895862F807C803C69F414968C91DE
:102470001497806414968C9314976F73623309F0E9
:1024800099CF64E697CF67FFF9CF14968C91149794
:10249000826014968C9314976F77F0CF01968630F4
:1024A000910509F0A9CFD5CFEF92FF921F93CF935B
:1024B000DF93EC01162F0E94D6117C01E8E7E10FB3
:1024C000183890F4812F90E017FF2AC0FC01E058E3
:1024D000F10981E090E001C0880FEA95EAF7809564
:1024E0009C8189238C83E0E0DE0186E0EE2341F0CD
:1024F00016969C911697E91303C016961C92169790
:10250000815011968111F2CFCE0104960E949A104B
:10251000C7019927DF91CF911F91FF90EF90089508
:10252000EC85FD85E80FF91FE491EE2389F38E2FEA
:10253000807C803C41F48C818F7B8C83EF73E23311
:1025400099F6E4E6D1CFE7FFFACF8C818D7F8C83BB
:10255000EF77F5CF6F927F928F92CF92DF92EF92CB
:102560000F931F93CF93DF93C091EA018091E9010C
:10257000082E000C990BC817190609F477C0609152
:10258000F2017091F3018091F4010E947B08609147
:1025900089068C2F0E94B92AD091E901092F10E0F9
:1025A0002D2F0D2E000C330B0217130709F450C00A
:1025B0000E945F08E0918A06F0918B06E00FF11F00
:1025C0008083CF5F2091F2013091F3014091F401BB
:1025D0002F5F3F4F4F4F2093F2013093F301409311
:1025E000F4012091EF013091F0014091F1016090F0
:1025F000EC017090ED018090EE01C090F201D0905E
:10260000F301E090F401260D371D481D2C153D0502
:102610004E05C1F4803EB1F48091EF019091F0013C
:10262000A091F1018093F2019093F301A093F40142
:102630000E944D086091F2017091F3018091F401C4
:102640000E947B08DF3F09F0A2CF1092E9019FCFE3
:102650009093EA01DF91CF911F910F91EF90DF905E
:10266000CF908F907F906F900C944D08DF91CF9119
:102670001F910F91EF90DF90CF908F907F906F9090
:102680000895E82FF0E0EA5DFE4F8081813019F077
:102690008330A9F008958091710181110FC080915C
:1026A0006F008D7F80936F0080916C01E0916A01D3
:1026B000F0916B0190818095892380830895109219
:1026C0007B0180917A018111F9CF80917801E091AD
:1026D0007601F0917701EECFCF93C0E08091E701D2
:1026E000C81728F48C2F0E944113CF5FF7CF1092A8
:1026F000E801CF910895CF92DF92EF92FF921F935E
:10270000CF93DF939091E701891708F03CC08130A7
:1027100021F490916501911136C067FD34C0E82F16
:10272000F0E0EA5DFE4F1081E62FF0E0603398F5AF
:10273000E45BFE4FE491CE2FD0E0F12CE12C60E081
:1027400074E284EF90E0A7019E010E94F9292150D4
:1027500031094109510991E02115310581E048070E
:1027600051056CF060E970ED83E090E0A7019E01F7
:102770000E94F929215031094109510993E0113092
:1027800089F0133039F1DF91CF911F91FF90EF90D5
:10279000DF90CF900895EE0FFF1FE45BFF4FC591D0
:1027A000D491CBCF809171018111EDCF80918100C7
:1027B000887F892B80938100309389002093880043
:1027C000109285001092840080916F008260809347
:1027D0006F00D9CF80919100887F892B80939100E1
:1027E00030939900209398001092950010929400D5
:1027F000D0936701C093660181E080937B01809153
:102800007100826080937100BECFCF93DF93D1E0DF
:102810008091EB01811115C0E0916801F09169018F
:10282000CF0101969093690180936801E4918E2F06
:10283000807FCE2FCF708038D9F48C2F0E94411327
:10284000E7CF8091E901E0918A06F0918B06E80FCD
:10285000F11D87FDFA95E0818F5F082E000C990B22
:102860006091890670E00E94D92A8093E901DFCF48
:10287000803999F5E0918C06F0918D0609958D27A8
:10288000809379018091EB0181110FC0E091680183
:10289000F0916901CF0101969093690180936801DD
:1028A00064918C2F0E947B13B3CF8091E901E0915A
:1028B0008A06F0918B06E80FF11D87FDFA952081BD
:1028C0008F5F082E000C990B6091890670E00E94C2
:1028D000D92A8093E901622FE4CF87FD63C08091FC
:1028E000EB012E2F30E0322F2227811142C0E091E0
:1028F0006801F0916901CF0101969093690180937D
:102900006801E491C9018E2BFC0120916601309190
:102910006701DF010E94712A6C507E4F8F4F9F4FDD
:1029200028EE33E040E050E00E944F2A20937201ED
:10293000309373014093740150937501809172013B
:1029400090917301A0917401B0917501892B8A2B2C
:102950008B2B61F481E090E0A0E0B0E08093720105
:1029600090937301A0937401B0937501DF91CF919F
:1029700008958091E901E0918A06F0918B06E80FB5
:10298000F11D87FDFA959081F901E92B8F5F082EE3
:10299000000C990B6091890670E00E94D92A8093FF
:1029A000E901B3CF803E29F41092690110926801C9
:1029B0002FCF803F09F02CCF1092E801D7CF609342
:1029C000F2017093F3018093F4016093EF0170932F
:1029D000F0018093F1012093EC013093ED014093DD
:1029E000EE0181E08093EB011092EA019FEF90935A
:1029F000E9018093E8018091E80181110E94AA1207
:102A00000C9405149091E701923009F46DC0292FC0
:102A100030E0F901EA5DFE4F40812D593E4FF9014A
:102A20008083913031F420916301281302C0909388
:102A300065019F5F9093E70190E0FC01EF53F84F31
:102A400024918052984FFC01849130E0220F331F73
:102A5000F901EB55F84F65917491F901ED54F84F78
:102A6000A591B4919C91982B9C93413019F04330DF
:102A7000D9F0089590916400977F9093640010922C
:102A80008000109281009091810098609093810065
:102A90009091810091609093810070936B0160939D
:102AA0006A0180936C01089590916500977F9093DF
:102AB00065001092900010929100909191009860A2
:102AC00090939100909191009160909391007093F8
:102AD000770160937601809378016CE380E00E9437
:102AE0007B1380E00C944113089586E190E00E94EE
:102AF0005D0B63E070E080E090E00E942E0B86E1C9
:102B000090E00E945D0B65E070E080E090E00E9444
:102B10002E0B81E190E00E945D0B68E070E080E0A8
:102B200090E00E942E0B81E190E00E945D0B6BE033
:102B300070E080E090E00E942E0B81E190E00E9426
:102B40005D0B6DE070E080E090E00E942E0B109233
:102B5000C0000895089590E080E00895FB01019081
:102B60000020E9F73197AF01461B570BDC01ED91CF
:102B7000FC910280F381E02D0994CF93DF93BC0197
:102B80008BE796E00E943507EC016EE571E08BE77C
:102B900096E00E94AE158C0F9D1FDF91CF91089596
:102BA000CF93DF93EC0180918E0690918F06009772
:102BB00059F020919006309191062C173D0720F096
:102BC00081E0DF91CF910895BE016F5F7F4F0E943A
:102BD0001F2C009789F090938F0680938E06D093D8
:102BE0009106C09390062091920630919306232B74
:102BF00039F7FC011082E4CF80E0E3CF82E090E07F
:102C00000E94DF29882331F03E9A3F9A81E0809329
:102C100097010895109297013E983F9808956F92FA
:102C20007F928F92EF92FF920F931F93CF93DF9338
:102C30001F92CDB7DEB73B01882E10E000E0882D53
:102C4000B301600F711F811D0E947B0861E070E07D
:102C5000CE0101960E945308C801019629812223C2
:102C600011F08C01ECCF0E94FA2A7C01882DB3016F
:102C70000E947B08B801C7010E945308F701E00FCA
:102C8000F11F1082E114F10429F0B7018BE796E0FF
:102C90000E94AE156EE571E08BE796E00E94AE15DE
:102CA000E114F10469F0C7010F90DF91CF911F91FA
:102CB0000F91FF90EF908F907F906F900C94962BD8
:102CC0000F90DF91CF911F910F91FF90EF908F9018
:102CD0007F906F900895CF93DF93EC0163E88BE7CB
:102CE00096E00E94D61162E78BE796E00E94D6112B
:102CF00064E670E080E090E00E942E0B0E94A71036
:102D00006CED75E080E090E00E942E0BBE01DD0FBF
:102D1000880B0E940F1664E670E080E090E00E944D
:102D20002E0B60EB8BE796E00E94D61164E670E014
:102D300080E090E00E942E0BDF91CF910C94A710C1
:102D40001F920F920FB60F9211248F939F93809131
:102D5000E1009091E100937F9093E10083FF0FC029
:102D60001092E90091E09093EB001092EC0092E356
:102D70009093ED001092E60198E09093F00082FFAE
:102D800022C093E09093E9009091F200992319F00A
:102D90009AE39093E8009091B301992341F09091C8
:102DA000B30191509093B301911101C05D9A90913C
:102DB000E501992341F09091E50191509093E5014F
:102DC000911101C0289A84FF18C08091E2008E7E84
:102DD00081608093E2008091E1008F7E8093E1002A
:102DE0008091B4018E7E80618093B4019F918F9118
:102DF0000F900FBE0F901F90189580FFF7CF809116
:102E0000E2008E7E80618093E2008091E1008E7E00
:102E10008093E1008091B4018E7E8160E5CF1F92A6
:102E20000F920FB60F921124CF92DF92EF92FF9282
:102E30000F931F932F933F934F935F936F937F93C2
:102E40008F939F93AF93BF93EF93FF93CF93DF93B2
:102E5000CDB7DEB76C97DEBFCDBF1092E900809191
:102E6000E80083FF25C068E0CE0145960E94280750
:102E700082EF8093E8008D8987FF39C09091E80048
:102E800090FFFCCF982F907609F034C19E894F892E
:102E9000588D2F89F88C911131C0803861F580915F
:102EA000B5018093F1001092F1008EEF8093E8005D
:102EB0006C960FB6F894DEBF0FBECDBFDF91CF91F9
:102EC000FF91EF91BF91AF919F918F917F916F9102
:102ED0005F914F913F912F911F910F91FF90EF9034
:102EE000DF90CF900F900FBE0F901F9018959EEF20
:102EF0009093E800C7CF1092F100D5CF913059F4EC
:102F00008111D3CF4130510581F68091B5018D7F7C
:102F10008093B501CACF933049F48111C6CF4130B7
:102F2000510519F68091B5018260F2CF953041F4D8
:102F30008091E80080FFFCCF20682093E300B5CFAC
:102F4000963009F0A9C00B8D1C8D22E01092E9008B
:102F50001092B1011092B001F2122EC01092AF0186
:102F60001092AE010E949A071F8299E09983FA821B
:102F700091E09E8390EA98879AEF99872091B0011B
:102F80003091B101275F3F4F3C832B838D8310929B
:102F9000E9001092B1011092B0011093AF010093BB
:102FA000AE0149E050E0BE016F5F7F4F80E00E94BC
:102FB000F1060E949A0779CF1093AF010093AE01FA
:102FC0000E948607DC0112960D911C9101151105D6
:102FD00009F451C1D801ED91FC910480F581E02DF7
:102FE000BE016B5E7F4FC8010995009709F03EC195
:102FF000F80100851185EACFF3E0FF120EC08F893A
:10300000882309F440C0823061F440E867E080EE34
:1030100096E00E945C1A811148CF81E28093EB0018
:1030200047CF813029F440E86BE084ED96E0F1CFA2
:10303000833099F70E948607DC011296ED90FC9090
:103040008E010F5F1F4F6801E114F10479F0D70181
:10305000ED91FC910680F781E02DB801C70109953B
:10306000080F111DF701E084F184EECFD8011C9206
:10307000F60101900020E9F73197BF016C197D0935
:1030800040E0C601C6CF6EEB76E0FB01449150E014
:1030900080E80E94F10609CF973009F4BECF98303E
:1030A00021F481E08093F10000CF993009F0FDCE4A
:1030B000837009F0B2CFE1E0F1E081E031E096E326
:1030C0002191222371F08093E9003093EB00DF011E
:1030D00011972C912093EC009093ED008F5F873037
:1030E00079F78EE78093EA001092EA008F89809347
:1030F000E601DBCE8B8D9C8D1092E9001092B10120
:103100001092B0019093AF018093AE01898D81112F
:1031100092C08E899D89913A49F4813209F07DCF20
:1031200047E050E06BE071E080E0B3CF913209F00E
:1031300074CF833269F48F89988DB0E0A0E08093DA
:10314000070190930801A0930901B0930A01ADCE45
:10315000803269F48091E80082FFFCCF67E08BE069
:1031600091E00E9428078BEF8093E8009ECE823288
:1031700009F09BCE8F8980931201EEEFFFE78591D6
:1031800094918B3F9C4D51F1E0E0F8E080910B0170
:1031900090910C01A0910D01B0910E01803B9440E3
:1031A000A105B105F1F48091120180FD1AC0EE3F36
:1031B0008AE0F80789F587E797E791838083809114
:1031C00060008093B20188E19BE00FB6F894A89567
:1031D000809360000FBE9093600067CEEEEFFAE040
:1031E000D5CF808191818737974709F05ECEA8952A
:1031F000809160008861809360008091B20180932B
:103200006000EE3F2AE0F20789F08091FE0A90917B
:10321000FF0A9183808349CE808191818737980707
:1032200051F29093FF0A8093FE0AC5CF1092FF0AD5
:103230001092FE0A3ACE0E948607DC0112960D918A
:103240001C910115110509F4E8CED801ED91FC910E
:103250000190F081E02DBE016B5E7F4FC8010995A2
:10326000811123CEF80100851185EBCF18161906C0
:103270000CF41BCED2CEF1E0FF12BECE62EC76E0B3
:1032800004CF0F920FB68F939F93EF93FF9380918C
:1032900099018D5F8D3708F08D5780939901EAE988
:1032A000F1E080818E4F808391819F4F9183828155
:1032B0008F4F828383818F4F8383EEE9F1E080819A
:1032C0008F5F808381818F4F818382818F4F828343
:1032D00083818F4F83838FB18F6066991C9B882772
:1032E0008F3681F480919801981B963068F0E0E069
:1032F000F8E087E78083818388E180936000F09322
:103300006000FFCF90939801FF91EF919F918F9173
:103310000FBE0F9018951F920F920FB60F921124A7
:103320002F933F934F935F936F937F938F939F93CD
:10333000AF93BF93EF93FF9380917B01882389F034
:1033400080917A0181110DC080917901811109C0AC
:1033500090917801E0917601F09177018081892741
:1033600080838091E801882329F1809172019091F6
:103370007301A0917401B0917501892B8A2B8B2B5D
:10338000C9F08091720190917301A0917401B09184
:1033900075010197A109B10980937201909373019E
:1033A000A0937401B0937501892B8A2B8B2B11F498
:1033B0000E940514FF91EF91BF91AF919F918F9162
:1033C0007F916F915F914F913F912F910F900FBE21
:1033D0000F901F9018951F920F920FB60F92112405
:1033E0008F939F93AF93BF93EF93FF93809171015E
:1033F000882309F454C080916D0190916E01A091D1
:103400006F01B0917001892B8A2B8B2BA1F19091C8
:103410006C01E0916A01F0916B01808189278083C2
:1034200080916D0190916E01A0916F01B09170013A
:10343000181619061A061B069CF480916D019091CE
:103440006E01A0916F01B09170010197A109B109BE
:1034500080936D0190936E01A0936F01B093700102
:10346000FF91EF91BF91AF919F918F910F900FBE00
:103470000F901F90189510927A011092710180910F
:103480006F008D7F80936F0080916C01E0916A01E5
:10349000F0916B019081809589238083E1CF8091A9
:1034A00079018111DDCF90916C01E0916A01F09179
:1034B0006B0180818927F1CFEF92FF920F931F93C9
:1034C000CF93DF93F82E192FE62E042F81E0860F7D
:1034D000880F0E94C30683E00E94C306CF2DD12F20
:1034E000EC0EFD2EF11CCE15DF05B9F007FF13C061
:1034F000FE0184910E94C306182F80E00E94C3063B
:10350000812321968111EFCFDF91CF911F910F91F0
:10351000FF90EF9008958881EDCF81E0F5CF109274
:10352000FE051092FD0588EE93E0A0E0B0E08093E8
:10353000FF0590930006A0930106B093020688E36E
:1035400091E09093FC058093FB058FEF9FEF9093A4
:1035500008068093070680915106811113C01092CE
:103560004C0610924B0680E498E090934E068093B0
:103570004D0685E790E09093500680934F0681E0DA
:10358000809351060E942810FC01A385B4851097F2
:1035900009F0B6C08BE496E094878387858596858D
:1035A00020914F0630915006820F931F9687858792
:1035B00010925A0610925B0610925C0610925E06FC
:1035C00010925D061092600610925F0610926206DD
:1035D00010926106109263061092640610926506BE
:1035E0001092660610926706109268068FEF9FEFA2
:1035F00090936A068093690690936C0680936B069D
:1036000010927E0610927D068AE491E090937C06EB
:1036100080937B0680917306811113C010926E0611
:1036200010926D0685E399E09093700680936F0683
:103630008FE290E0909372068093710681E0809310
:1036400073060E942810FC01A385B485109709F029
:1036500062C08DE696E09487838785859685209164
:10366000710630917206820F931F9687858785EBCE
:1036700098E090938806809387061092B706109280
:10368000B60686E591E09093B5068093B4068EED7C
:1036900094E090938D0680938C0684E996E0909355
:1036A0008B0680938A0680E28093890610928F06AB
:1036B00010928E0610929106109290061092930628
:1036C0001092920690E080E00E94D01520918E0624
:1036D00030918F06811129C02115310519F0C901DA
:1036E0000E94962B10928F0610928E0610929306CF
:1036F0001092920610929106109290060895DC01A5
:103700008D919C9111970097D1F78BE496E08D9362
:103710009C9344CFDC018D919C9111970097D1F738
:103720008DE696E08D939C9398CF1092930610921D
:10373000920660E671E0C9010C94E52C00D0CDB78B
:10374000DEB7789483E084BD83E085BD81E080931B
:103750006E00E1E8F0E083E08083E0E881E08083D0
:10376000E1E983E08083E0E981E08083E1EC87E0C8
:103770008083E3EC81E08083E0EC82E08083E2EC14
:1037800081E08083EAE787E080838068808310920D
:10379000E6011092B5011092B4018091D7008160CA
:1037A0008093D70080EA8093D80089B5806189BD75
:1037B00089B5826089BD09B400FEFDCF81E090E04B
:1037C0000E94540A8091D8008F7C80618093D80039
:1037D0008091E000807F8093E0008091E1008E7E08
:1037E0008093E1008DE08093E200559A209A81EC6D
:1037F00080937C0081EF85B987EE84B984E38BB92F
:1038000084EF8AB9769A6E9880EF81BB10BA80E512
:103810008CBD81E08DBD85E00E94520B5F9A85E0F2
:103820000E94520B5C98E8E9F7E085918EBD00009C
:103830000DB407FEFDCFE53AC1F75C9A81E88093AD
:10384000640081E0809365000E943A0E80E80E9447
:103850002F0E8823A9F05C9885EA8EBD00000DB478
:1038600007FEFDCF5C9A2E982F982D9880916400CA
:1038700080628093640081E083BF889513BEFCCF93
:1038800084E00E942F0E8823B9F12D9884E80E94CD
:103890002F0E8823A1F02D9A88EC0E94520B2F98AE
:1038A0006FEF82E090E00E94E72984EF91E00E94B0
:1038B000540A2F9A84E80E942F0E8111FBCF84E1D5
:1038C0000E942F0E8823A1F02D9A88EC0E94520BA3
:1038D0002E9860E082E090E00E94E72984EF91E07A
:1038E0000E94540A2E9A84E10E942F0E8111FBCF70
:1038F00088EC0E94520BC4CF2D9A0E94FE1581E0E5
:1039000090E00E94DF29282F2470F22E81FF0CC046
:1039100021112E9801EF1FEF80E40E942F0E8823C3
:1039200009F4C0C02E9A2F9A82E30E94520B0E9483
:10393000550B8111F9CF5E9A5E9AE4E1F0E08EEBCF
:103940009FEF25913591559145912851354909F4BD
:10395000CA018093B6019093B70172988BEA0E94D6
:103960004D0A729A109218011092170180E890E0A7
:1039700090931A0180931901E6EFF7E02491E7EDA7
:10398000F7E084918823C9F090E0880F991FFC012B
:10399000ED54F84F45915491FC01EB55F84FA5912A
:1039A000B4919FB7F894FA01808120958223808397
:1039B0008C91E22FE823EC939FBF0E94930630E1A5
:1039C000E32E00E024EC36E140E070E060E090E0BF
:1039D00080E00E949A085E980E943A0E5E9A68EE15
:1039E00073E080E090E00E942E0B8FEF9FEF9093AA
:1039F00008068093070681E0809359060E94B41060
:103A000085EB98E090938806809387060E94FE15C8
:103A100088EC90E00E94D01585E00E9402158DE0B0
:103A20000E94021545E0A42EB12C8EEF682E77245B
:103A30007A9492E4C92ED12C29E3822E912C0E94F3
:103A40000A0F882341F18091E4018093E3010E94F1
:103A5000550B8093E4018091E201813009F419C192
:103A600008F4BBC0823009F492C7833011F40C947F
:103A70007A2884E00E941A0E882359F08091E2018E
:103A8000823039F08091E101813019F02E982F9821
:103A90002D980E94930680E090E0892B81F20E948D
:103AA0000000C3CFFF2029F00430110511F42E9A35
:103AB0002F9881E00E94E104802F8770E82EA801F2
:103AC00063E0559547956A95E1F79A013695322F4F
:103AD00022273795279525503E4F70E060E04E3FF6
:103AE0009FEF590761F190E080E0DB01A851B94FE9
:103AF0006901E0E8CE0ED11CFD01E80FF91FE49149
:103B0000F0E03F010E2C02C0660C771C0A94E2F72D
:103B10004F3F540739F05901A80EB91EF50194889A
:103B20009628948AEE2039F05601A80EB91EF501A8
:103B300094889728948A019688359105E9F64F5F15
:103B40005F4F20583F4F685A7F4F603B710539F6F1
:103B50000E943A0E8FE00E94520B0F5F1F4F0931F7
:103B6000110509F0D9CEFF2011F02F9A2D9880E988
:103B700091E00E94540A2D9A81E090E00E94DF2992
:103B800080FFD2CE8AE090E00E94DF299FEF980F5D
:103B90009E3F08F0C9CE22E330E03093DF0120934E
:103BA000DE0128E330E03093DD012093DC010AE000
:103BB00010E0682F84EB96E00E94B70D0F5F1F4F57
:103BC000C8010E94DF290031110599F70E943A0EC1
:103BD00088EE93E00E94540AA7CE1091BA01E12C1E
:103BE000012F20E030E040E070E060E08DE290E006
:103BF0000E949A088091B8019091B9016CE070E040
:103C00000E94C52A892B59F4173008F03FC01F5F66
:103C10001093BA018091C4018F5F8093C401109208
:103C20001401109213010CE110E01093160100939F
:103C3000150168EC7EE180E00E9487086AE87BE37A
:103C400080E00E94D70985E590E09093140180936D
:103C50001301109316010093150168E97BE380E0DE
:103C60000E94D70988E00E941A0E882331F02E9A0C
:103C70002F9A2D9A81E08093E2018091C4018531D1
:103C800009F0F7CE81E08093E201F3CE1092BA0101
:103C9000C6CF8091E101811130C106E0E02EF12C08
:103CA000F0921801E092170100E810E010931A0159
:103CB0000093190164E574E180E00E948708F092A6
:103CC0001401E092130110921601109215016FE990
:103CD0007BE380E00E94D7091092C30180E490E06A
:103CE0009093140180931301B0921601A0921501D4
:103CF000909318018093170110931A0100931901F2
:103D00001091C201113009F4EAC008F4DFC012308A
:103D100009F4ECC080E10E941A0E882329F01230C9
:103D200018F41F5F1093C20180E80E941A0E8823C6
:103D300039F08091C201882319F081508093C2012B
:103D40006091C1016450770B24E044E090E080E092
:103D50000E94B80C8091E101833009F02FC5809159
:103D6000E80181110E94AA12B0921401A0921301DD
:103D7000109216011092150168EC7EE180E00E941D
:103D8000870869EF7CE380E00E94D709B0921401B4
:103D9000A09213018CE090E090931601809315019E
:103DA0006DED7CE380E00E94D709B0921401A092EF
:103DB0001301E8E1F0E0F0931601E09315016BEEDA
:103DC0007CE380E00E94D7098091BD01813009F435
:103DD0009BC408F490C4823009F4A1C465E278E081
:103DE00084EB96E00E943507E12C00E024EC37E0FC
:103DF00040E06AE070E08EE590E00E949A088EE56F
:103E000090E090931C0180931B0180911B01909185
:103E10001C018E3791050CF089C4809164008E7F5F
:103E200080936400EDE1F8E0849120917B00982F6D
:103E3000990F990F90722F7D922B90937B00877032
:103E4000806480937C0080917A00806480937A0003
:103E500080917A0086FDFCCF90917800A091790046
:103E600080916400816080936400BA2FA92F2BE1B8
:103E700030E00E94ED2A28EC30E040E050E00E9463
:103E8000F92919012A01FFE02F0E311C411C511C98
:103E900030921E0120921D01E0901B01F0901C0148
:103EA0006091BB017091BC0101E09101A701C701C4
:103EB0000E943D0E3092BC012092BB012FEFE21A0E
:103EC000F20AF0921C01E0921B019FCF8AE08093DE
:103ED000C10166EC7BE380E00E94D7091BCF84E13F
:103EE0008093C1016EEF7BE380E0F6CF8EE180939B
:103EF000C1016CE27CE380E0EFCF8230C9F580E85D
:103F00000E941A0E882339F08091C001882319F08D
:103F100081508093C00180E10E941A0E882339F0FD
:103F20008091C001823018F48F5F8093C00180912E
:103F3000C0018130B1F048F0823009F00BCFE12CA4
:103F400000E020E530E140E005C0E12C00E028E49D
:103F500038E040E064EF7FEF90E080E00E949A0854
:103F6000F9CE18E0E12E00E02CE43CE040E0F2CF96
:103F7000813009F0EFCE10921401109213011092CB
:103F800016011092150168EC7EE180E00E9487081E
:103F90008091BF01823009F4A3C008F06AC0882371
:103FA00009F476C0813009F485C067E278E084EBDB
:103FB00096E00E94350780E10E941A0E1091C5011B
:103FC000882349F08091BF01853028F4111103C086
:103FD0008F5F8093BF0180E80E941A0E882349F00A
:103FE0008091BF01882329F0111103C08150809373
:103FF000BF0188E00E941A0E882349F0111107C002
:104000000E9475151092BE0181E08093C5018091D8
:10401000C501882309F46BC31091BF012EE240E46F
:104020006FE070E080E490E00E94D70C64E574E1FA
:1040300080E00E948708113009F445C208F48FC05F
:10404000123009F446C2133009F4EFC267E178E098
:1040500084EB96E00E94350788E00E941A0E90914A
:104060001F01882309F43CC391113AC31092C50182
:1040700071CE843009F460C008F448C0853009F07E
:1040800094CFB0921401A092130188E290E05AC03C
:10409000B0921401A09213017092DF016092DE01D0
:1040A0001092DD011092DC0162E47CE380E00E946A
:1040B000D7097BCFB0921401A092130188E090E061
:1040C00090931601809315017092DF016092DE01DA
:1040D0009093DD018093DC016CE77CE380E0E7CF27
:1040E000B0921401A092130180E190E09093160128
:1040F000809315017092DF016092DE019093DD01E3
:104100008093DC016CE87CE380E0D1CFB0921401B5
:10411000A092130188E190E090931601809315011D
:104120007092DF016092DE019093DD018093DC01EB
:1041300065EC7CE380E0BBCFB0921401A092130148
:1041400080E290E090931601809315017092DF0158
:104150006092DE019093DD018093DC0126CFD09246
:104160001801C092170180E890E090931A018093A3
:10417000190180E10E941A0E882339F08091BE0156
:10418000833018F48F5F8093BE0180E80E941A0E7E
:10419000882339F08091BE01882319F081508093E3
:1041A000BE018091BE0181115DC0D0921401C09208
:1041B000130183E190E09093160180931501909292
:1041C000DF018092DE019093DD018093DC0160E5E8
:1041D0007CE380E00E94D70984E00E941A0E8823C5
:1041E00009F4FDC068E873E180E090E00E942E0BC6
:1041F00086E09EE30E946B1660EA7FE080E090E03C
:104200000E942E0B61E17EE380E00E940F1660EDBC
:1042100077E080E090E00E942E0B66E37EE380E092
:104220000E940F1660ED77E080E090E00E942E0B78
:1042300062E078E08BE796E00E94350764E77EE372
:1042400080E00E940F168FEF97E00E94BD1560ED91
:1042500077E080E090E00E942E0B61E07EE380E05A
:104260000E940F168091BE01813009F0B8C0909273
:10427000DF018092DE01E8E1F0E0F093DD01E09300
:10428000DC01D0921401C0921301F0931601E09367
:1042900015016BE67CE380E00E94D70984E00E9470
:1042A0001A0E882309F4E8C068E873E180E090E022
:1042B0000E942E0B62E88BE796E00E94D61163EC19
:1042C0008BE796E00E94D61164E670E080E090E013
:1042D0000E942E0B0E94A7106CED75E080E090E02C
:1042E0000E942E0B6BE07DE38BE796E00E94AE15FB
:1042F00060EB8BE796E00E94D6110E94A71068EB56
:104300007BE080E090E00E942E0B6AE17DE380E09C
:104310000E940F1660ED77E080E090E00E942E0B87
:1043200066E27DE380E00E940F1660ED77E080E0BA
:1043300090E00E942E0B6BE37DE380E00E940F165D
:1043400060ED77E080E090E00E942E0B6CE47DE36E
:1043500080E00E940F1660ED77E080E090E00E9420
:104360002E0B6CE57DE380E00E940F1660ED77E098
:1043700080E090E00E942E0B64EA7DE380E00E94E2
:104380000F1660ED77E080E090E00E942E0B60E871
:104390008BE796E00E94D61168E78BE796E00E94D3
:1043A000D61164E670E080E090E00E942E0B0E943F
:1043B000A71060ED77E080E090E00E942E0B6FEF99
:1043C0007DE380E00E940F1668EB7BE080E090E0E8
:1043D0000E942E0B61E07EE380E00E940F16809128
:1043E000BE01823009F048C0D0921401C09213017E
:1043F0000EE110E010931601009315016EE57CE3C9
:1044000080E00E94D7099092DF018092DE01109334
:10441000DD010093DC0184E00E941A0E882309F478
:1044200015CE68E873E180E090E00E942E0B86E0F4
:1044300090E40E946B1668EB7BE080E090E00E94C5
:104440002E0B6AE070E480E00E940F1660ED77E0CA
:1044500080E090E00E942E0B64E270E480E00E9415
:104460000F1660ED77E080E090E00E942E0B6DE289
:1044700070E480E00E940F168091BE01833009F045
:10448000E5CDD0921401C092130103E210E0109325
:1044900016010093150169EF7FE380E00E94D709C0
:1044A0009092DF018092DE011093DD010093DC0128
:1044B00084E00E941A0E882309F4C8CD81ED9FE3A1
:1044C0000E946B16C3CD0E94751582E08093E201B5
:1044D000BDCDD0921801C092170180E890E0909372
:1044E0001A018093190180E10E941A0E882339F085
:1044F0008091BE01823018F48F5F8093BE0180E806
:104500000E941A0E882339F08091BE01882319F089
:1045100081508093BE018091BE01811127C0D0924D
:104520001401C092130183E190E0909316018093EF
:1045300015019092DF018092DE019093DD0180935E
:10454000DC0167E97CE380E00E94D70984E00E94F7
:104550001A0E8823B9F163E88BE796E00E94D61122
:1045600081E198E00E94BD150E94A7108091BE01D4
:10457000813041F5D0921401C092130188E190E09E
:1045800090931601809315019092DF018092DE01D5
:104590009093DD018093DC0164EA7CE380E00E947B
:1045A000D70984E00E941A0E882309F44FCD63E8EE
:1045B0008BE796E00E94D61183E198E00E94BD153A
:1045C0000E94A7108091BE01823009F03FCDD092A9
:1045D0001401C09213018EE190E090931601809334
:1045E00015019092DF018092DE019093DD018093AE
:1045F000DC0164EB7CE380E00E94D70984E00E9448
:104600001A0E882309F422CD60E88BE796E00E9419
:10461000D61162E88BE796E00E94D61185E198E01A
:104620000E94BD150E94A71011CDD0921801C09212
:10463000170180E890E090931A018093190180E1BE
:104640000E941A0E882339F08091BE01823018F43E
:104650008F5F8093BE0180E80E941A0E882339F094
:104660008091BE01882319F081508093BE01809112
:10467000BE0181111FC0D0921401C092130183E1C9
:1046800090E090931601809315019092DF01809243
:10469000DE019093DD018093DC016CEC7CE380E033
:1046A0000E94D70984E00E941A0E882309F4CECC18
:1046B00083E00CCF813009F0C9CCD0921401C092B4
:1046C0001301E8E1F0E0F0931601E09315019092F8
:1046D000DF018092DE01F093DD01E093DC01B6CCD6
:1046E000992309F437CB915090931F0133CB82E08B
:1046F00080931F012FCB7092DF016092DE01109238
:10470000DD011092DC016ACB7092DF016092DE0164
:104710008AE090E09093DD018093DC015FCB7092A2
:10472000DF016092DE0187E190E0F4CF80E10E943A
:104730001A0E882339F08091BD01823018F48F5F02
:104740008093BD0180E80E941A0E882339F0809181
:10475000BD01882319F081508093BD0188E00E943B
:104760001A0E882359F08091BD01811107C08091F4
:10477000E801882309F499C00E946C1388E00E9424
:104780001A0E882359F08091BD01813039F480914F
:10479000E801882309F492C00E946C1388E00E940B
:1047A0001A0E882359F08091BD01823039F480912E
:1047B000E801882309F48BC00E946C131092DF017A
:1047C0001092DE0188E390E09093DD018093DC019C
:1047D00069E278E084EB96E00E94350701E024E38B
:1047E00030E040E850E064E370E090E080E00E9458
:1047F0003D0E20E430E042E250E064E370E082E20B
:1048000090E00E943D0E20E430E040E450E064E39C
:1048100070E080E490E00E943D0E20E430E04EE540
:1048200050E064E370E08EE590E00E943D0E84E08D
:104830000E942F0E1091E101882339F0113009F404
:1048400051C01092C4011092E201111149C001E05F
:1048500023E330E043E250E063E370E090E080E087
:104860000E943D0E20E430E043E250E063E370E05C
:1048700083E290E00E943D0E80E40E941A0E88239D
:1048800029F0133018F41F5F1093E10180E20E94B9
:104890001A0E882309F4EDC88091E101882309F4F8
:1048A000E8C881508093E101E4C828E83BE340E098
:1048B00062E372E380E00E94DF1460CF29EC3CE207
:1048C00040E06CEC74E280E00E94DF1467CF20E3EC
:1048D00032E340E06BEC7CE280E00E94DF146ECFBC
:1048E0001130F1F401E023E330E041E450E063E310
:1048F00070E081E290E00E943D0E21E430E041E270
:1049000050E063E370E081E290E00E943D0E20E41D
:1049100030E041E450E063E370E081E490E0AACF4E
:104920001230F1F401E020E430E04FE350E063E3C3
:1049300070E08FE390E00E943D0E23E330E04FE50E
:1049400050E063E370E08FE390E00E943D0E20E4CE
:1049500030E04FE550E063E370E08FE590E08ACF10
:10496000133009F089CF01E020E430E04DE550E05C
:1049700063E370E08DE590E00E943D0E23E330E0BC
:1049800040E850E063E370E08DE590E073CF0E9473
:10499000460B0091D8011091D9012091DA01309194
:1049A000DB01061717072807390708F0C6C08091F2
:1049B000D701811104C08091D601882351F082E093
:1049C0000E94811183E00E9481111092D601109201
:1049D000D70180E80E942F0E882359F080E10E94C1
:1049E000250E882331F08FEF9FEF9093D5018093B0
:1049F000D40180E80E94250E882349F080E10E94BE
:104A0000250E882321F01092D5011092D40180E167
:104A10000E942F0E882359F080E80E94250E8823DB
:104A200031F081E090E09093D5018093D40180E152
:104A30000E942F0E8111E4C01092D0011092D1017A
:104A40001092D2011092D30180E20E942F0E88238F
:104A500059F080E40E94250E882331F08FEF9FEFFC
:104A60009093CF018093CE0180E20E94250E88238F
:104A700049F080E40E94250E882321F01092CF0196
:104A80001092CE0180E40E942F0E882359F080E21C
:104A90000E94250E882331F081E090E09093CF01B1
:104AA0008093CE0180E40E942F0E8111E8C0109205
:104AB000CA011092CB011092CC011092CD0188E076
:104AC0000E942F0E882309F419C180E00E945C1116
:104AD00084E00E942F0E882309F414C181E00E9413
:104AE0005C110091D4011091D5018091C801909181
:104AF000C9010817190759F000935B068091590600
:104B000081110E94B4101093C9010093C801009153
:104B1000CE011091CF018091C6019091C701081775
:104B2000190759F000935A068091590681110E9485
:104B3000B4101093C7010093C6018091D601882359
:104B400049F08091D701882329F01092C50181E0B6
:104B50008093E2010E940A0F811176C2982FEBEF39
:104B6000F1E091119FEF8FEF919391939193919336
:104B70008150D0F71092DD011092DC011092DF011C
:104B80001092DE018091CE019091CF01009709F43F
:104B9000BDC08130910509F438C1019609F0F9C012
:104BA000E5E2EE2EF12C02E110E029E130E04EE1E9
:104BB00050E06DE070E082E190E00E942D0529E177
:104BC0004CE06DE070E087E090E00E94B80CF9E105
:104BD000EF2EF12C02E210E025E230E04EE250E050
:104BE0006DE070E08EE290E00E94D90E29E14CE089
:104BF0006DE070E08EE290E00E94D70C00E0BFC054
:104C000080E80E942F0E882309F416CF2090D0014F
:104C10003090D1014090D2015090D3012114310441
:104C20004104510459F40E94460B6093D0017093E3
:104C3000D1018093D2019093D30106CF0E94460BFD
:104C400062197309840995096D32714081059105D6
:104C500008F4FACE0E94460B68517C4F8F4F9F4F4D
:104C60006093D8017093D9018093DA019093DB01AE
:104C700083E00E945C1181E08093D701E5CE80E261
:104C80000E942F0E882309F412CF2090CA01309081
:104C9000CB014090CC015090CD012114310441044E
:104CA000510459F40E94460B6093CA017093CB01E2
:104CB0008093CC019093CD0102CF0E94460B6219E4
:104CC0007309840995096D3271408105910508F4D5
:104CD000F6CE0E94460B68517C4F8F4F9F4F6093DA
:104CE000D8017093D9018093DA019093DB0182E0BF
:104CF0000E945C1181E08093D601E1CE80E00E94A9
:104D00008111E6CE81E00E948111EBCEA5E2EA2E70
:104D1000F12C02E110E029E130E04EE150E06DE0DD
:104D200070E082E190E00E94D90E29E14CE06DE054
:104D300070E087E090E00E94D70CB9E1EB2EF12CF7
:104D400002E210E025E230E04EE250E06DE070E07B
:104D50008EE290E00E94D90E29E14CE06DE070E017
:104D60008EE290E00E94D70C00E024E230E042E1C5
:104D700050E06EE070E082E190E00E943D0E24E29F
:104D800030E04EE250E06EE070E08EE290E00E9493
:104D90003D0E8091D4019091D501009709F46DC02A
:104DA0008130910509F458C1019609F0A7C02BE0A4
:104DB000E22EF12C04E110E02BE030E04CE250E078
:104DC00067E170E080E290E00E942D052CE049E16F
:104DD00070E060E084E190E00E94B80C37E2E32EDE
:104DE000F12C27E230E04CE250E06BE170E080E231
:104DF00090E00E94D90E2CE049E167E270E084E186
:104E000090E00E94D70C00E06FC065E2E62EF12C26
:104E100002E110E029E130E04EE150E06DE070E0A9
:104E200082E190E00E94D90E29E14CE06DE070E053
:104E300087E090E00E94D70C79E1E72EF12C02E2A6
:104E400010E025E230E04EE250E06DE070E08EE2EE
:104E500090E00E942D0529E14CE06DE070E08EE2CB
:104E600090E00E94B80C00E024E230E042E150E023
:104E70006EE070E082E190E08ACF4BE0E42EF12C0E
:104E800004E110E02BE030E04CE250E067E170E03C
:104E900080E290E00E94D90E2CE049E170E060E0F1
:104EA00084E190E00E94D70C57E2E52EF12C27E236
:104EB00030E04CE250E06BE170E080E290E00E9474
:104EC000D90E2CE049E167E270E084E190E00E94B5
:104ED000D70C00E02BE030E045E150E06BE070E003
:104EE0008BE290E00E943D0E27E230E04BE250E082
:104EF00067E270E085E190E00E943D0E88E00E944C
:104F00002F0E882309F4DEC049E162E170E088E5F4
:104F100090E00E94D10B10E000E023E04CE06EE155
:104F200070E088E590E00E94350C84E00E942F0E2E
:104F3000882309F4CEC049E16CE070E083E790E09B
:104F40000E94D10B10E000E023E04CE068E170E04B
:104F500083E790E00E94350C8091D601882309F404
:104F6000BFC028E042E168E370E089E290E00E947F
:104F7000B80C05E010E021E041E069E370E08AE36D
:104F800090E00E94350C22E041E069E370E089E2A4
:104F900090E00E94350C8091D701882309F4A5C0C8
:104FA00028E042E168E370E085E490E00E94B80CFC
:104FB00005E010E021E041E069E370E086E590E083
:104FC0000E94350C22E041E069E370E085E490E066
:104FD0000E94350C40E070E060E084E190E00E94C7
:104FE000650B40E070E060E08CE290E00E94650BB1
:104FF00040E062E370E084E190E00E94650B40E0F5
:1050000062E370E08CE290E00E94650B40E06DE0AE
:1050100070E087E090E00E94650B40E065E270E0A0
:1050200087E090E00E94650B40E06DE070E089E36E
:1050300090E00E94650B40E065E270E089E390E05B
:105040000E94650B0E943A0E6AE070E080E090E0FA
:105050000E942E0B0C94391D8BE0E82EF12C04E1FC
:1050600010E02BE030E04CE250E067E170E080E2DD
:1050700090E00E94D90E2CE049E170E060E084E10C
:1050800090E00E94D70C97E2E92EF12C27E230E065
:105090004CE250E06BE170E080E290E00E942D0570
:1050A0002CE049E167E270E084E190E00E94B80CF6
:1050B00000E02BE030E045E150E06BE070E08BE297
:1050C00090E01ACF6EE170E088E590E00E94FF0C5E
:1050D0002CCF68E170E083E790E00E94FF0C3CCFAA
:1050E00088E290E00E94F70B56CF84E490E00E94A3
:1050F000F70B70CF8091E001882301F11092DF015E
:105100001092DE011092DD011092DC016EE378E076
:1051100084EB96E00E9435074091920650919306E9
:1051200060918E0670918F0684EB96E00E9459077D
:105130006EE571E084EB96E00E94AE158BEF95E092
:105140000E943308181619065CF58BEF95E00E9453
:10515000F107F82E89831A82009192061091930626
:105160000F5F1F4FC8010E94D015882399F020912E
:105170008E0630918F068091920690919306BE0123
:105180006F5F7F4F820F931F0E94E52C1093930651
:1051900000939206FAE0FF1203C081E08093E001E1
:1051A00088E00E941A0E882311F40C94391D109285
:1051B000E2010C94391D80918E0690918F06009724
:1051C00011F00C94962B0895E89409C097FB3EF4D7
:1051D00090958095709561957F4F8F4F9F4F992344
:1051E000A9F0F92F96E9BB279395F69587957795C2
:1051F0006795B795F111F8CFFAF4BB0F11F460FF82
:105200001BC06F5F7F4F8F4F9F4F16C0882311F0D9
:1052100096E911C0772321F09EE8872F762F05C0ED
:10522000662371F096E8862F70E060E02AF09A9588
:10523000660F771F881FDAF7880F9695879597F97D
:1052400008950E9434290C94A5290E94972938F0CA
:105250000E949E2920F0952311F00C948E290C9425
:10526000942911240C94D9290E94B62970F3959F92
:10527000C1F3950F50E0551F629FF001729FBB274D
:10528000F00DB11D639FAA27F00DB11DAA1F649FE9
:105290006627B00DA11D661F829F2227B00DA11D9C
:1052A000621F739FB00DA11D621F839FA00D611D22
:1052B000221F749F3327A00D611D231F849F600D43
:1052C000211D822F762F6A2F11249F5750409AF06C
:1052D000F1F088234AF0EE0FFF1FBB1F661F771FF8
:1052E000881F91505040A9F79E3F510580F00C94C3
:1052F0008E290C94D9295F3FE4F3983ED4F3869528
:1053000077956795B795F795E7959F5FC1F7FE2B62
:10531000880F911D9695879597F9089597F99F673E
:1053200080E870E060E008959FEF80EC089500242D
:105330000A941616170618060906089500240A94FA
:1053400012161306140605060895092E0394000C80
:1053500011F4882352F0BB0F40F4BF2B11F460FF0F
:1053600004C06F5F7F4F8F4F9F4F089557FD905838
:10537000440F551F59F05F3F71F04795880F97FB19
:10538000991F61F09F3F79F08795089512161306D3
:105390001406551FF2CF4695F1DF08C01616170602
:1053A0001806991FF1CF8695710561050894089537
:1053B000E894BB2766277727CB0197F90895F999D9
:1053C000FECF92BD81BDF89A992780B50895262F0A
:1053D000F999FECF92BD81BDF89A019700B40216EB
:1053E00039F01FBA20BD0FB6F894FA9AF99A0FBE99
:1053F0000895052E97FB1EF400940E94102A57FD75
:1054000007D00E944F2A07FC03D04EF40C94102AB8
:1054100050954095309521953F4F4F4F5F4F0895E0
:1054200090958095709561957F4F8F4F9F4F089510
:105430002F923F924F925F926F927F928F929F92A4
:10544000AF92BF92CF92DF92EF92FF920F931F9392
:10545000CF93DF93CDB7DEB7CA1BDB0B0FB6F89443
:10546000DEBF0FBECDBF09942A88398848885F8483
:105470006E847D848C849B84AA84B984C884DF80F4
:10548000EE80FD800C811B81AA81B981CE0FD11DD8
:105490000FB6F894DEBF0FBECDBFED010895A1E2B7
:1054A0001A2EAA1BBB1BFD010DC0AA1FBB1FEE1F9E
:1054B000FF1FA217B307E407F50720F0A21BB30BE9
:1054C000E40BF50B661F771F881F991F1A9469F765
:1054D00060957095809590959B01AC01BD01CF01C1
:1054E0000895A29FB001B39FC001A39F700D811DBD
:1054F0001124911DB29F700D811D1124911D0895DD
:105500000E94BE2988F09F5798F0B92F9927B7516C
:10551000B0F0E1F0660F771F881F991F1AF0BA9557
:10552000C9F714C0B13091F00E94D829B1E00895B4
:105530000C94D829672F782F8827B85F39F0B93FA6
:10554000CCF3869577956795B395D9F73EF490950A
:105550008095709561957F4F8F4F9F4F0895DB0128
:10556000582F0E94712A529F800DA49F800D1124F4
:105570000895991B79E004C0991F961708F0961BAF
:10558000881F7A95C9F780950895AA1BBB1B51E126
:1055900007C0AA1FBB1FA617B70710F0A61BB70BA3
:1055A000881F991F5A95A9F780959095BC01CD0148
:1055B000089597FB072E16F4009407D077FD09D0C5
:1055C0000E94C52A07FC05D03EF4909581959F4F17
:1055D0000895709561957F4F08950E94712AB7FFD5
:1055E0000895821B930B0895EE0FFF1F0590F49111
:1055F000E02D09940F931F93CF93DF938230910591
:1056000010F482E090E0E091BA06F091BB0630E041
:1056100020E0B0E0A0E0309799F42115310509F4BD
:105620004AC0281B390B24303105D8F58A819B816B
:105630006115710589F1FB0193838283FE0111C01D
:10564000408151810281138148175907E0F04817C2
:10565000590799F4109761F012960C9312971396CC
:105660001C933296CF01DF91CF911F910F91089536
:105670000093BA061093BB06F4CF2115310551F003
:105680004217530738F0A901DB019A01BD01DF0180
:10569000F801C1CFEF01F9CF9093BB068093BA0612
:1056A000CDCFFE01E20FF31F819391932250310978
:1056B00039832883D7CF2091B8063091B906232BA0
:1056C00041F420912201309123013093B9062093B7
:1056D000B80620912001309121012115310541F4B6
:1056E0002DB73EB74091240150912501241B350B65
:1056F000E091B806F091B906E217F307A0F42E1B6B
:105700003F0B2817390778F0AC014E5F5F4F241725
:10571000350748F04E0F5F1F5093B9064093B80607
:10572000819391939FCFF0E0E0E09CCFCF93DF9304
:105730000097E9F0FC01329713821282A091BA0619
:10574000B091BB06ED0130E020E01097A1F420817C
:105750003181820F931F2091B8063091B906281726
:10576000390709F061C0F093B906E093B806DF91FC
:10577000CF910895EA01CE17DF07E8F54A815B81F2
:105780009E0141155105B1F7E901FB83EA83499177
:105790005991C40FD51FEC17FD0761F480819181E9
:1057A0000296840F951FE9019983888382819381F2
:1057B0009B838A83F0E0E0E012968D919C91139791
:1057C0000097B9F52D913C911197CD010296820F6A
:1057D000931F2091B8063091B9062817390739F67A
:1057E000309751F51092BB061092BA06B093B906E5
:1057F000A093B806BCCFD383C28340815181840F6C
:10580000951FC817D90761F44E5F5F4F8881998152
:10581000480F591F518340838A819B8193838283E0
:105820002115310509F0B0CFF093BB06E093BA061D
:105830009ECFFD01DC01C0CF13821282D7CFB0E032
:10584000A0E0E5E2FCE20C941A2A8C01009751F4E6
:10585000CB010E94FA2A8C01C801CDB7DEB7E0E186
:105860000C94362AFC01E60FF71F9C0122503109E7
:10587000E217F30708F49DC0D901CD91DC9111978F
:10588000C617D70798F0C530D10530F3CE0104977D
:105890008617970708F3C61BD70B2297C193D1939E
:1058A0006D937C93CF010E94962BD6CF5B01AC1AEF
:1058B000BD0A4C018C0E9D1EA091BA06B091BB068C
:1058C000512C412CF12CE12C109731F58091B80628
:1058D0009091B9068815990509F05CC046165706DF
:1058E00008F058C08091200190912101009741F467
:1058F0008DB79EB74091240150912501841B950BD3
:10590000E817F90708F055C0F093B906E093B80618
:10591000F90171836083A0CF8D919C9111971296AC
:105920006C90129713967C901397A815B90559F5AA
:105930006C0142E0C40ED11CCA14DB0420F1AC019E
:105940004A195B09DA011296159780F06282738218
:1059500051834083D9016D937C93E114F10471F07C
:10596000D7011396FC93EE93129776CF22968C0F65
:105970009D1FF90191838083F301EFCFF093BB0664
:10598000E093BA0669CF4816590608F42C017D0148
:10599000D3019ACFCB010E94FA2A7C01009749F0EB
:1059A000AE01B8010E94DC2CC8010E94962B870131
:1059B00053CF10E000E050CFFB01DC0102C00190AA
:1059C0000D9241505040D8F70895FB01DC01019041
:1059D0000D920020E1F7089514E0C3EBD4E004C079
:1059E000FE010E94F42A2196C43BD107C9F7F8941E
:0259F000FFCFE7
:1059F20000C18081000000FFFFFFFF00E100000006
:105A020000000000000000000080004000000002D2
:105A12000000BC0680000301000000002F0FDD0F14
:105A2200A20F870F00000000CB07000BEC07E10775
:105A32003308F1070F08000000005412AA11AB1539
:105A4200AA1500000000B70D5907AB15AA150D0ADB
:025A5200000052
:00000001FF
