:100000000C940F040C9437040C9437040C943704AC
:100010000C9437040C9437040C9437040C94370474
:100020000C9437040C9437040C94B6160C942517D2
:100030000C9437040C9437040C9437040C94370454
:100040000C9437040C9437040C9437040C94370444
:100050000C9437040C9437040C9437040C945719FF
:100060000C9437040C9437040C9437040C94370424
:100070000C9437040C9437040C9437040C94370414
:100080000C94A1190C9437040C9437040C94370485
:100090000C9437040C9437040C9437040C943704F4
:1000A0000C9437040C9437040C94370400000000BF
:1000B000003E5B4F5B3E3E6B4F6B3E1C3E7C3E1CEE
:1000C000183C7E3C181C577D571C1C5E7F5E1C0034
:1000D000183C1800FFE7C3E7FF0018241800FFE7EB
:1000E000DBE7FF30483A060E2629792926407F05AE
:1000F0000507407F05253F5A3CE73C5A7F3E1C1CC4
:1001000008081C1C3E7F14227F22145F5F005F5F83
:1001100006097F017F006689956A6060606060946F
:10012000A2FFA29408047E040810207E2010080874
:100130002A1C08081C2A08081E101010100C1E0C7F
:100140001E0C30383E3830060E3E0E060000000011
:100150000000005F00000007000700147F147F14F8
:10016000242A7F2A1223130864623649562050003D
:1001700008070300001C2241000041221C002A1C29
:100180007F1C2A08083E0808008070300008080814
:100190000808000060600020100804023E51494534
:1001A0003E00427F400072494949462141494D3352
:1001B0001814127F1027454545393C4A49493141B9
:1001C000211109073649494936464949291E000087
:1001D00014000000403400000008142241141414DC
:1001E0001414004122140802015909063E415D59C8
:1001F0004E7C1211127C7F494949363E41414122D1
:100200007F4141413E7F494949417F090909013EFA
:10021000414151737F0808087F00417F4100204021
:10022000413F017F081422417F404040407F021C33
:10023000027F7F0408107F3E4141413E7F0909094A
:10024000063E4151215E7F09192946264949493216
:1002500003017F01033F4040403F1F2040201F3FDC
:100260004038403F63140814630304780403615961
:10027000494D43007F4141410204081020004141A3
:10028000417F04020102044040404040000307084F
:100290000020545478407F2844443838444444284B
:1002A000384444287F385454541800087E090218F2
:1002B000A4A49C787F0804047800447D400020407A
:1002C000403D007F1028440000417F40007C0478BE
:1002D00004787C080404783844444438FC18242406
:1002E0001818242418FC7C08040408485454542486
:1002F00004043F44243C4040207C1C2040201C3C03
:100300004030403C44281028444C9090907C4464F9
:10031000544C44000836410000007700000041368C
:10032000080002010204023C2623263C1EA1A16112
:10033000123A4040207A3854545559215555794144
:100340002154547841215554784020545579400C1B
:100350001E527212395555555939545454593955FC
:100360005454580000457C410002457D420001453F
:100370007C40F0292429F0F0282528F07C545545AC
:10038000002054547C547C0A097F4932494949323F
:100390003248484832324A4848303A4141217A3A54
:1003A00042402078009DA0A07D39444444393D401E
:1003B00040403D3C24FF2424487E4943662B2FFCCB
:1003C0002F2BFF0929F620C0887E09032054547979
:1003D000410000447D413048484A32384040227A4A
:1003E000007A0A0A727D0D19317D2629292F2826C7
:1003F0002929292630484D402038080808080808CF
:100400000808382F10C8ACBA2F102834FA00007B27
:10041000000008142A142222142A1408950022002D
:1004200095AA005500AAAA55AA55AA000000FF00E7
:10043000101010FF00141414FF001010FF00FF1024
:1004400010F010F0141414FC001414F700FF000056
:10045000FF00FF1414F404FC141417101F10101FD5
:10046000101F1414141F00101010F0000000001FC3
:10047000101010101F10101010F010000000FF10CE
:100480001010101010101010FF10000000FF1400CA
:1004900000FF00FF00001F10170000FC04F41414FC
:1004A0001710171414F404F40000FF00F7141414C8
:1004B00014141414F700F7141414171410101F1048
:1004C0001F141414F4141010F010F000001F101F6B
:1004D0000000001F14000000FC140000F010F010D9
:1004E00010FF10FF141414FF141010101F00000050
:1004F00000F010FFFFFFFFFFF0F0F0F0F0FFFFFF54
:100500000000000000FFFF0F0F0F0F0F38444438AA
:10051000447C2A2A3E147E02020606027E027E02E5
:1005200063554941633844443C04407E201E200604
:10053000027E020299A5E7A5991C2A492A1C4C7241
:1005400001724C304A4D4D303048784830BC625AC8
:10055000463D3E494949007E0101017E2A2A2A2A58
:100560002A44445F444440514A444040444A514034
:100570000000FF0103E080FF000008086B6B0836F5
:1005800012362436060F090F060000181800000066
:100590001010003040FF0101001F01011E00191D55
:1005A0001712003C3C3C3C0000000000080B00021D
:1005B00002020000090400000102020000052400FC
:1005C000100105240101010424020605240600018E
:1005D0000705810310004009040100020A00000021
:1005E00007050202400000070583024000000403E3
:1005F000090412010002EF0201404123368000018C
:100600000102030141726475696E6F204C4C430016
:1006100041726475626F7900F0F89C8E8783878ED3
:100620009CF8F00000FEFF0303030303070EFCF831
:100630000000FEFF0303030303070EFCF80000FFA6
:10064000FF00000000000000FFFF0000FEFF8383AA
:10065000838383C7EE7C380000F8FC0E0703030396
:10066000070EFCF800003F7FE0C08080C0E07F3FC5
:10067000FFFF01010101010101FFFF0000FFFF0C6D
:100680000C0C0C1C3E77E3C100007FFFC0C0C0C053
:10069000C0E0703F1F00001F3F70E0C0C0C0E070AE
:1006A0003F1F00007FFFC1C1C1C1C1E3773E1C00F5
:1006B000001F3F70E0C0C0C0E0703F1F000000009E
:1006C0000001FFFF01000000D5F08D14A1C881CF0B
:1006D000D9F1AF200000000000250028002B002EDB
:1006E00000310000000000240027002A002D003007
:1006F00000040404040403040502020202040302C9
:1007000002020206060606060604040202020404A9
:100710000408020110408040102040804080080200
:10072000040180402010020110801020404020224F
:10073000290024737065616B2E537065616B2822EC
:10074000006C0064007400070605040100080A0B31
:100750000C0D093E003E002020494E5620205553E6
:100760004220204D41502020524144000000000012
:10077000000000002A2B28000000000000000000FC
:100780000000000000000000000000002C9EB4A04B
:10079000A1A2A434A6A7A5AE362D3738271E1F2048
:1007A000212223242526B333B62EB7B89F8485860D
:1007B0008788898A8B8C8D8E8F9091929394959651
:1007C0009798999A9B9C9D2F3130A3AD35040506CF
:1007D0000708090A0B0C0D0E0F1011121314151631
:1007E0001718191A1B1C1DAFB1B0B5000501090679
:1007F000A1018502050719E029E71500250175010A
:100800009508810295017508810395067508150004
:1008100025730507190029738100C000351A1124BA
:100820001FBECFEFDAE0DEBFCDBF11E0A0E0B1E048
:10083000E4E9F3E502C005900D92AA36B107D9F7B5
:1008400027E0AAE6B1E001C01D92A033B207E1F7AC
:1008500014E0CFE0D4E004C02197FE010E94942868
:10086000CE30D107C9F70E94F61C0C94C8290C940D
:1008700000008091B9010895EEEEF1E0A0E0B8E04B
:1008800000800EBC8111012C1197A0FDFDCF0192BB
:10089000B9F70DB40895480F592F511D14161506B8
:1008A00084F5803891056CF597FF02C090E080E0F8
:1008B0004138510514F040E850E0481BFB01E77057
:1008C000FF2721E001C0220FEA95EAF777FF02C077
:1008D000695F7F4FFB0133E0F595E7953A95E1F7C6
:1008E000F695FE2FEE27F795E795E80FF91FE251F1
:1008F000FE4F415030F08191DF011197822B8C9394
:10090000F8CF08956034710510F40C944B040895E9
:100910002F923F924F925F926F927F928F929F920F
:10092000AF92BF92CF92DF92EF92FF920F931F93FD
:10093000CF93DF93CDB7DEB72E970FB6F894DEBF17
:100940000FBECDBF5B016A013E872D872617370793
:100950000CF001C1E616F7060CF415C16217730717
:100960005CF03A2D2B2DAD84BE843D872E87382F29
:10097000292FC601C32ED22EAE14BF04A1F5C8166E
:10098000D90654F0382F292F8C159D0514F43C2DD1
:100990002D2D6C01832F922F0C151D052CF0801727
:1009A00091070CF4C80186018F5F482F401BB501E9
:1009B000C8012E960FB6F894DEBF0FBECDBFDF91F3
:1009C000CF911F910F91FF90EF90DF90CF90BF904C
:1009D000AF909F908F907F906F905F904F903F90DF
:1009E0002F900C948204302F212F8C01832F922F73
:1009F0003E2D2F2D7501A32EB22E9601201B310BFB
:100A000038872F834D855E854E195F095A87498740
:100A10003C01601A710A95012E193F093A83298316
:100A2000AC014C195D095C834B83C5012D853E8566
:100A3000821B930B9C878B872A153B05F1F1215074
:100A400031093E832D834701512C412C312C212C1F
:100A50008D819E8188159905ACF1C10169857A85E2
:100A60000E9479289B01200F311FC20169817A8180
:100A70000E947928600F711F4F815885240E351E02
:100A8000460C571C621773071CF4922F9B01692FA9
:100A90006F5F462F421BB401C9010E9482045FEFC1
:100AA000851A950AD5CF3C2D2D2D6C01832F922FC1
:100AB0003A2D2B2DAD84BE8475C04D855E855E8339
:100AC0004D83C1CFC4012D853E85821B930B2B81A5
:100AD0003C81829FA001839F500D929F500D112455
:100AE0005E834D83C4018E199F09869D7001879D89
:100AF000F00C969DF00C1124A814B9040CF455C008
:100B00008D819E816B857C850E9479289B012C0DAF
:100B10003D1DC70169817A810E947928600F711F8C
:100B20004D815E818B819C81480F591F5E834D836F
:100B3000E60CF71C621773071CF4922F9B01692FB8
:100B40006F5F462F421BB401C9010E9482049FEFD0
:100B5000891A990AD1CF2D853E85E216F3060CF04D
:100B60000BCFE616F7060CF49ECF302F212F8A010B
:100B70006C01832F922F3D852E857E876D875701CF
:100B8000E32EF22EEECE4D855E85E416F5060CF4CE
:100B900034CF302F212F8601C32ED22E3E2D2F2D64
:100BA000ED84FE843D872E8728CF2E960FB6F894CD
:100BB000DEBF0FBECDBFDF91CF911F910F91FF9090
:100BC000EF90DF90CF90BF90AF909F908F907F90ED
:100BD0006F905F904F903F902F9008954F925F924B
:100BE0006F927F928F929F92AF92BF92CF92DF923D
:100BF000EF92FF920F931F93CF93DF93E5010C15B4
:100C00001D052E053F050CF051C028013901460194
:100C10005701882309F44FC0CA01DB0184159505EB
:100C2000A605B70514F4D301C201B501A4018815C6
:100C30009905AA05BB0514F4AC01BD01C016D10687
:100C4000E206F30664F4D501C401841B950BA60BE0
:100C5000B70BAC01BD01440D551D661D771D9A01F2
:100C6000AB012419350946095709AFEFBFEF0E94C0
:100C70001328A501940124193509460957090E9432
:100C8000F4272883398382E090E0DF91CF911F9190
:100C90000F91FF90EF90DF90CF90BF90AF909F901B
:100CA0008F907F906F905F904F900895260137014D
:100CB00048015901AECF90E080E0E7CFFC01809180
:100CC000E701882311F13FB7F89482E08093E900AF
:100CD0002091F200822F90E01816190614F481E09A
:100CE00090E0882339F0289844E64093E60140914B
:100CF000F1004083222339F02091F200211103C03A
:100D00002BE62093E8003FBF08958FEF9FEF0895F3
:100D10004091B3015091B4012091B1013091B201E1
:100D200042175307B4F49091E8009570E1F3909165
:100D3000E80092FD19C08093F1008091B301909179
:100D4000B40101968F739927892B19F48EEF809344
:100D5000E8008091B3019091B40101969093B401A1
:100D60008093B30181E0089580E00895DF92EF92CF
:100D7000FF920F931F93CF93DF93D82E8A01EB013D
:100D80007B01E40EF51ECE15DF0559F0D7FE12C02B
:100D9000FE0184910E94880621968111F4CF0FEF05
:100DA0001FEFC801DF91CF911F910F91FF90EF903E
:100DB000DF9008958881EECF2FB7F89487708093E5
:100DC000E9009091E800892F807295FF04C090910E
:100DD000F20080E4891B2FBF0895615030F020910C
:100DE000F100FC0120830196F8CF289884E68093D7
:100DF000E6010895EF92FF920F931F93CF93DF9335
:100E00008C017B01D0E0C0E0F701EC0FFD1F649185
:100E1000662361F0D801ED91FC910190F081E02D05
:100E2000C8010995892B11F02196EECFCE01DF91F3
:100E3000CF911F910F91FF90EF900895AF92BF92C5
:100E4000CF92DF92EF92FF920F931F93CF93DF9396
:100E50006C017B018B01040F151FEB015E01AE18C5
:100E6000BF08C017D10759F06991D601ED91FC91E7
:100E70000190F081E02DC6010995892B79F7C50114
:100E8000DF91CF911F910F91FF90EF90DF90CF9066
:100E9000BF90AF9008958091A90181110DC082E0AB
:100EA0008093A50184E08093A6011092A80110927E
:100EB000A70181E08093A90185EA91E008950F934D
:100EC0001F93CF93DF931F92CDB7DEB782E0898364
:100ED00042E450E06CEA75E080E80E94B6060E94A9
:100EE0004B07DC0112960D911C910115110589F03B
:100EF000D801ED91FC910280F381E02DBE016F5F7E
:100F00007F4FC801099597FD04C0F8010085118540
:100F1000ECCF89810F90DF91CF911F910F910895B0
:100F2000CF93DF93FC01DB01818114963C911497F0
:100F3000682F630F7727771F683071059CF5C28192
:100F4000D381209739F5B383A283908112969C9325
:100F5000129713968C93139715968C911597890F6A
:100F6000808390E080E0831708F52181C22FD0E0D4
:100F7000BE0160507F4F16964D915C911797480FB8
:100F8000591FEA014881EB0148832F5F21830196B5
:100F9000EACFEA014885598541155105D1F7B9874E
:100FA000A887D3CF80E0DF91CF91089581E0FBCF78
:100FB000CF93DF931F92CDB7DEB76983DC01ED914C
:100FC000FC910280F381E02D41E050E0BE016F5FB3
:100FD0007F4F09950F90DF91CF91089583E0809323
:100FE000E9008091F200882319F08AE38093E800F9
:100FF000089583E00E94DC0690E00895CF93DF938C
:101000001F92CDB7DEB7FC018485958597FD08C09A
:101010002FEF3FEF358724870F90DF91CF91089511
:10102000CE0101960E945E06019719F4898190E035
:10103000F3CF8FEF9FEFF0CF0F931F93CF93DF93FB
:101040001F92CDB7DEB78C01FC018485958597FF93
:101050000BC0CE0101960E945E06019771F4898152
:1010600090E0F80195878487F801848595850F9035
:10107000DF91CF911F910F9108958FEF9FEFF1CFE7
:10108000FC018485958597FD0BC09FB7F89482E09D
:101090008093E9008091F2009FBF90E0019608954F
:1010A0009FB7F89482E08093E9008091F2009FBF9F
:1010B00090E008950DB407FEFDCF8EB5599A0895BE
:1010C000FC016150704021F00E946C088193F9CFBF
:1010D0000E945A08808308950DB407FEFDCF8EB597
:1010E0001EBC08950E946C08982F0C945A080E9408
:1010F0006C08982F0C946C0859980E945A0A862FF5
:101100000E945A0A852F0E945A0A842F0C945A0A68
:10111000462F5091BA01570F6091BB01681F83E0C1
:101120000E947C081EBC0895CF93DF93C8EED1E0E7
:10113000688379838A831B820E9488080E947708CB
:101140008C830E9472088D83DF91CF9108953F9226
:101150004F925F926F927F928F929F92AF92BF92C7
:10116000CF92DF92EF92FF920F931F93CF93DF9373
:101170005C016B013901842E302E9E2C842FB90125
:101180000E9488080E947708582EC82FD92F0E94E5
:101190007208FC019E012A0D3B1D121613060CF06D
:1011A000F7C040E8A416B1040CF0F2C08C0D9D1DF0
:1011B000181619060CF0ECC040E4C416D1040CF06B
:1011C000E7C0B7FE0BC0EE24FF24EA18FB085E1848
:1011D000203831055CF040E8542E08C02138310534
:1011E0001CF020E8522E5A18F12CE12CD7FEE2C058
:1011F000002711270C191D09087FCF01801B910BB7
:101200004E2E401A8134910534F08C2D81958770D3
:1012100030E4432E480E15950795159507951595BD
:101220000795CF01079696958795969587959695FC
:101230008795389E9001399E300D1124200F311F63
:1012400040E0BE010D2E000C880B0E944F28A82FF5
:10125000CB018E0D9F1DA11DF7FCAA9594FE05C024
:10126000880F991FAA1FCC0FDD1F24E0620E711C8E
:10127000811C680E791E8A1E960183E0359527959C
:101280008A95E1F7020F30E80303D0011124AA0D7B
:10129000BB1DAE0DBF1D95FE05C0252D2150330B86
:1012A000A20FB31F31E0C1FC34E0C0FC330FC2FC1D
:1012B0003295A251BE4F242D599883E08EBD809166
:1012C000BA019091BB01870D981D0DB407FEFDCFAB
:1012D0009EBD0DB407FEFDCF8EBD0DB407FEFDCF44
:1012E0006EBC6C0E7D1E811C0DB407FEFDCF1EBCB6
:1012F000990C073014F4089430FD8894979462E0B8
:1013000021FD68E022FD629520FF66956A9511F047
:1013100028300CF06FEF952D0EB41EBC93FC062602
:10132000862F90FC802D92FC0024039EA00194FA4D
:1013300036F4C895C89511240EB41EBC90FC082E36
:10134000039E003034F08C9191FE482740214827BD
:101350004C93A058BF4F97FE06C08C9191FE582722
:10136000512158275C93112495FCA15895FEAF5745
:10137000B1099A9589F6852D95FE81958058A80F1B
:10138000B11D285003950DB4599A12160CF494CF40
:10139000DF91CF911F910F91FF90EF90DF90CF9051
:1013A000BF90AF909F908F907F906F905F904F9085
:1013B0003F9008954E2E813491051CF080E4482E14
:1013C0004C1810E000E02DCF2F923F924F926F9279
:1013D0007F928F92CF92DF92EF92FF920F931F93A3
:1013E000CF93DF931B01482E9FEF291A390A490A30
:1013F0000E9488080E945A08182F882309F44BC0BD
:101400008D30B1F0C0901501D09016018A3099F45A
:1014100080911701909118012091ED01C20ED11C0D
:101420009093140180931301D0921601C09215017C
:10143000842DB101D7CFF090EB01C0911301D09171
:1014400014016090E8017090E9018090EA01EF2CAE
:10145000082F482D9301B601CE010E94A708809164
:10146000EC01F5FE0CC081E0781A8108882DB301EB
:10147000610F711D811D0E9488080E945A088C0FFF
:101480009D2F911D2091190130911A018217930708
:101490000CF0BECFC5CFDF91CF911F910F91FF9080
:1014A000EF90DF90CF908F907F906F904F903F9014
:1014B0002F9008958EBD00008EB50DB407FEFCCFB1
:1014C0000895FC010E94850B319728F068517C4FEC
:1014D0008F4F9F4FF9CFAB01FC010E94850B641722
:1014E00075078E079F07C8F308957F928F929F928A
:1014F000AF92BF92CF92DF92EF92FF920F931F9322
:10150000CF93DF93C82E8B017A018091E70181117F
:1015100010C08FEF9FEFDF91CF911F910F91FF9040
:10152000EF90DF90CF90BF90AF909F908F907F9083
:1015300008958091B70180FF05C08091E00082602E
:101540008093E000CE2DDF2DD12C8AEFB82E8C2D8C
:101550008770982E8C2D8072882E8C2D8074782E1A
:101560009AE3A92E209719F4DD2009F450C08C2DA0
:101570000E94DC06811108C0BA94BB2051F281E0C0
:1015800090E00E94610AEECF8C171D0611F00CF05E
:101590008C2F9FB7F8949092E9002091E80025FDE8
:1015A00002C09FBFDFCF282F30E0C21BD30B8820A3
:1015B00029F08150A0F01092F100FBCFF801C7FC98
:1015C0000AC0815050F041914093F100FACF44910C
:1015D0004093F10031968150D0F7020F131FDD20A8
:1015E00021F0A092E800D12CDCCF8091E80085FDAD
:1015F00007C0A092E800DD24D394209791F2F3CFA6
:10160000209779F6772069F2A092E800CACF5D981A
:1016100084E68093B601C7017ECFEF92FF921F93BD
:10162000CF93DF931F92CDB7DEB77C0180914F0639
:1016300081112CC011E0109342061093430688E4F8
:1016400096E09093450680934406109247061092C8
:10165000460687E491E090933F0680933E06109201
:101660004A061092490610924C0610924B061093AF
:101670004D0610934E0681EC809348060E944B075E
:101680006EE376E00E94900710934F0682E0898314
:1016900041E050E0BE016F5F7F4F809141060E94A4
:1016A000750A97FD08C08091410648E050E0B701F7
:1016B00080640E94750A0F90DF91CF911F91FF9077
:1016C000EF900895E5E6F6E01682178210861186FF
:1016D00012861386148289E696E00C940D0BCF9344
:1016E000DF93EC0180911201882331F083E00E94A6
:1016F000750A1816190634F081E090E09B838A83FE
:1017000080E090E0DF91CF910895A1EAB1E02FB79A
:10171000F8947D918D919C9166B52FBFA89B05C0D3
:101720006F3F18F47F5F8F4F9F4F22E0660F771F48
:10173000881F991F2A95D1F70895AB01FC010E94DB
:10174000850B41505109E109F10928F068517C4F9E
:101750008F4F9F4FF6CFAB01FC010E94850B6417A2
:1017600075078E079F07C8F308952FB7F894609107
:101770009D0170919E0180919F019091A0012FBFCA
:101780000895DC01FB0191818081813A31F49D7FD4
:1017900081E0913009F080E008958132E1F79B30DB
:1017A00029F482811F968C9381E008959A3099F7ED
:1017B000828150968C93F8CFFC014281FB012481F9
:1017C00035814217130611F40C94C10B80E0089583
:1017D000DC01FB0188E4808389E4818384E48283E3
:1017E0001D969C911D979F709F5B93831D968D9175
:1017F0009C9124E0969587952A95E1F78F708F5BF1
:10180000848385E00895EF92FF920F931F93CF9307
:10181000DF93FB012081213889F52381223271F584
:10182000DC0112964C91248135814217130631F563
:101830008C01FC01C385D485F12CE12C209791F01B
:101840004C815D816A817B818E81811180E80E945B
:10185000B6068F3F980759F0E80EF91E0990D88117
:10186000C02DECCF81E0D8011F968C93C701DF918A
:10187000CF911F910F91FF90EF90089590E080E03D
:10188000F6CFCF93DF93CDB7DEB769970FB6F89455
:10189000DEBF0FBECDBFFC01DB018C918F5F8C934F
:1018A0009E012D5F3F4F8DE0D9011D928A95E9F78A
:1018B00029E0298384E08A8391E09D8383E08E83FD
:1018C0002A8721E22B879C879D879F8722E2288B8E
:1018D00027E02B8B25E02C8B8E8B20E430E0388F9B
:1018E0002F8B998F82818B8395858685998B8A8BA7
:1018F000838180688D8B49E150E0BE016F5F7F4F2F
:1019000080E00E94B60669960FB6F894DEBF0FBE5F
:10191000CDBFDF91CF910895CF9380919301811135
:101920002CC0C1E0C0938601C09387018CE891E090
:10193000909389018093880110928B0110928A0103
:1019400089E291E0909383018093820110928E014D
:1019500010928D011092900110928F01C09391010D
:10196000C093920181EC80938C010E944B0762E846
:1019700071E00E949007C093930182E891E0CF91BB
:10198000089590E00C94610A8FB18095807F669BEA
:1019900088601C9B8460089590E1282F81E061FDA0
:1019A00084E060FD880F62FD8295687F969FD0017C
:1019B0001124A20FA251BE4F0C90082A40FF082606
:1019C0000C9208958038910528F46034710510F464
:1019D0000C94CC0C0895FF920F931F93CF93DF9339
:1019E000EC018B01F42E42FF0BC041E001960E94F6
:1019F000E20C41E0B8016F5F7F4FCE010E94E20C24
:101A0000F1FE0DC041E0B801CE0101960E94E20C4A
:101A100041E0B80161507109CE010E94E20CF3FE71
:101A20000DC041E0B8016F5F7F4FCE010E94E20C14
:101A300041E0B801CE0101970E94E20CF0FE12C015
:101A4000B8016150710941E0CE010E94E20C41E011
:101A5000B801CE010197DF91CF911F910F91FF90B7
:101A60000C94E20CDF91CF911F910F91FF9008959C
:101A7000EF92FF920F931F93CF93DF937C018B0123
:101A8000040F111DEB0177FF02C0D0E0C0E0C801D8
:101A90000134110514F080E490E0C817D9073CF434
:101AA00041E0BE01C7010E94E20C2196F0CFDF9118
:101AB000CF911F910F91FF90EF9008950F931F9377
:101AC000CF93DF93EC018C010F5F1F4F42E168E37E
:101AD00070E0C8010E944B0442E16FE370E0C8016E
:101AE0000E94820446E069E370E0CE010E94380D56
:101AF00046E069E370E0CE0143960E94380D41E074
:101B000069E370E0C8010E94EB0C629642E069E371
:101B100070E0CE010E94EB0C44E06EE370E0CE0179
:101B20000E94EB0C48E06EE370E0C801DF91CF91BA
:101B30001F910F910C94EB0C2F923F924F925F925A
:101B40006F927F928F929F92AF92BF92CF92DF92CD
:101B5000EF92FF920F931F93CF93DF935C014B01A2
:101B6000C42FD0E081E090E03C016C1A7D0A44244F
:101B700055244C1A5D0A440C551CCC24C394D12C1A
:101B8000F12CE12C822F8170282E33243394300ED7
:101B9000122F127077FC06C0219782E0480E511C6C
:101BA000640C751C8FEFE81AF80A82E0C80ED11C8D
:101BB0006C0C7D1C2220A9F04C2F440F430DB40166
:101BC0006C1B7D0BC5018E0D9F1D0E94380D402F93
:101BD0004C0DB4016E197F09CE018A0D9B1D0E9428
:101BE000380D1123A9F04C2F440F430DB4016C1B89
:101BF0007D0BC5018E199F090E94380D402F4C0D99
:101C0000B4016E197F09C5018C1B9D0B0E94380D14
:101C1000EC16FD060CF4BECFDF91CF911F910F9112
:101C2000FF90EF90DF90CF90BF90AF909F908F90FC
:101C30007F906F905F904F903F902F900895DF922C
:101C4000EF92FF920F931F93CF93DF937B01D22EDE
:101C5000EC018C01040F111DC017D1073CF44D2D70
:101C6000B701CE010E94380D2196F6CFDF91CF91BA
:101C70001F910F91FF90EF90DF900895EF92FF92E8
:101C80000F931F93CF93DF937C018B01C42FD22F2F
:101C90000E948204B8016D0F711D615071094C2FB3
:101CA000C7010E9482044D2FB801C7010E94380D60
:101CB000C7018C0F911D4D2FB8010197DF91CF9176
:101CC0001F910F91FF90EF900C94380D2F923F923F
:101CD0004F925F926F927F928F929F92AF92BF923C
:101CE000CF92DF92EF92FF920F931F93CF93DF93E8
:101CF00000D000D0CDB7DEB78C017C836B83645FEE
:101D00007F4F41E00E94E20C6B817C816C50710935
:101D100041E0C8010E94E20C41E06B817C81C80176
:101D20000C960E94E20C41E06B817C81C8010C970B
:101D30000E94E20C81E090E09A838983D12CC12C2F
:101D40008CE0E82EF12C98EE292E33243A9425EFDE
:101D5000A22EBB24BA949FEFC91AD90A89819A810D
:101D600002969A838983A80EB91E3601600E711EF1
:101D700041E08B809C808E0C9F1CB401C3010E94AB
:101D8000E20C28014C185D0841E0B401C2010E9438
:101D9000E20C41E08B809C808E189F08B401C30147
:101DA0000E94E20C41E0B401C2010E94E20C8B806F
:101DB0009C808C0C9D1C41E0B40138016E0C7F1C92
:101DC000C3010E94E20C41E0B40128014E185F08F3
:101DD000C2010E94E20C8B809C808C189D0841E01F
:101DE000B401C3010E94E20C41E0B401C2010E94AF
:101DF000E20CCE14DF04BCF00F900F900F900F9008
:101E0000DF91CF911F910F91FF90EF90DF90CF90D6
:101E1000BF90AF909F908F907F906F905F904F900A
:101E20003F902F900895B7FC96CF91E0E91AF10802
:101E300082E0280E311CA20CB31C8DCF8F929F9292
:101E4000AF92BF92CF92DF92EF92FF920F931F93C8
:101E5000CF93DF936D3089F0C090CB01D090CC014F
:101E60006A30D1F41092CA011092C90188E0C80EFC
:101E7000D11CD092CC01C092CB0181E090E0DF91E7
:101E8000CF911F910F91FF90EF90DF90CF90BF9077
:101E9000AF909F908F9008950091C9011091CA0151
:101EA000E5E06E9FE0011124C455DF4F4801F12C9D
:101EB000F5E0E12CFF1629F0CE010196FE01E49039
:101EC000EC01B12CA12C4E2D4170B6016A0D7B1D89
:101ED000C4010E94E20CE694FFEFAF1ABF0A88E04B
:101EE000A816B10481F7F394EFEF8E1A9E0AF6E07C
:101EF000FF12DECF0A5F1F4F1093CA010093C90182
:101F0000BCCF9091E401982329F49091E5019823A6
:101F100081E009F480E00895CF93C82F0E94C40C9B
:101F2000C82381E009F080E0CF910895CF93C82FB6
:101F30000E94C40C982F9C2381E09C1380E0CF91D9
:101F4000089580E00C943C042F923F924F925F9250
:101F50006F927F928F929F92AF92BF92CF92DF92B9
:101F6000EF92FF920F931F93CF93DF9300D01F92B6
:101F7000CDB7DEB79B838A837B016A010983890120
:101F8000061B170B17FF03C0119501951109460198
:101F90008A819B81881A990A97FE03C09194819443
:101FA0009108801691065CF49C2D8D2D6901292FD6
:101FB000382F9A818B81FB82EA82E92EF82E8A8162
:101FC0009B81C816D9065CF49E2D8F2D7901292F8F
:101FD000382F9A818B81DB82CA82C92ED82E1601B6
:101FE0008A819B81281A390A29014E185F0857FEF9
:101FF00003C0519441945108310137FE03C09FEF53
:10200000691A790A759467948FEFE216F3060CF457
:1020100081E0A82E880FBB088A819B81C816D9064B
:10202000CCF04981BC01C701801691061CF0B701B4
:102030008A819B810E94E20C6418750877FE04C0B7
:10204000EA0CFB1C620C731C8A819B8101969B83AA
:102050008A83E2CF0F900F900F90DF91CF911F9165
:102060000F91FF90EF90DF90CF90BF90AF909F9037
:102070008F907F906F905F904F903F902F9008953A
:102080006F927F928F929F92AF92BF92CF92DF9288
:10209000EF92FF920F931F93CF93DF93EC016B01AD
:1020A0005A014901380101E00E94A40F9701A301E0
:1020B000B401C5010E94A40F9601AE01B701C3018E
:1020C0000E94A40FDF91CF911F910F91FF90EF908D
:1020D000DF90CF90BF90AF909F908F907F906F9048
:1020E000089580918001882321F01092800180E082
:1020F000089590919D0120918101392F321B30313B
:1021000038F43F3091F091E093BF889513BE089565
:1021100081E08093800190938101ECEBF1E080817C
:10212000918101968083918381E00895FC01428131
:10213000FB01248135814217130611F40C94C10B65
:1021400080E00895EF92FF920F931F93CF93DF9358
:10215000FB012081213871F52381223259F5DC0100
:1021600012964C91248135814217130619F5EC0122
:102170000B851C85F12CE12C0115110589F0F80166
:10218000448155816281738180E80E94B6068F3F49
:10219000980749F0E80EF91ED8010D911C91ECCF7B
:1021A00081E08F87C701DF91CF911F910F91FF9041
:1021B000EF90089590E080E0F6CFCF93DF93CDB716
:1021C000DEB769970FB6F894DEBF0FBECDBFFC0136
:1021D000DB018C918F5F8C939E012D5F3F4F8DE0D3
:1021E000D9011D928A95E9F729E0298384E08A8341
:1021F00091E09D8383E08E832A8721E22B879C8751
:102200009D879F8722E2288B27E02B8B25E02C8B54
:102210008E8B20E430E0388F2F8B998F82818B83D7
:1022200095858685998B8A8B838180688D8B49E122
:1022300050E0BE016F5F7F4F80E00E94B606699656
:102240000FB6F894DEBF0FBECDBFDF91CF910895DA
:10225000CF92DF92EF92FF920F931F93CF93DF9372
:102260006C01EB017B01E40EF51E10E000E0CE15E1
:10227000DF0581F069916D30D1F3D601ED91FC91CC
:102280000190F081E02DC6010995892B19F00F5FAF
:102290001F4FEDCFC801DF91CF911F910F91FF909C
:1022A000EF90DF90CF900895DC01683888F168588E
:1022B00016968C911697861721F117968C91179781
:1022C0008617F9F018968C9118978617D1F0199601
:1022D0008C9119978617A9F01A968C911A978617E0
:1022E00081F01B968C911B97861759F0FD0136964D
:1022F00090E080E0219121114FC08A0F9B1FFC01CB
:102300006683CD0104960E940D0B81E090E0089554
:10231000862F90E067FF12C0FC01E058F10921E030
:1023200030E001C0220FEA95EAF714968C911497D9
:10233000822B14968C93149760E0BACF1C96ED9183
:10234000FC911D97E80FF91F6491611109C081E0AC
:1023500090E013969C938E93129790E080E00895FE
:10236000862F807C803C69F414968C91149780644D
:1023700014968C9314976F73623309F099CF64E6C7
:1023800097CF67FFF9CF14968C91149782601496BB
:102390008C9314976F77F0CF01968630910509F0F2
:1023A000A9CFD5CFEF92FF921F93CF93DF93EC018C
:1023B000162F0E9454117C01E8E7E10F183890F4C1
:1023C000812F90E017FF2AC0FC01E058F10981E05D
:1023D00090E001C0880FEA95EAF780959C818923F7
:1023E0008C83E0E0DE0186E0EE2341F016969C91BE
:1023F0001697E91303C016961C92169781501196F2
:102400008111F2CFCE0104960E940D0BC7019927CE
:10241000DF91CF911F91FF90EF900895EC85FD859E
:10242000E80FF91FE491EE2389F38E2F807C803C26
:1024300041F48C818F7B8C83EF73E23399F6E4E671
:10244000D1CFE7FFFACF8C818D7F8C83EF77F5CFEB
:102450000F931F93CF93DF93C0917F0180917E01F3
:10246000082E000C990BC817190609F45CC060917E
:102470007B0170917C0180917D010E9488086091B0
:1024800081068C2F0E945928D0917E01092F10E0DF
:102490002D2F0D2E000C330B02171307E1F10E94B4
:1024A0007708000F111F2091820630918306020FDA
:1024B000131FF80191838083CF5F20917B013091BE
:1024C0007C0140917D012E5F3F4F4F4F20937B0158
:1024D00030937C0140937D0181309048B1F480912C
:1024E000780190917901A0917A0180937B0190937A
:1024F0007C01A0937D010E945A0860917B0170913C
:102500007C0180917D010E948808DF3F09F0B7CFF0
:1025100010927E01B4CF90937F01DF91CF911F91F4
:102520000F910C945A08DF91CF911F910F9108954C
:1025300080917101811115C020917001E0916E01AF
:10254000F0916F01CF01029690936F0180936E011D
:10255000222321F025913491C901089520813181F0
:10256000FBCF80917E01282F220F330BE091820652
:10257000F0918306E20FF31F208131818F5F082ED7
:10258000000C990B6091810670E00E94792880937D
:102590007E01E2CFE1E7F0E080818D7F80831092C1
:1025A0009100469847981092C1010895CF92DF920A
:1025B000EF92FF92CF93DF930E949812811520E84B
:1025C000920741F4DF91CF91FF90EF90DF90CF9091
:1025D0000C94CA1221E02093C101813020E89207B7
:1025E00051F480916C0190916D0190936F018093F3
:1025F0006E010E94981297FD05C020916B01222365
:1026000009F45BC020916A01211157C021E0209399
:102610007201EC01DF77209709F052C081E08093CE
:10262000730146983FE9C32E3FE0D32EE12CF12CF5
:10263000CAEFD0E0E0918406F091850609958111FA
:1026400003C081E08093730180917201882329F097
:1026500080917301882309F446C047980E9498121C
:10266000009709F444C09C01DE010E944028DC016F
:10267000CB0129E0B595A795979587952A95D1F730
:10268000109290002AE020939100D0929900C0927D
:1026900098008093740190937501A0937601B09394
:1026A000770180917100826080937100DF91CF91FA
:1026B000FF90EF90DF90CF90089510927201A9CF14
:1026C0009E0150E040E060E472E48FE090E00E9400
:1026D000F42769017A0181E0C81AD108E108F108FC
:1026E00010927301A7CF4699B8CF479AB7CF8FEF13
:1026F0009FEFDC01C5CF1092700160937B01709356
:102700007C0180937D0160937801709379018093BF
:102710007A0181E08093710110927F019FEF909385
:102720007E018093C1018091C10181110E94281214
:10273000809171008D7F809371000C94D612EF927E
:10274000FF920F931F93CF93DF93D0E0C0E003E796
:1027500016E0E12C80E8F82E809171008D7F809347
:1027600071001092700110936F0100936E0110932D
:102770006D0100936C01D0937406C09373061092A0
:10278000760610927506F0927806E092770610921F
:1027900071010E94D6122196CF30D105E9F66AE088
:1027A00070E080E090E00E949D0BDF91CF911F913F
:1027B0000F91FF90EF900C94CA12089590E080E082
:1027C0000895FC0101900020E9F73197AF01481B03
:1027D000590BBC0185E696E00C942811CF93DF934A
:1027E000BC0185E696E00E94FA06EC0187E691E0DE
:1027F0000E94E1138C0F9D1FDF91CF9108954F929E
:102800005F926F927F928F929F92AF92BF92CF9280
:10281000DF92EF92FF920F931F93CF93DF93CDB789
:10282000DEB74DB65EB680912B072DB73EB7281B9D
:1028300031090FB6F8943EBF0FBE2DBF8DB79EB7BE
:1028400001963C018090CE06912C8091CA06909111
:10285000CB06D301FC019F01281B390B2815390534
:102860001CF421912D93F7CF8091CF06882359F145
:102870008091C6069091C70628E097FD09C068E6DA
:1028800071E00E9479286DE270E00E947928262F7D
:102890008091C8069091C90668E097FD08C068E677
:1028A00071E00E9479286DE270E00E947928F301BE
:1028B000E80DF91D90E1699FB0011124262B2083BA
:1028C000F40131964F015301A80CB91CC090D606F3
:1028D000D090D706E090D806F090D9060091D206A5
:1028E0001091D3062091D4063091D50640919A06D6
:1028F00050919B0660919C0670919D068091D00638
:1029000081700E94EE05880E991E5301A80CB91C17
:10291000C090DE06D090DF06E090E006F090E10681
:102920000091DA061091DB062091DC063091DD067D
:1029300040919E0650919F066091A0067091A1065D
:102940008091D006869581700E94EE05880E991EB2
:102950005301A80CB91CC090E606D090E706E090A1
:10296000E806F090E9060091E2061091E306209156
:10297000E4063091E5064091A2065091A3066091CD
:10298000A4067091A5068091D00682FB882780F965
:102990000E94EE05880E991E5301A80CB91CC09028
:1029A000EE06D090EF06E090F006F090F106009170
:1029B000EA061091EB062091EC063091ED0640916D
:1029C000A6065091A7066091A8067091A90680916D
:1029D000D00683FB882780F90E94EE05880E991E99
:1029E0005301A80CB91CC090F606D090F706E090F1
:1029F000F806F090F9060091F2061091F306209186
:102A0000F4063091F5064091AA065091AB0660910C
:102A1000AC067091AD068091D006829581700E94BF
:102A2000EE05880E991E5301A80CB91CC090FE0635
:102A3000D090FF06E0900007F09001070091FA06A1
:102A40001091FB062091FC063091FD064091AE06E8
:102A50005091AF066091B0067091B1068091D0069A
:102A600085FB882780F90E94EE05880E991E530188
:102A7000A80CB91CC0900607D0900707E090080783
:102A8000F0900907009102071091030720910407B5
:102A9000309105074091B6065091B7066091B8068F
:102AA0007091B9068091D10681700E94EE05880E62
:102AB000991E5301A80CB91CC0900E07D0900F07A7
:102AC000E0901007F090110700910A0710910B0792
:102AD00020910C0730910D074091B2065091B3063A
:102AE0006091B4067091B5068091D106869581708B
:102AF0000E94EE05880E991E5301A80CB91CC090C7
:102B00001607D0901707E0901807F090190700916A
:102B10001207109113072091140730911507409167
:102B2000BA065091BB066091BC067091BD068091BB
:102B3000D10682FB882780F90E94EE05880E991E37
:102B40005301A80CB91CC0901E07D0901F07E0903D
:102B50002007F090210700911A0710911B07209180
:102B60001C0730911D074091BE065091BF06609131
:102B7000C0067091C1068091D10683FB882780F939
:102B80000E94EE05880D991D5301A80EB91EC09034
:102B90002607D0902707E0902807F090290700919A
:102BA0002207109123072091240730912507409197
:102BB000C2065091C3066091C4067091C50680910B
:102BC000D106829581700E94EE050E948C0C4C010A
:102BD00040912B0780912A0750E05A01FFEFAF1A6E
:102BE000BF0A2DB73EB72A193B090FB6F8943EBF6E
:102BF0000FBE2DBF0DB71EB70F5F1F4FEDB7FEB74E
:102C00008183B301C80101960E94BF29F401838129
:102C1000A501B80180640E94750A0FB6F8945EBEE3
:102C20000FBE4DBEDF91CF911F910F91FF90EF909E
:102C3000DF90CF90BF90AF909F908F907F906F90DC
:102C40005F904F900895282F8091CD062817B8F4F3
:102C5000E091CA06F091CB0681E090E0A0E0B0E000
:102C600004C0880F991FAA1FBB1F2A95D2F7208185
:102C7000822B80838091CC0681110C94FF130895E0
:102C8000282F8091CD062817C0F4E091CA06F09154
:102C9000CB0681E090E0A0E0B0E004C0880F991F6F
:102CA000AA1FBB1F2A95D2F7809590818923808324
:102CB0008091CC0681110C94FF1308956F927F923E
:102CC0008F92EF92FF920F931F93CF93DF931F92F8
:102CD000CDB7DEB73B01882E10E000E0882DB301B0
:102CE000600F711F811D0E94880861E070E0CE01B5
:102CF00001960E946008C80101962981222311F0E3
:102D00008C01ECCF0E949A287C01882DB3010E948F
:102D10008808B801C7010E946008F701E00FF11FA1
:102D20001082E114F10419F0C7010E94E11387E653
:102D300091E00E94E113E114F10469F0C7010F90E2
:102D4000DF91CF911F910F91FF90EF908F907F9027
:102D50006F900C9436290F90DF91CF911F910F91B6
:102D6000FF90EF908F907F906F9008951F920F9239
:102D70000FB60F9211248F939F938091E100909151
:102D8000E100937F9093E10083FF0FC01092E90070
:102D900091E09093EB001092EC0092E39093ED00A1
:102DA0001092E70198E09093F00082FF22C093E038
:102DB0009093E9009091F200992319F09AE390938F
:102DC000E8009091B601992341F09091B60191509D
:102DD0009093B601911101C05D9A9091E6019923FB
:102DE00041F09091E60191509093E601911101C05C
:102DF000289A84FF18C08091E2008E7E81608093C3
:102E0000E2008091E1008F7E8093E1008091B70124
:102E10008E7E80618093B7019F918F910F900FBE3E
:102E20000F901F90189580FFF7CF8091E2008E7E63
:102E300080618093E2008091E1008E7E8093E100CA
:102E40008091B7018E7E8160E5CF1F920F920FB601
:102E50000F921124CF92DF92EF92FF920F931F9364
:102E60002F933F934F935F936F937F938F939F9392
:102E7000AF93BF93EF93FF93CF93DF93CDB7DEB7BD
:102E80006C97DEBFCDBF1092E9008091E80083FF10
:102E900025C068E0CE0145960E94ED0682EF809342
:102EA000E8008D8987FF39C09091E80090FFFCCF42
:102EB000982F907609F034C19E894F89588D2F89BB
:102EC000F88C911131C0803861F58091B801809300
:102ED000F1001092F1008EEF8093E8006C960FB62F
:102EE000F894DEBF0FBECDBFDF91CF91FF91EF9180
:102EF000BF91AF919F918F917F916F915F914F9112
:102F00003F912F911F910F91FF90EF90DF90CF9005
:102F10000F900FBE0F901F9018959EEF9093E800B2
:102F2000C7CF1092F100D5CF913059F48111D3CF92
:102F30004130510581F68091B8018D7F8093B801B1
:102F4000CACF933049F48111C6CF4130510519F6EB
:102F50008091B8018260F2CF953041F48091E80011
:102F600080FFFCCF20682093E300B5CF963009F0B6
:102F7000A9C00B8D1C8D22E01092E9001092B401C3
:102F80001092B301F2122EC01092B2011092B10150
:102F90000E945F071F8299E09983FA8291E09E83E5
:102FA00090EA98879AEF99872091B3013091B40104
:102FB000275F3F4F3C832B838D831092E900109253
:102FC000B4011092B3011093B2010093B10149E032
:102FD00050E0BE016F5F7F4F80E00E94B6060E9406
:102FE0005F0779CF1093B2010093B1010E944B07A4
:102FF000DC0112960D911C910115110509F451C1C6
:10300000D801ED91FC910480F581E02DBE016B5E4D
:103010007F4FC8010995009709F03EC1F80100856E
:103020001185EACFF3E0FF120EC08F89882309F4DF
:1030300040C0823061F440E867E080E196E00E94A1
:10304000021A811148CF81E28093EB0047CF813093
:1030500029F440E86BE084E096E0F1CF833099F703
:103060000E944B07DC011296ED90FC908E010F5FE1
:103070001F4F6801E114F10479F0D701ED91FC9143
:103080000680F781E02DB801C7010995080F111DD1
:10309000F701E084F184EECFD8011C92F601019093
:1030A0000020E9F73197BF016C197D0940E0C601A6
:1030B000C6CF6EEE75E0FB01449150E080E80E94BF
:1030C000B60609CF973009F4BECF983021F481E0DD
:1030D0008093F10000CF993009F0FDCE837009F0A4
:1030E000B2CFE1E0F1E081E031E096E321912223EB
:1030F00071F08093E9003093EB00DF0111972C9180
:103100002093EC009093ED008F5F873079F78EE786
:103110008093EA001092EA008F898093E701DBCE6A
:103120008B8D9C8D1092E9001092B4011092B30126
:103130009093B2018093B101898D811192C08E89E3
:103140009D89913A49F4813209F07DCF47E050E002
:103150006BE071E080E0B3CF913209F074CF83323D
:1031600069F48F89988DB0E0A0E080930701909377
:103170000801A0930901B0930A01ADCE803269F431
:103180008091E80082FFFCCF67E08BE091E00E9435
:10319000ED068BEF8093E8009ECE823209F09BCE45
:1031A0008F8980931201EEEFFFE7859194918B3F19
:1031B0009C4D51F1E0E0F8E080910B0190910C0101
:1031C000A0910D01B0910E01803B9440A105B10585
:1031D000F1F48091120180FD1AC0EE3F8AE0F807F9
:1031E00089F587E797E791838083809160008093DA
:1031F000B50188E19BE00FB6F894A8958093600034
:103200000FBE9093600067CEEEEFFAE0D5CF8081DD
:1032100091818737974709F05ECEA895809160002D
:103220008861809360008091B50180936000EE3FDB
:103230002AE0F20789F08091FE0A9091FF0A9183BB
:10324000808349CE808191818737980751F290938E
:10325000FF0A8093FE0AC5CF1092FF0A1092FE0A61
:103260003ACE0E944B07DC0112960D911C9101157C
:10327000110509F4E8CED801ED91FC910190F0819F
:10328000E02DBE016B5E7F4FC8010995811123CEF1
:10329000F80100851185EBCF181619060CF41BCE2A
:1032A000D2CEF1E0FF12BECE62EF75E004CF0F92F6
:1032B0000FB68F939F93EF93FF9380919C018D5F47
:1032C0008D3708F08D5780939C01EDE9F1E0808106
:1032D0008E4F808391819F4F918382818F4F828314
:1032E00083818F4F8383E1EAF1E080818F5F808368
:1032F00081818F4F818382818F4F828383818F4F22
:1033000083838FB18F6066991C9B88278F3681F4E9
:1033100080919B01981B963068F0E0E0F8E087E729
:103320008083818388E180936000F0936000FFCF09
:1033300090939B01FF91EF919F918F910FBE0F9002
:1033400018951F920F920FB60F9211242F933F934F
:103350004F935F936F937F938F939F93AF93BF939D
:10336000EF93FF938091740190917501A091760184
:10337000B0917701892B8A2B8B2B09F440C0809167
:10338000730181110BC088B190E4892788B98091BD
:103390007201882319F088B1805888B9809174012E
:1033A00090917501A0917601B091770118161906D8
:1033B0001A061B069CF48091740190917501A091EE
:1033C0007601B09177010197A109B1098093740149
:1033D00090937501A0937601B0937701FF91EF91DF
:1033E000BF91AF919F918F917F916F915F914F911D
:1033F0003F912F910F900FBE0F901F9018950E9434
:10340000D612ECCFEF92FF920F931F93CF93DF93DF
:10341000F82E192FE62E042F81E0860F880F0E94C8
:10342000880683E00E948806CF2DD12FEC0EFD2E5A
:10343000F11CCE15DF05B9F007FF13C0FE01849122
:103440000E948806182F80E00E948806812321961A
:103450008111EFCFDF91CF911F910F91FF90EF90EE
:1034600008958881EDCF81E0F5CFEF92FF920F9321
:103470001F93CF93DF93CDB7DEB7C659D1090FB6EF
:10348000F894DEBF0FBECDBF1092F1051092F0058B
:1034900088EE93E0A0E0B0E08093F2059093F3050E
:1034A000A093F405B093F50585E391E09093EF05C3
:1034B0008093EE058FEF9FEF9093FB058093FA05C5
:1034C000109268061092670683E591E09093660675
:1034D0008093650680915D06811113C01092580695
:1034E000109257068CEE97E090935A0680935906F7
:1034F0008FE290E090935C0680935B0681E080937E
:103500005D0680914F0681112CC011E01093420698
:103510001093430688E496E0909345068093440612
:10352000109247061092460687E491E090933F067A
:1035300080933E0610924A061092490610924C065D
:1035400010924B0610934D0610934E0681EC80931B
:1035500048060E944B076EE376E00E9490071093A6
:103560004F06E0914906F0914A06309709F0F9C1FB
:1035700087E596E090934A068093490680914B0632
:1035800090914C0620915B0630915C06820F931F50
:1035900090934C0680934B068CE697E090937206CE
:1035A000809371061092CB061092CA061092CE0636
:1035B0001092D2061092D3061092D4061092D5061D
:1035C0008FEF93E0A0E0B0E08093D6069093D7060B
:1035D000A093D806B093D9061092DA061092DB06B3
:1035E0001092DC061092DD068093DE069093DF06D3
:1035F000A093E006B093E1061092E2061092E30673
:103600001092E4061092E5068093E6069093E70692
:10361000A093E806B093E9061092EA061092EB0632
:103620001092EC061092ED068093EE069093EF0652
:10363000A093F006B093F1061092F2061092F306F2
:103640001092F4061092F5068093F6069093F70612
:10365000A093F806B093F9061092FA061092FB06B2
:103660001092FC061092FD068093FE069093FF06D2
:10367000A0930007B093010710920207109203076E
:10368000109204071092050780930607909307078E
:10369000A0930807B093090710920A0710920B072E
:1036A00010920C0710920D0780930E0790930F074E
:1036B000A0931007B09311071092120710921307EE
:1036C000109214071092150780931607909317070E
:1036D000A0931807B093190710921A0710921B07AE
:1036E00010921C0710921D0780931E0790931F07CE
:1036F000A0932007B093210710922207109223076E
:10370000109224071092250780932607909327078D
:10371000A0932807B093290733E030932A0744E0A9
:103720004093CD061092CF063093D0061092D1066A
:1037300025E0298381E08A8399E09B832C83F1EA49
:10374000FD838E8355E85F83388729879A8759E1FF
:103750005B878C8759E25D874E87A5E1AF87188A22
:1037600055E2598B8A8BE5E7EB8B8C8B75E97D8B6A
:103770004E8B55E55F8B188E55E6598F1A8E61E892
:103780006B8F52E05C8FED8F8E8F7F8F48A369A384
:103790003AA32BA38CA39DA38EA3AFA318A687E265
:1037A00089A78FEF8AA78BA71CA61DA6EEA780E18D
:1037B0008FA778AB59ABFAAB1BAA9CAB80E38DAB60
:1037C0009EAB81E38FAB68AF59AF80EC8AAF8BAF14
:1037D0008BE390E00E949A287C018BE3FE013196F6
:1037E000D70101900D928A95E1F787E090E00E9461
:1037F0009A288C01DC0111961C921E921396FC9261
:10380000EE9212978BE390E015969C938E9314970B
:1038100016961C920E948C0CFC01A385B48510970F
:1038200009F0A9C01487038785859685D801149669
:103830002D913C91820F931F968785879091CD069D
:10384000892F869586958695977009F09CC0809300
:10385000CE061091CE06812F90E00E949A28909378
:10386000CB068093CA0681E09091CF06911101C0EA
:1038700080E01C5F810F80932B0710929A061092B4
:103880009B0610929C0610929D0610929E06109226
:103890009F061092A0061092A1061092A206109206
:1038A000A3061092A4061092A5061092A6061092E6
:1038B000A7061092A8061092A9061092AA061092C6
:1038C000AB061092AC061092AD061092AE061092A6
:1038D000AF061092B0061092B1061092B206109286
:1038E000B3061092B4061092B5061092B606109266
:1038F000B7061092B8061092B9061092BA06109246
:10390000BB061092BC061092BD061092BE06109225
:10391000BF061092C0061092C1061092C206109205
:10392000C3061092C4061092C5068FEF9FEF9093C6
:10393000C7068093C6069093C9068093C80690E098
:1039400080E02091CE0628171906F9F0F4F0E091F6
:10395000CA06F091CB06E80FF91F10820196F1CF4D
:10396000FC01808191810097D9F787E596E09183EA
:10397000808304CEDC018D919C9111970097D1F743
:103980000D931C9351CF8F5F62CF109299061092C6
:1039900098068FE591E0909397068093960689E3C9
:1039A00094E0909385068093840686E896E0909351
:1039B00083068093820688E08093810680E090E809
:1039C0009093800680937F0646983E9A47983F9A48
:1039D000CA56DF4F0FB6F894DEBF0FBECDBFDF91E2
:1039E000CF911F910F91FF90EF900895789483E00D
:1039F00084BD83E085BD81E080936E00E1E8F0E066
:103A000083E08083E0E881E08083E1E983E08083F4
:103A1000E0E981E08083E1EC87E08083E3EC81E012
:103A20008083E0EC82E08083E2EC81E08083EAE75F
:103A300087E08083806880831092E7011092B8014C
:103A40001092B7018091D70081608093D70080EAFF
:103A50008093D80089B5806189BD89B5826089BDB0
:103A600009B400FEFDCF81E090E00E94610A8091E0
:103A7000D8008F7C80618093D8008091E000807FA7
:103A80008093E0008091E1008E7E8093E1008DE0E4
:103A90008093E200559A209A81EC80937C0081EF1C
:103AA00085B987EE84B982E38BB982EF8AB9769AB9
:103AB0006E9880EF81BB10BA80E58CBD81E08DBD32
:103AC00085E00E94C10C5F9A85E00E94C10C5C9861
:103AD000E8ECF6E085918EBD00000DB407FEFDCF49
:103AE000E53DC1F75C9A81E88093640081E08093B2
:103AF00065000E94A10F80E80E94960F8823A9F01C
:103B00005C9885EA8EBD00000DB407FEFDCF5C9A7F
:103B10002E982F982D988091640080628093640085
:103B200081E083BF889513BEFCCF84E00E94960F8E
:103B30008823B9F12D9884E80E94960F8823A1F07C
:103B40002D9A88EC0E94C10C2F986FEF82E090E0D4
:103B50000E94E22784EF91E00E94610A2F9A84E894
:103B60000E94960F8111FBCF84E10E94960F88235B
:103B7000A1F02D9A88EC0E94C10C2E9860E082E0A2
:103B800090E00E94E22784EF91E00E94610A2E9A61
:103B900084E10E94960F8111FBCF88EC0E94C10C3A
:103BA000C4CF2D9A82E090E00E94DA27882309F49E
:103BB000D5C03E9A3F9A81E08093B90181E090E0C0
:103BC0000E94DA27182F147081FF0CC011112E9853
:103BD000C1EFDFEF80E40E94960F882309F4C3C091
:103BE0002E9A2F9A82E30E94C10C0E94C40C81116C
:103BF000F9CF5E9A5E9AE4E1F0E085EE9FEF2591C1
:103C00003591559145912851354909F4CA01809360
:103C1000BA019093BB0159988BEA0E945A0A599AAB
:103C2000109218011092170180E890E090931A0109
:103C300080931901E6E2F7E02491E7E0F7E0849150
:103C40008823C1F090E0880F991FFC01ED51F94FD6
:103C5000C591D491FC01EB52F94FA591B4919FB756
:103C6000F8948881E22FE0958E2388838C91E82355
:103C7000EC939FBF8FEF9FEF9093FB058093FA0526
:103C800081E08093CC060E94FF134FEF5FEFBA01F3
:103C90004093D2065093D3066093D4067093D50612
:103CA00081E090E0A0E0B0E08093D6069093D70644
:103CB000A093D806B093D9064093DA065093DB065A
:103CC0006093DC067093DD068093DE069093DF063A
:103CD000A093E006B093E1068CE697E0909372061D
:103CE0008093710688EC882E912CA12CB12CC5E014
:103CF000D0E09EEFC92EDD24DA9408E0202E312C8E
:103D00000E947110882319F18091E5018093E401EC
:103D10000E94C40C8093E5018091E301813009F495
:103D200017C108F4B9C0823009F47DC584E00E944F
:103D3000810F882339F08091E301823019F02E98A9
:103D40002F982D985E9881E00E943C045E9A80E056
:103D500090E0892BA9F20E940000CFCF1092B90108
:103D60003E983F982BCF112329F0C430D10511F490
:103D70002E9A2F9881E00E943C040C2F0770A02EF1
:103D8000AE0163E0559547956A95E1F79A0136953E
:103D9000322F22273795279522513E4F70E060E061
:103DA0004E3F8FEF580761F190E080E0DB01A85EA5
:103DB000B94F7901E0E8EE0EF11CFD01E80FF91FA3
:103DC000E491F0E04F010A2C02C0880C991C0A947F
:103DD000E2F74F3F540739F06901C80ED91EF601CA
:103DE000B488B828B48AAA2039F06701C80ED91E51
:103DF000F60104890929048B019688359105E9F6B5
:103E00004F5F5F4F20583F4F685A7F4F603B7105AF
:103E100039F60E94A10F8FE00E94C10C2196C93192
:103E2000D10509F0D7CE112311F02F9A2D9880E9F2
:103E300091E00E94610A2D9A81E090E00E94DA27C9
:103E400080FFD0CE8AE090E00E94DA279FEF980FA3
:103E50009E3F08F0C7CE22E330E03093CA012093A2
:103E6000C90128E330E03093CC012093CB01CAE0B4
:103E7000D0E0682F86E996E00E941E0F2196CE01C1
:103E80000E94DA27C031D105A1F70E94A10F88EE68
:103E900093E00E94610AA6CE1091BE01E12C012F91
:103EA00020E030E040E070E060E08DE290E00E94D1
:103EB000A7088091BC019091BD016CE070E00E9468
:103EC0006528892B59F4173008F03FC01F5F109305
:103ED000BE018091C8018F5F8093C80110921401C8
:103EE000109213010CE110E01093160100931501DC
:103EF0006CEB7EE080E00E94940864E676E180E06E
:103F00000E94E40985E590E09093140180931301E9
:103F1000109316010093150162E776E180E00E949C
:103F2000E40988E00E94810F882331F02E9A2F9AAD
:103F30002D9A81E08093E3018091C801853109F0D9
:103F4000F5CE81E08093E301F1CE1092BE01C6CFA1
:103F50008091C70181111DC116E0E12EF12CF09274
:103F60001801E092170100E810E010931A01009385
:103F700019016CE47CE080E00E949408F092140146
:103F8000E0921301109216011092150169E776E193
:103F900080E00E94E4091092C60180E490E09093D2
:103FA000140180931301D0931601C09315019093CF
:103FB00018018093170110931A01009319011091B1
:103FC000C501113009F4D7C008F4CCC0123009F48F
:103FD000D9C080E10E94810F882329F0123018F4A3
:103FE0001F5F1093C50180E80E94810F882339F07C
:103FF0008091C501882319F081508093C50160919B
:10400000C4016450770B24E044E090E080E00E941B
:104010001F0E8091C701833009F02EC38091C1012A
:1040200081110E942812D0931401C09313011092A1
:104030001601109215016CEB7EE080E00E9494085E
:104040006CE777E180E00E94E409D0931401C0930B
:1040500013018CE090E090931601809315016BE8BA
:1040600077E180E00E94E4098091C201882309F48D
:10407000B7C2813009F4BDC263E577E086E996E016
:104080000E94FA06E12C00E024EC37E040E06AE010
:1040900070E08EE590E00E94A7088EE590E0909396
:1040A0001C0180931B0180911B0190911C018E3794
:1040B00091050CF0A9C2809164008E7F809364000A
:1040C000EBE4F7E0849120917B00982F990F990FF2
:1040D00090722F7D922B90937B00877080648093E9
:1040E0007C0080917A00806480937A0080917A00CD
:1040F00086FDFCCF90917800A091790080916400BA
:10410000816080936400BA2FA92F2BE130E00E94D8
:104110008D28A50194010E94F42729013A01FFE0AE
:104120004F0E511C611C711C50921E0140921D01CA
:10413000E0901B01F0901C016091BF017091C001E3
:1041400001E09201A701C7010E94A40F5092C00193
:104150004092BF010FEFE01AF00AF0921C01E092CA
:104160001B01A1CF8AE08093C40160EA76E180E080
:104170000E94E4092ECF84E18093C40168ED76E1CA
:1041800080E0F6CF8EE18093C40166E077E180E0C5
:10419000EFCF823061F4E12C00E028E438E040E029
:1041A00064EF7FEF90E080E00E94A70832CF81307B
:1041B00009F02FCF109214011092130110921601E2
:1041C000109215016CEB7EE080E00E9494088091D3
:1041D000C301823009F4C2C108F07CC1882309F40C
:1041E00097C1813009F4A6C165E577E086E996E0DC
:1041F0000E94FA0680E10E94810F882339F08091A5
:10420000C301853018F48F5F8093C30180E80E945A
:10421000810F882339F08091C301882319F08150E0
:104220008093C30188E00E94810F882309F4F1CEB6
:104230008091C30181116EC00E949F1368E873E1F1
:1042400080E090E00E949D0B63E885E696E00E9486
:10425000541162E785E696E00E94541164E670E02E
:1042600080E090E00E949D0B0E94620B6CED75E077
:1042700080E090E00E949D0B60E978E180E00E9480
:104280005E1664E670E080E090E00E949D0B60EBBB
:1042900085E696E00E94541164E670E080E090E0CC
:1042A0000E949D0B0E94620B60EA7FE080E090E03C
:1042B0000E949D0B6BE978E180E00E945E1660ED44
:1042C00077E080E090E00E949D0B60EC78E180E078
:1042D0000E945E1660ED77E080E090E00E949D0B0A
:1042E00062E377E085E696E00E94FA066EEF78E1F9
:1042F00080E00E945E168FE297E00E94EE1360ED70
:1043000077E080E090E00E949D0B6BE878E180E030
:104310000E945E168091C301813009F099C068E85F
:1043200073E180E090E00E949D0B62E885E696E0F4
:104330000E94541163EC85E696E00E94541164E6F5
:1043400070E080E090E00E949D0B0E94620B6CED9B
:1043500075E080E090E00E949D0B85E997E10E9466
:10436000E11360EB85E696E00E9454110E94620B17
:1043700068EB7BE080E090E00E949D0B64EA77E1CF
:1043800080E00E945E1660ED77E080E090E00E94A1
:104390009D0B60EB77E180E00E945E1660ED77E0B8
:1043A00080E090E00E949D0B65EC77E180E00E9448
:1043B0005E1660ED77E080E090E00E949D0B66ED78
:1043C00077E180E00E945E1660ED77E080E090E0AB
:1043D0000E949D0B66EE77E180E00E945E1660ED24
:1043E00077E080E090E00E949D0B6EE278E180E053
:1043F0000E945E1660ED77E080E090E00E949D0BE9
:1044000060E885E696E00E94541168E785E696E04C
:104410000E94541164E670E080E090E00E949D0BE1
:104420000E94620B60ED77E080E090E00E949D0BBF
:1044300069E878E180E00E945E1668EB7BE080E04E
:1044400090E00E949D0B6BE878E180E00E945E1690
:104450001091C301123021F40E949F131093E301C5
:104460008091C301833069F40E949F1363E885E65D
:1044700096E00E94541181E497E00E94EE130E949E
:10448000620B8091C301843069F40E949F1363E83A
:1044900085E696E00E94541183E497E00E94EE13B3
:1044A0000E94620B8091C301853009F0B2CD0E9459
:1044B0009F1360E885E696E00E94541162E885E665
:1044C00096E00E94541185E497E00E94EE130E944A
:1044D000620B9FCD843009F46DC008F455C085305F
:1044E00009F082CED0931401C0931301E8E2F0E00A
:1044F000F0931601E0931501D092CA01C092C90150
:10450000F093CC01E093CB016BE677E180E00FC044
:10451000D0931401C0931301D092CA01C092C90173
:104520001092CC011092CB016CE177E180E00E9407
:10453000E4095ACED0931401C093130130921601AE
:1045400020921501D092CA01C092C9013092CC01CB
:104550002092CB016DE277E180E0E9CFD0931401A6
:10456000C093130180E190E09093160180931501B0
:10457000D092CA01C092C9019093CC018093CB0123
:104580006EE377E180E0D3CFD0931401C0931301A1
:10459000E8E1F0E0F0931601E0931501D092CA0132
:1045A000C092C901F093CC01E093CB016EE477E1B6
:1045B00080E0BDCFD0931401C093130180E290E05E
:1045C0009093160180931501D092CA01C092C9013F
:1045D0009093CC018093CB016BE577E180E0A7CF8E
:1045E000D092CA01C092C9011092CC011092CB01A5
:1045F00043CDD092CA01C092C9018AE090E0909365
:10460000CC018093CB0138CD80E10E94810F8823BB
:1046100039F08091C201811103C081E08093C20111
:1046200080E80E94810F882339F08091C20188239D
:1046300019F081508093C20188E00E94810F882385
:1046400059F08091C201811107C08091C101882376
:1046500009F486C00E94CA1288E00E94810F882354
:1046600059F08091C201813039F48091C1018823D1
:1046700009F47CC00E94CA121092CA011092C901AA
:1046800088E390E09093CC018093CB0167E577E0DD
:1046900086E996E00E94FA0601E024E330E040E873
:1046A00050E064E370E090E080E00E94A40F20E41A
:1046B00030E042E250E064E370E082E290E00E9489
:1046C000A40F20E430E040E450E064E370E080E4D4
:1046D00090E00E94A40F20E430E04EE550E064E357
:1046E00070E08EE590E00E94A40F84E00E94960F97
:1046F000882321F01092C8011092E3011091C701A4
:1047000011113AC001E023E330E043E250E063E3FB
:1047100070E090E080E00E94A40F20E430E043E2EB
:1047200050E063E370E083E290E00E94A40F80E435
:104730000E94810F882329F0133018F41F5F109313
:10474000C70180E20E94810F882309F4EFCA80919B
:10475000C701882309F4EACA81508093C701E6CAD9
:1047600060EC74E180E00E947B1376CF6EE175E12E
:1047700080E00E947B1380CF1130F1F401E023E34D
:1047800030E041E450E063E370E081E290E00E94B9
:10479000A40F21E430E041E250E063E370E081E205
:1047A00090E00E94A40F20E430E041E450E063E395
:1047B00070E081E490E0B9CF1230F1F401E020E440
:1047C00030E04FE350E063E370E08FE390E00E945D
:1047D000A40F23E330E04FE550E063E370E08FE3A4
:1047E00090E00E94A40F20E430E04FE550E063E346
:1047F00070E08FE590E099CF133009F098CF01E099
:1048000020E430E04DE550E063E370E08DE590E0BA
:104810000E94A40F23E330E040E850E063E370E03F
:104820008DE590E082CF0E94B50B0091DF011091E1
:10483000E0012091E1013091E201061717072807F6
:10484000390708F0DCC08091DE01811104C080913D
:10485000DD01882351F082E00E94401683E00E942F
:1048600040161092DD011092DE0180E80E94960F42
:10487000882359F080E10E948C0F882331F08FEF5C
:104880009FEF9093DC018093DB0180E80E948C0F06
:10489000882349F080E10E948C0F882321F0109238
:1048A000DC011092DB0180E10E94960F882359F011
:1048B00080E80E948C0F882331F081E090E0909393
:1048C000DC018093DB0180E10E94960F8111F8C02A
:1048D0001092D7011092D8011092D9011092DA01EA
:1048E00080E20E94960F882359F080E40E948C0F8A
:1048F000882331F08FEF9FEF9093D6018093D501FD
:1049000080E20E948C0F882349F080E40E948C0F83
:10491000882321F01092D6011092D50180E40E94E4
:10492000960F882359F080E20E948C0F882331F083
:1049300081E090E09093D6018093D50180E40E94BD
:10494000960F8111FCC01092D1011092D2011092E9
:10495000D3011092D40188E00E94960F882309F4B5
:104960002DC180E00E94231684E00E94960F8823C8
:1049700009F428C181E00E9423160091DB01109107
:10498000DC018091CF019091D00108171907B1F097
:10499000C801012E000CAA0BBB0B80939E069093BE
:1049A0009F06A093A006B093A1068091CC0681112A
:1049B0000E94FF131093D0010093CF010091D50105
:1049C0001091D6018091CD019091CE010817190761
:1049D000B1F0C801012E000CAA0BBB0B80939A0604
:1049E00090939B06A0939C06B0939D068091CC0665
:1049F00081110E94FF131093CE010093CD0180918D
:104A0000DD01882339F08091DE01882319F081E0EF
:104A10008093E3010E947110811176C2982FEEEE0F
:104A2000F1E091119FEF8FEF919391939193919377
:104A30008150D0F71092CC011092CB011092CA0194
:104A40001092C9018091D5019091D601009709F487
:104A5000BDC08130910509F438C1019609F0F9C053
:104A6000E5E2EE2EF12C02E110E029E130E04EE12A
:104A700050E06DE070E082E190E00E94880429E15E
:104A80004CE06DE070E087E090E00E941F0EF9E1DD
:104A9000EF2EF12C02E210E025E230E04EE250E091
:104AA0006DE070E08EE290E00E94401029E14CE061
:104AB0006DE070E08EE290E00E943E0E00E0BFC02C
:104AC00080E80E94960F882309F402CF4090D70116
:104AD0005090D8016090D9017090DA0141145104CE
:104AE0006104710459F40E94B50B6093D70170936F
:104AF000D8018093D9019093DA01F2CE0E94B50BD0
:104B000064197509860997096D327140810591050F
:104B100008F4E6CE0E94B50B68517C4F8F4F9F4F33
:104B20006093DF017093E0018093E1019093E201D3
:104B300083E00E94231681E08093DE01D1CE80E2E3
:104B40000E94960F882309F4FECE4090D101509028
:104B5000D2016090D3017090D401411451046104DA
:104B6000710459F40E94B50B6093D1017093D20186
:104B70008093D3019093D401EECE0E94B50B6419BB
:104B80007509860997096D3271408105910508F410
:104B9000E2CE0E94B50B68517C4F8F4F9F4F6093C0
:104BA000DF017093E0018093E1019093E20182E0E4
:104BB0000E94231681E08093DD01CDCE80E00E942B
:104BC0004016D2CE81E00E944016D7CEA5E2EA2E52
:104BD000F12C02E110E029E130E04EE150E06DE01F
:104BE00070E082E190E00E94401029E14CE06DE02D
:104BF00070E087E090E00E943E0EB9E1EB2EF12CD0
:104C000002E210E025E230E04EE250E06DE070E0BC
:104C10008EE290E00E94401029E14CE06DE070E0EF
:104C20008EE290E00E943E0E00E024E230E042E19D
:104C300050E06EE070E082E190E00E94A40F24E278
:104C400030E04EE250E06EE070E08EE290E00E94D4
:104C5000A40F8091DB019091DC01009709F46DC0F5
:104C60008130910509F458C1019609F0A7C02BE0E5
:104C7000E22EF12C04E110E02BE030E04CE250E0B9
:104C800067E170E080E290E00E9488042CE049E156
:104C900070E060E084E190E00E941F0E37E2E32EB6
:104CA000F12C27E230E04CE250E06BE170E080E272
:104CB00090E00E9440102CE049E167E270E084E15E
:104CC00090E00E943E0E00E06FC065E2E62EF12CFF
:104CD00002E110E029E130E04EE150E06DE070E0EB
:104CE00082E190E00E94401029E14CE06DE070E02C
:104CF00087E090E00E943E0E79E1E72EF12C02E27F
:104D000010E025E230E04EE250E06DE070E08EE22F
:104D100090E00E94880429E14CE06DE070E08EE2B2
:104D200090E00E941F0E00E024E230E042E150E0FB
:104D30006EE070E082E190E08ACF4BE0E42EF12C4F
:104D400004E110E02BE030E04CE250E067E170E07D
:104D500080E290E00E9440102CE049E170E060E0C9
:104D600084E190E00E943E0E57E2E52EF12C27E20E
:104D700030E04CE250E06BE170E080E290E00E94B5
:104D800040102CE049E167E270E084E190E00E948D
:104D90003E0E00E02BE030E045E150E06BE070E0DB
:104DA0008BE290E00E94A40F27E230E04BE250E05B
:104DB00067E270E085E190E00E94A40F88E00E9425
:104DC000960F882309F4DEC049E162E170E088E5CE
:104DD00090E00E94380D10E000E023E04CE06EE12E
:104DE00070E088E590E00E949C0D84E00E94960FA0
:104DF000882309F4CEC049E16CE070E083E790E0DD
:104E00000E94380D10E000E023E04CE068E170E023
:104E100083E790E00E949C0D8091DD01882309F4D6
:104E2000BFC028E042E168E370E089E290E00E94C0
:104E30001F0E05E010E021E041E069E370E08AE345
:104E400090E00E949C0D22E041E069E370E089E27D
:104E500090E00E949C0D8091DE01882309F4A5C09A
:104E600028E042E168E370E085E490E00E941F0ED4
:104E700005E010E021E041E069E370E086E590E0C4
:104E80000E949C0D22E041E069E370E085E490E03F
:104E90000E949C0D40E070E060E084E190E00E94A0
:104EA000CC0C40E070E060E08CE290E00E94CC0C22
:104EB00040E062E370E084E190E00E94CC0C40E0CE
:104EC00062E370E08CE290E00E94CC0C40E06DE088
:104ED00070E087E090E00E94CC0C40E065E270E07A
:104EE00087E090E00E94CC0C40E06DE070E089E348
:104EF00090E00E94CC0C40E065E270E089E390E035
:104F00000E94CC0C0E94A10F6AE070E080E090E06B
:104F10000E949D0B0C94961E8BE0E82EF12C04E170
:104F200010E02BE030E04CE250E067E170E080E21E
:104F300090E00E9440102CE049E170E060E084E1E4
:104F400090E00E943E0E97E2E92EF12C27E230E03D
:104F50004CE250E06BE170E080E290E00E94880457
:104F60002CE049E167E270E084E190E00E941F0ECE
:104F700000E02BE030E045E150E06BE070E08BE2D8
:104F800090E01ACF6EE170E088E590E00E94660E36
:104F90002CCF68E170E083E790E00E94660E3CCF82
:104FA00088E290E00E945E0D56CF84E490E00E947B
:104FB0005E0D70CFF999FECF92BD81BDF89A992709
:104FC00080B50895262FF999FECF92BD81BDF89A3C
:104FD000019700B4021639F01FBA20BD0FB6F8943D
:104FE000FA9AF99A0FBE0895052E97FB1EF40094C5
:104FF0000E940B2857FD07D00E941E2807FC03D0F3
:105000004EF40C940B2850954095309521953F4FC8
:105010004F4F5F4F089590958095709561957F4FA4
:105020008F4F9F4F08950E944028A59F900DB49FD9
:10503000900DA49F800D911D11240895A1E21A2EB8
:10504000AA1BBB1BFD010DC0AA1FBB1FEE1FFF1F2C
:10505000A217B307E407F50720F0A21BB30BE40B7C
:10506000F50B661F771F881F991F1A9469F76095C3
:105070007095809590959B01AC01BD01CF0108957D
:10508000A29FB001B39FC001A39F700D811D112489
:10509000911DB29F700D811D1124911D0895DB019A
:1050A000582F0E944028529F800DA49F800D1124EC
:1050B0000895991B79E004C0991F961708F0961B74
:1050C000881F7A95C9F780950895AA1BBB1B51E1EB
:1050D00007C0AA1FBB1FA617B70710F0A61BB70B68
:1050E000881F991F5A95A9F780959095BC01CD010D
:1050F000089597FB072E16F4009407D077FD09D08A
:105100000E94652807FC05D03EF4909581959F4F3D
:105110000895709561957F4F08950E944028B7FFCC
:105120000895821B930B0895EE0FFF1F0590F491D5
:10513000E02D09940F931F93CF93DF938230910555
:1051400010F482E090E0E0912E07F0912F0730E01C
:1051500020E0B0E0A0E0309799F42115310509F482
:105160004AC0281B390B24303105D8F58A819B8130
:105170006115710589F1FB0193838283FE0111C0E2
:10518000408151810281138148175907E0F0481787
:10519000590799F4109761F012960C931297139691
:1051A0001C933296CF01DF91CF911F910F910895FB
:1051B00000932E0710932F07F4CF2115310551F0DE
:1051C0004217530738F0A901DB019A01BD01DF0145
:1051D000F801C1CFEF01F9CF90932F0780932E07ED
:1051E000CDCFFE01E20FF31F81939193225031093D
:1051F00039832883D7CF20912C0730912D07232B7B
:1052000041F4209121013091220130932D07209308
:105210002C0720911F01309120012115310541F407
:105220002DB73EB74091230150912401241B350B2B
:10523000E0912C07F0912D07E217F307A0F42E1B45
:105240003F0B2817390778F0AC014E5F5F4F2417EA
:10525000350748F04E0F5F1F50932D0740932C07E2
:10526000819391939FCFF0E0E0E09CCFCF93DF93C9
:105270000097E9F0FC01329713821282A0912E0769
:10528000B0912F07ED0130E020E01097A1F42081CC
:105290003181820F931F20912C0730912D07281701
:1052A000390709F061C0F0932D07E0932C07DF91D7
:1052B000CF910895EA01CE17DF07E8F54A815B81B7
:1052C0009E0141155105B1F7E901FB83EA8349913C
:1052D0005991C40FD51FEC17FD0761F480819181AE
:1052E0000296840F951FE9019983888382819381B7
:1052F0009B838A83F0E0E0E012968D919C91139756
:105300000097B9F52D913C911197CD010296820F2E
:10531000931F20912C0730912D072817390739F654
:10532000309751F510922F0710922E07B0932D074A
:10533000A0932C07BCCFD383C28340815181840FBB
:10534000951FC817D90761F44E5F5F4F8881998117
:10535000480F591F518340838A819B8193838283A5
:105360002115310509F0B0CFF0932F07E0932E07F8
:105370009ECFFD01DC01C0CF13821282D7CFFB018B
:10538000DC0102C001900D9241505040D8F70895C1
:04539000F894FFCFBF
:1053940000C18081000000FFFFFFFF00E10000006A
:1053A4000000000000000000008000400000000039
:1053B400003007800000000000DC0B410C030CE807
:1053C4000B00000000D8076F0BF907EE074008FE3A
:1053D400071C08000000009610DD10A210E80B0066
:1053E400000000D2112811DE13DD13000000001E9E
:0A53F4000F1E07DE13DD130D0A0083
:00000001FF
