:020000040000FA
:100000000C947A040C94A2040C94A2040C94A20400
:100010000C94A2040C94A2040C94A2040C94A204C8
:100020000C94A2040C94A2040C94F0180C945F1984
:100030000C94A2040C94A2040C94A2040C94A204A8
:100040000C94A2040C943B1C0C94A2040C94A204E7
:100050000C94A2040C94A2040C94A2040C94911B82
:100060000C94A2040C94A2040C94A2040C94A20478
:100070000C94A2040C94A2040C94A2040C94A20468
:100080000C94DB1B0C94A2040C94A2040C94A20408
:100090000C94A2040C94A2040C94A2040C94A20448
:1000A0000C94A2040C94A2040C94A2040601150161
:1000B000260137014A015D01720188019F01B801E3
:1000C000D201EE010B022A024B026E029302BA0227
:1000D000E40210033F037003A403DC031704550478
:1000E0009704DD0427057505C80520067D06E00692
:1000F0004907B8072D08A9082D09B9094D0AEA0AC8
:10010000900B400CFA0CC00D910E6F0F5A1053114A
:100110005B1272139A14D41520178018F519801BDE
:10012000231DDE1EB420A622B524E4263429A72BE5
:10013000402E0031EA330037453ABC3D68414C451A
:100140006B49C84D68524F57805C00621011121302
:10015000151617181A1C1D1F21232527292C2E318F
:1001600034373A3E4145494E52575C62686E757B62
:10017000838B939CA5AFB9C4D0DCE9F700000000E5
:10018000003E5B4F5B3E3E6B4F6B3E1C3E7C3E1C1D
:10019000183C7E3C181C577D571C1C5E7F5E1C0063
:1001A000183C1800FFE7C3E7FF0018241800FFE71A
:1001B000DBE7FF30483A060E2629792926407F05DD
:1001C0000507407F05253F5A3CE73C5A7F3E1C1CF3
:1001D00008081C1C3E7F14227F22145F5F005F5FB3
:1001E00006097F017F006689956A6060606060949F
:1001F000A2FFA29408047E040810207E20100808A4
:100200002A1C08081C2A08081E101010100C1E0CAE
:100210001E0C30383E3830060E3E0E060000000040
:100220000000005F00000007000700147F147F1427
:10023000242A7F2A1223130864623649562050006C
:1002400008070300001C2241000041221C002A1C58
:100250007F1C2A08083E0808008070300008080843
:100260000808000060600020100804023E51494563
:100270003E00427F400072494949462141494D3381
:100280001814127F1027454545393C4A49493141E8
:10029000211109073649494936464949291E0000B6
:1002A000140000004034000000081422411414140B
:1002B0001414004122140802015909063E415D59F7
:1002C0004E7C1211127C7F494949363E4141412200
:1002D0007F4141413E7F494949417F090909013E2A
:1002E000414151737F0808087F00417F4100204051
:1002F000413F017F081422417F404040407F021C63
:10030000027F7F0408107F3E4141413E7F09090979
:10031000063E4151215E7F09192946264949493245
:1003200003017F01033F4040403F1F2040201F3F0B
:100330004038403F63140814630304780403615990
:10034000494D43007F4141410204081020004141D2
:10035000417F04020102044040404040000307087E
:100360000020545478407F2844443838444444287A
:10037000384444287F385454541800087E09021821
:10038000A4A49C787F0804047800447D40002040A9
:10039000403D007F1028440000417F40007C0478ED
:1003A00004787C080404783844444438FC18242435
:1003B0001818242418FC7C080404084854545424B5
:1003C00004043F44243C4040207C1C2040201C3C32
:1003D0004030403C44281028444C9090907C446429
:1003E000544C4400083641000000770000004136BC
:1003F000080002010204023C2623263C1EA1A16142
:10040000123A4040207A3854545559215555794173
:100410002154547841215554784020545579400C4A
:100420001E5272123955555559395454545939552B
:100430005454580000457C410002457D420001456E
:100440007C40F0292429F0F0282528F07C545545DB
:10045000002054547C547C0A097F4932494949326E
:100460003248484832324A4848303A4141217A3A83
:1004700042402078009DA0A07D39444444393D404D
:1004800040403D3C24FF2424487E4943662B2FFCFA
:100490002F2BFF0929F620C0887E090320545479A8
:1004A000410000447D413048484A32384040227A79
:1004B000007A0A0A727D0D19317D2629292F2826F6
:1004C0002929292630484D402038080808080808FE
:1004D0000808382F10C8ACBA2F102834FA00007B57
:1004E000000008142A142222142A1408950022005D
:1004F00095AA005500AAAA55AA55AA000000FF0017
:10050000101010FF00141414FF001010FF00FF1053
:1005100010F010F0141414FC001414F700FF000085
:10052000FF00FF1414F404FC141417101F10101F04
:10053000101F1414141F00101010F0000000001FF2
:10054000101010101F10101010F010000000FF10FD
:100550001010101010101010FF10000000FF1400F9
:1005600000FF00FF00001F10170000FC04F414142B
:100570001710171414F404F40000FF00F7141414F7
:1005800014141414F700F7141414171410101F1077
:100590001F141414F4141010F010F000001F101F9A
:1005A0000000001F14000000FC140000F010F01008
:1005B00010FF10FF141414FF141010101F0000007F
:1005C00000F010FFFFFFFFFFF0F0F0F0F0FFFFFF83
:1005D0000000000000FFFF0F0F0F0F0F38444438DA
:1005E000447C2A2A3E147E02020606027E027E0215
:1005F00063554941633844443C04407E201E200634
:10060000027E020299A5E7A5991C2A492A1C4C7270
:1006100001724C304A4D4D303048784830BC625AF7
:10062000463D3E494949007E0101017E2A2A2A2A87
:100630002A44445F444440514A444040444A514063
:100640000000FF0103E080FF000008086B6B083624
:1006500012362436060F090F060000181800000095
:100660001010003040FF0101001F01011E00191D84
:100670001712003C3C3C3C0000000000080B00024C
:10068000020200000904000001020200000524002B
:1006900010010524010101042402060524060001BD
:1006A0000705810310004009040100020A00000050
:1006B0000705020240000007058302400000040312
:1006C000090412010002EF020140412336800001BB
:1006D0000102030141726475696E6F204C4C430046
:1006E00041726475626F7900F0F89C8E8783878E03
:1006F0009CF8F00000FEFF0303030303070EFCF861
:100700000000FEFF0303030303070EFCF80000FFD5
:10071000FF00000000000000FFFF0000FEFF8383D9
:10072000838383C7EE7C380000F8FC0E07030303C5
:10073000070EFCF800003F7FE0C08080C0E07F3FF4
:10074000FFFF01010101010101FFFF0000FFFF0C9C
:100750000C0C0C1C3E77E3C100007FFFC0C0C0C082
:10076000C0E0703F1F00001F3F70E0C0C0C0E070DD
:100770003F1F00007FFFC1C1C1C1C1E3773E1C0024
:10078000001F3F70E0C0C0C0E0703F1F00000000CD
:100790000001FFFF01000000D5F08D14A1C881CF3A
:1007A000D9F1AF200000000000250028002B002E0A
:1007B00000310000000000240027002A002D003036
:1007C00000040404040403040502020202040302F8
:1007D00002020206060606060604040202020404D9
:1007E0000408020110408040102040804080080230
:1007F000040180402010020110801020404020227F
:10080000290024737065616B2E537065616B28221B
:10081000006C00640074003E000706050401000837
:100820000A0B0C0D093E003E002020494E562020A8
:1008300055534220204D41502020524144003E005B
:1008400000000000000000002A2B2800000000002B
:100850000000000000000000000000000000000098
:100860002C9EB4A0A1A2A434A6A7A5AE362D3738DD
:10087000271E1F20212223242526B333B62EB7B8E6
:100880009F8485868788898A8B8C8D8E8F909192A4
:10089000939495969798999A9B9C9D2F3130A3ADF0
:1008A000350405060708090A0B0C0D0E0F1011126E
:1008B000131415161718191A1B1C1DAFB1B0B5006B
:1008C00005010906A1018502050719E029E71500C0
:1008D000250175019508810295017508810395062A
:1008E0007508150025730507190029738100C000DC
:1008F000DF1C392D11241FBECFEFDAE0DEBFCDBFE4
:1009000011E0A0E0B1E0E0E7F0E602C005900D9252
:10091000AE36B107D9F727E0AEE6B1E001C01D92CF
:10092000A135B207E1F714E0C9E7D4E004C021978C
:10093000FE010E94332EC837D107C9F70E94D41F89
:100940000C942B300C94000080918A010895E7E00C
:10095000F2E0A0E0B8E000800EBC8111012C1197FC
:10096000A0FDFDCF0192B9F70DB40895480F592F9E
:10097000511D1416150684F5803891056CF597FF06
:1009800002C090E080E04138510514F040E850E0AA
:10099000481BFB01E770FF2721E001C0220FEA9509
:1009A000EAF777FF02C0695F7F4FFB0133E0F595FF
:1009B000E7953A95E1F7F695FE2FEE27F795E7953F
:1009C000E80FF91FE95FFD4F415030F08191DF01E1
:1009D0001197822B8C93F8CF08956034710510F431
:1009E0000C94B60408952F923F924F925F926F92AB
:1009F0007F928F929F92AF92BF92CF92DF92EF92AF
:100A0000FF920F931F93CF93DF93CDB7DEB72E974F
:100A10000FB6F894DEBF0FBECDBF5B016A013E8703
:100A20002D87261737070CF001C1E616F7060CF4E0
:100A300015C1621773075CF03A2D2B2DAD84BE846F
:100A40003D872E87382F292FC601C32ED22EAE14F4
:100A5000BF04A1F5C816D90654F0382F292F8C15DC
:100A60009D0514F43C2D2D2D6C01832F922F0C1518
:100A70001D052CF0801791070CF4C80186018F5FCB
:100A8000482F401BB501C8012E960FB6F894DEBF63
:100A90000FBECDBFDF91CF911F910F91FF90EF90CF
:100AA000DF90CF90BF90AF909F908F907F906F908E
:100AB0005F904F903F902F900C94ED04302F212F9A
:100AC0008C01832F922F3E2D2F2D7501A32EB22E38
:100AD0009601201B310B38872F834D855E854E197B
:100AE0005F095A8749873C01601A710A95012E19DE
:100AF0003F093A832983AC014C195D095C834B8320
:100B0000C5012D853E85821B930B9C878B872A15FB
:100B10003B05F1F1215031093E832D834701512CD2
:100B2000412C312C212C8D819E8188159905ACF1A9
:100B3000C10169857A850E94182E9B01200F311F03
:100B4000C20169817A810E94182E600F711F4F8146
:100B50005885240E351E460C571C621773071CF46B
:100B6000922F9B01692F6F5F462F421BB401C90171
:100B70000E94ED045FEF851A950AD5CF3C2D2D2DEF
:100B80006C01832F922F3A2D2B2DAD84BE8475C01E
:100B90004D855E855E834D83C1CFC4012D853E8525
:100BA000821B930B2B813C81829FA001839F500D60
:100BB000929F500D11245E834D83C4018E199F09AD
:100BC000869D7001879DF00C969DF00C1124A81451
:100BD000B9040CF455C08D819E816B857C850E9483
:100BE000182E9B012C0D3D1DC70169817A810E9441
:100BF000182E600F711F4D815E818B819C81480F83
:100C0000591F5E834D83E60CF71C621773071CF4B3
:100C1000922F9B01692F6F5F462F421BB401C901C0
:100C20000E94ED049FEF891A990AD1CF2D853E8548
:100C3000E216F3060CF00BCFE616F7060CF49ECF87
:100C4000302F212F8A016C01832F922F3D852E8515
:100C50007E876D875701E32EF22EEECE4D855E85A1
:100C6000E416F5060CF434CF302F212F8601C32E65
:100C7000D22E3E2D2F2DED84FE843D872E8728CF4A
:100C80002E960FB6F894DEBF0FBECDBFDF91CF9189
:100C90001F910F91FF90EF90DF90CF90BF90AF909A
:100CA0009F908F907F906F905F904F903F902F908C
:100CB00008954F925F926F927F928F929F92AF9220
:100CC000BF92CF92DF92EF92FF920F931F93CF9339
:100CD000DF93E5010C151D052E053F050CF051C0F5
:100CE0002801390146015701882309F44FC0CA0180
:100CF000DB0184159505A605B70514F4D301C201DF
:100D0000B501A40188159905AA05BB0514F4AC0129
:100D1000BD01C016D106E206F30664F4D501C40194
:100D2000841B950BA60BB70BAC01BD01440D551DE3
:100D3000661D771D9A01AB0124193509460957092B
:100D4000AFEFBFEF0E947B2DA50194012419350957
:100D5000460957090E945C2D2883398382E090E080
:100D6000DF91CF911F910F91FF90EF90DF90CF9087
:100D7000BF90AF909F908F907F906F905F904F90BB
:100D800008952601370148015901AECF90E080E077
:100D9000E7CFFC018091F201882311F13FB7F8946D
:100DA00082E08093E9002091F200822F90E01816F3
:100DB000190614F481E090E0882339F0289844E67D
:100DC0004093F1014091F1004083222339F02091BA
:100DD000F200211103C02BE62093E8003FBF0895E5
:100DE0008FEF9FEF08954091BC015091BD0120917C
:100DF000BA013091BB0142175307B4F49091E80057
:100E00009570E1F39091E80092FD19C08093F10094
:100E10008091BC019091BD0101968F739927892B18
:100E200019F48EEF8093E8008091BC019091BD0190
:100E300001969093BD018093BC0181E0089580E00C
:100E40000895DF92EF92FF920F931F93CF93DF935A
:100E5000D82E8A01EB017B01E40EF51ECE15DF05CD
:100E600059F0D7FE12C0FE0184910E94F30621962C
:100E70008111F4CF0FEF1FEFC801DF91CF911F91C8
:100E80000F91FF90EF90DF9008958881EECF2FB7FC
:100E9000F89487708093E9009091E800892F807220
:100EA00095FF04C09091F20080E4891B2FBF089544
:100EB000615030F02091F100FC0120830196F8CFC1
:100EC000289884E68093F1010895EF92FF920F93A2
:100ED0001F93CF93DF938C017B01D0E0C0E0F7013B
:100EE000EC0FFD1F6491662361F0D801ED91FC9138
:100EF0000190F081E02DC8010995892B11F0219610
:100F0000EECFCE01DF91CF911F910F91FF90EF9027
:100F10000895AF92BF92CF92DF92EF92FF920F931C
:100F20001F93CF93DF936C017B018B01040F151F7F
:100F3000EB015E01AE18BF08C017D10759F06991E7
:100F4000D601ED91FC910190F081E02DC60109954B
:100F5000892B79F7C501DF91CF911F910F91FF90F8
:100F6000EF90DF90CF90BF90AF9008958091B20145
:100F700081110DC082E08093AE0184E08093AF01C7
:100F80001092B1011092B00181E08093B2018EEA1B
:100F900091E008950F931F93CF93DF931F92CDB7E6
:100FA000DEB782E0898342E450E06CE776E080E8D7
:100FB0000E9421070E94B607DC0112960D911C9138
:100FC0000115110589F0D801ED91FC910280F381A2
:100FD000E02DBE016F5F7F4FC801099597FD04C0EA
:100FE000F80100851185ECCF89810F90DF91CF91B9
:100FF0001F910F910895CF93DF93FC01DB01818155
:1010000014963C911497682F630F7727771F6830E9
:1010100071059CF5C281D381209739F5B383A283F2
:10102000908112969C93129713968C931397159612
:101030008C911597890F808390E080E0831708F5E5
:101040002181C22FD0E0BE0160507F4F16964D9196
:101050005C911797480F591FEA014881EB014883BB
:101060002F5F21830196EACFEA0148855985411512
:101070005105D1F7B987A887D3CF80E0DF91CF9111
:10108000089581E0FBCFCF93DF931F92CDB7DEB7FA
:101090006983DC01ED91FC910280F381E02D41E058
:1010A00050E0BE016F5F7F4F09950F90DF91CF91A8
:1010B000089583E08093E9008091F200882319F07D
:1010C0008AE38093E800089583E00E94470790E058
:1010D0000895CF93DF931F92CDB7DEB7FC018485CF
:1010E000958597FD08C02FEF3FEF358724870F9038
:1010F000DF91CF910895CE0101960E94C906019714
:1011000019F4898190E0F3CF8FEF9FEFF0CF0F9329
:101110001F93CF93DF931F92CDB7DEB78C01FC01F5
:101120008485958597FF0BC0CE0101960E94C90664
:10113000019771F4898190E0F80195878487F8011F
:10114000848595850F90DF91CF911F910F91089520
:101150008FEF9FEFF1CFFC018485958597FD0BC044
:101160009FB7F89482E08093E9008091F2009FBFDE
:1011700090E0019608959FB7F89482E08093E9008B
:101180008091F2009FBF90E008950DB407FEFDCF5F
:101190008EB5599A0895FC016150704021F00E946B
:1011A000D7088193F9CF0E94C508808308950DB4B4
:1011B00007FEFDCF8EB51EBC08950E94D708982F5C
:1011C0000C94C5080E94D708982F0C94D7085998FA
:1011D0000E94C50A862F0E94C50A852F0E94C50A53
:1011E000842F0C94C50A462F5091C201570F60916D
:1011F000C301681F83E00E94E7081EBC0895CF93D7
:10120000DF93C1E0D2E0688379838A831B820E94E6
:10121000F3080E94E2088C830E94DD088D83DF9131
:10122000CF9108953F924F925F926F927F928F92EB
:101230009F92AF92BF92CF92DF92EF92FF920F9365
:101240001F93CF93DF935C016B013901842E302E05
:101250009E2C842FB9010E94F3080E94E208582EA8
:10126000C82FD92F0E94DD08FC019E012A0D3B1DCD
:10127000121613060CF0F7C040E8A416B1040CF0E7
:10128000F2C08C0D9D1D181619060CF0ECC040E440
:10129000C416D1040CF0E7C0B7FE0BC0EE24FF2447
:1012A000EA18FB085E18203831055CF040E8542E3F
:1012B00008C0213831051CF020E8522E5A18F12CB4
:1012C000E12CD7FEE2C0002711270C191D09087F69
:1012D000CF01801B910B4E2E401A8134910534F0C2
:1012E0008C2D8195877030E4432E480E1595079517
:1012F0001595079515950795CF01079696958795AE
:101300009695879596958795389E9001399E300DD4
:101310001124200F311F40E0BE010D2E000C880B60
:101320000E94EE2DA82FCB018E0D9F1DA11DF7FC55
:10133000AA9594FE05C0880F991FAA1FCC0FDD1F28
:1013400024E0620E711C811C680E791E8A1E9601B3
:1013500083E0359527958A95E1F7020F30E803037E
:10136000D0011124AA0DBB1DAE0DBF1D95FE05C0F9
:10137000252D2150330BA20FB31F31E0C1FC34E007
:10138000C0FC330FC2FC3295A95FBD4F242D599884
:1013900083E08EBD8091C2019091C301870D981D9D
:1013A0000DB407FEFDCF9EBD0DB407FEFDCF8EBD73
:1013B0000DB407FEFDCF6EBC6C0E7D1E811C0DB4FE
:1013C00007FEFDCF1EBC990C073014F4089430FDC5
:1013D0008894979462E021FD68E022FD629520FFE9
:1013E00066956A9511F028300CF06FEF952D0EB4CC
:1013F0001EBC93FC0626862F90FC802D92FC0024B8
:10140000039EA00194FA36F4C895C89511240EB431
:101410001EBC90FC082E039E003034F08C9191FE8F
:101420004827402148274C93A058BF4F97FE06C03D
:101430008C9191FE5827512158275C93112495FCDB
:10144000A15895FEAF57B1099A9589F6852D95FE5D
:1014500081958058A80FB11D285003950DB4599A55
:1014600012160CF494CFDF91CF911F910F91FF9042
:10147000EF90DF90CF90BF90AF909F908F907F9034
:101480006F905F904F903F9008954E2E813491055C
:101490001CF080E4482E4C1810E000E02DCF2F9275
:1014A0003F924F926F927F928F92CF92DF92EF9204
:1014B000FF920F931F93CF93DF931B01482E9FEF53
:1014C000291A390A490A0E94F3080E94C508182FF0
:1014D000882309F44BC08D30B1F0C0901501D09035
:1014E00016018A3099F4809117019091180120918A
:1014F0000602C20ED11C9093140180931301D09266
:101500001601C0921501842DB101D7CFF0900402CD
:10151000C0911301D09114016090010270900202F9
:1015200080900302EF2C082F482D9301B601CE01C5
:101530000E94120980910502F5FE0CC081E0781A24
:101540008108882DB301610F711D811D0E94F30870
:101550000E94C5088C0F9D2F911D2091190130917B
:101560001A01821793070CF0BECFC5CFDF91CF9140
:101570001F910F91FF90EF90DF90CF908F907F9011
:101580006F904F903F902F9008958EBD00008EB5C4
:101590000DB407FEFCCF0895FC010E94F00B3197BB
:1015A00028F068517C4F8F4F9F4FF9CFAB01FC0162
:1015B0000E94F00B641775078E079F07C8F3089504
:1015C0007F928F929F92AF92BF92CF92DF92EF92D3
:1015D000FF920F931F93CF93DF93C82E8B017A0155
:1015E0008091F201811110C08FEF9FEFDF91CF91B9
:1015F0001F910F91FF90EF90DF90CF90BF90AF9031
:101600009F908F907F9008958091C00180FF05C0CA
:101610008091E00082608093E000CE2DDF2DD12C00
:101620008AEFB82E8C2D8770982E8C2D8072882E84
:101630008C2D8074782E9AE3A92E209719F4DD2042
:1016400009F450C08C2D0E944707811108C0BA943C
:10165000BB2051F281E090E00E94CC0AEECF8C17C3
:101660001D0611F00CF08C2F9FB7F8949092E900B2
:101670002091E80025FD02C09FBFDFCF282F30E07A
:10168000C21BD30B882029F08150A0F01092F100EA
:10169000FBCFF801C7FC0AC0815050F04191409344
:1016A000F100FACF44914093F10031968150D0F788
:1016B000020F131FDD2021F0A092E800D12CDCCF17
:1016C0008091E80085FD07C0A092E800DD24D39456
:1016D000209791F2F3CF209779F6772069F2A092C4
:1016E000E800CACF5D9884E68093BF01C7017ECF32
:1016F000EF92FF921F93CF93DF931F92CDB7DEB788
:101700007C018091680681112CC011E010935B066A
:1017100010935C0681E696E090935E0680935D06EA
:101720001092600610925F068AE491E0909358064A
:101730008093570610926306109262061092650617
:1017400010926406109366061093670681EC8093EE
:1017500061060E94B60767E576E00E94FB071093DA
:10176000680682E0898341E050E0BE016F5F7F4FF1
:1017700080915A060E94E00A97FD08C080915A069F
:1017800048E050E0B70180640E94E00A0F90DF91CA
:10179000CF911F91FF90EF900895EEE7F6E016824B
:1017A00017821086118612861386148282E896E0CC
:1017B0000C94780BCF93DF93EC0180911201882376
:1017C00031F083E00E94E00A1816190634F081E037
:1017D00090E09B838A8380E090E0DF91CF91089531
:1017E000AAEAB1E02FB7F8947D918D919C9166B5EE
:1017F0002FBFA89B05C06F3F18F47F5F8F4F9F4F8F
:1018000022E0660F771F881F991F2A95D1F7089548
:10181000AB01FC010E94F00B41505109E109F109B3
:1018200028F068517C4F8F4F9F4FF6CFAB01FC01E2
:101830000E94F00B641775078E079F07C8F3089581
:101840002FB7F8946091A6017091A7018091A8012B
:101850009091A9012FBF0895DC01FB019181808146
:10186000813A31F49D7F81E0913009F080E0089564
:101870008132E1F79B3029F482811F968C9381E0BD
:1018800008959A3099F7828150968C93F8CFFC0195
:101890004281FB01248135814217130611F40C9417
:1018A0002C0C80E00895DC01FB0188E4808389E44E
:1018B000818384E482831D969C911D979F709F5B1A
:1018C00093831D968D919C9124E0969587952A95FA
:1018D000E1F78F708F5B848385E00895EF92FF922C
:1018E0000F931F93CF93DF93FB012081213889F55C
:1018F0002381223271F5DC0112964C9124813581CD
:101900004217130631F58C01FC01C385D485F12CF7
:10191000E12C209791F04C815D816A817B818E81E1
:10192000811180E80E9421078F3F980759F0E80E47
:10193000F91E0990D881C02DECCF81E0D8011F9607
:101940008C93C701DF91CF911F910F91FF90EF9082
:10195000089590E080E0F6CFCF93DF93CDB7DEB768
:1019600069970FB6F894DEBF0FBECDBFFC01DB0157
:101970008C918F5F8C939E012D5F3F4F8DE0D9013D
:101980001D928A95E9F729E0298384E08A8391E012
:101990009D8383E08E832A8721E22B879C879D8706
:1019A0009F8722E2288B27E02B8B25E02C8B8E8BC8
:1019B00020E430E0388F2F8B998F82818B8395853F
:1019C0008685998B8A8B838180688D8B49E150E075
:1019D000BE016F5F7F4F80E00E94210769960FB6BE
:1019E000F894DEBF0FBECDBFDF91CF910895CF93A6
:1019F00080919C0181112CC0C1E0C0938F01C093E4
:101A0000900185E991E09093920180939101109269
:101A10009401109293018CE291E090938C01809359
:101A20008B011092970110929601109299011092D9
:101A30009801C0939A01C0939B0181EC809395011A
:101A40000E94B6076BE871E00E94FB07C0939C01FF
:101A50008BE891E0CF91089590E00C94CC0A8FB17F
:101A60008095807F669B88601C9B8460089590E4CD
:101A70009093C0001092BF008093D100089590E130
:101A8000282F81E061FD84E060FD880F62FD829572
:101A9000687F969FD0011124A20FA95FBD4F0C90C3
:101AA000082A40FF08260C9208958038910528F4F2
:101AB0006034710510F40C943F0D0895FF920F935C
:101AC0001F93CF93DF93EC018B01F42E42FF0BC0E9
:101AD00041E001960E94550D41E0B8016F5F7F4FD4
:101AE000CE010E94550DF1FE0DC041E0B801CE01BE
:101AF00001960E94550D41E0B80161507109CE0177
:101B00000E94550DF3FE0DC041E0B8016F5F7F4F9D
:101B1000CE010E94550D41E0B801CE0101970E940F
:101B2000550DF0FE12C0B8016150710941E0CE01BF
:101B30000E94550D41E0B801CE010197DF91CF9190
:101B40001F910F91FF900C94550DDF91CF911F9134
:101B50000F91FF900895EF92FF920F931F93CF93F1
:101B6000DF937C018B01040F111DEB0177FF02C095
:101B7000D0E0C0E0C8010134110514F080E490E029
:101B8000C817D9073CF441E0BE01C7010E94550DBA
:101B90002196F0CFDF91CF911F910F91FF90EF90A1
:101BA00008950F931F93CF93DF93EC018C010F5F88
:101BB0001F4F42E168E370E0C8010E94B60442E1B1
:101BC0006FE370E0C8010E94ED0446E069E370E055
:101BD000CE010E94AB0D46E069E370E0CE01439672
:101BE0000E94AB0D41E069E370E0C8010E945E0D08
:101BF000629642E069E370E0CE010E945E0D44E02F
:101C00006EE370E0CE010E945E0D48E06EE370E08E
:101C1000C801DF91CF911F910F910C945E0D2F920F
:101C20003F924F925F926F927F928F929F92AF926C
:101C3000BF92CF92DF92EF92FF920F931F93CF93B9
:101C4000DF935C014B01C42FD0E081E090E03C01C8
:101C50006C1A7D0A442455244C1A5D0A440C551C08
:101C6000CC24C394D12CF12CE12C822F8170282E0E
:101C700033243394300E122F127077FC06C0219754
:101C800082E0480E511C640C751C8FEFE81AF80AAC
:101C900082E0C80ED11C6C0C7D1C2220A9F04C2FB8
:101CA000440F430DB4016C1B7D0BC5018E0D9F1DB0
:101CB0000E94AB0D402F4C0DB4016E197F09CE016F
:101CC0008A0D9B1D0E94AB0D1123A9F04C2F440FD0
:101CD000430DB4016C1B7D0BC5018E199F090E9439
:101CE000AB0D402F4C0DB4016E197F09C5018C1B43
:101CF0009D0B0E94AB0DEC16FD060CF4BECFDF91E0
:101D0000CF911F910F91FF90EF90DF90CF90BF90F8
:101D1000AF909F908F907F906F905F904F903F908B
:101D20002F900895DF92EF92FF920F931F93CF931E
:101D3000DF937B01D22EEC018C01040F111DC01723
:101D4000D1073CF44D2DB701CE010E94AB0D219679
:101D5000F6CFDF91CF911F910F91FF90EF90DF9021
:101D60000895EF92FF920F931F93CF93DF937C011F
:101D70008B01C42FD22F0E94ED04B8016D0F711D8D
:101D8000615071094C2FC7010E94ED044D2FB8011D
:101D9000C7010E94AB0DC7018C0F911D4D2FB801DB
:101DA0000197DF91CF911F910F91FF90EF900C94CD
:101DB000AB0D2F923F924F925F926F927F928F92D4
:101DC0009F92AF92BF92CF92DF92EF92FF920F93CA
:101DD0001F93CF93DF9300D000D0CDB7DEB78C0137
:101DE0007C836B83645F7F4F41E00E94550D6B8164
:101DF0007C816C50710941E0C8010E94550D41E0A1
:101E00006B817C81C8010C960E94550D41E06B816D
:101E10007C81C8010C970E94550D81E090E09A8367
:101E20008983D12CC12C8CE0E82EF12C98EE292E40
:101E300033243A9425EFA22EBB24BA949FEFC91AFB
:101E4000D90A89819A8102969A838983A80EB91E3C
:101E50003601600E711E41E08B809C808E0C9F1CB1
:101E6000B401C3010E94550D28014C185D0841E0E2
:101E7000B401C2010E94550D41E08B809C808E18F8
:101E80009F08B401C3010E94550D41E0B401C20195
:101E90000E94550D8B809C808C0C9D1C41E0B401F0
:101EA00038016E0C7F1CC3010E94550D41E0B40146
:101EB00028014E185F08C2010E94550D8B809C803E
:101EC0008C189D0841E0B401C3010E94550D41E00A
:101ED000B401C2010E94550DCE14DF04BCF00F9076
:101EE0000F900F900F90DF91CF911F910F91FF9066
:101EF000EF90DF90CF90BF90AF909F908F907F90AA
:101F00006F905F904F903F902F900895B7FC96CFC1
:101F100091E0E91AF10882E0280E311CA20CB31CF2
:101F20008DCF8F929F92AF92BF92CF92DF92EF921E
:101F3000FF920F931F93CF93DF936D3089F0C09082
:101F4000E801D090E9016A30D1F41092EB011092CF
:101F5000EA0188E0C80ED11CD092E901C092E801E4
:101F600081E090E0DF91CF911F910F91FF90EF9072
:101F7000DF90CF90BF90AF909F908F900895009189
:101F8000EA011091EB01E5E06E9FE0011124C458D5
:101F9000DE4F4801F12CF5E0E12CFF1629F0CE01CF
:101FA0000196FE01E490EC01B12CA12C4E2D417064
:101FB000B6016A0D7B1DC4010E94550DE694FFEF2A
:101FC000AF1ABF0A88E0A816B10481F7F394EFEFC7
:101FD0008E1A9E0AF6E0FF12DECF0A5F1F4F1093A3
:101FE000EB010093EA01BCCF9091EF01982329F413
:101FF0009091F001982381E009F480E00895CF9357
:10200000C82F0E942F0DC82381E009F080E0CF91F6
:102010000895CF93C82F0E942F0D982F9C2381E005
:102020009C1380E0CF91089580E00C94A7042F9238
:102030003F924F925F926F927F928F929F92AF9258
:10204000BF92CF92DF92EF92FF920F931F93CF93A5
:10205000DF9300D01F92CDB7DEB79B838A837B01CD
:102060006A0109838901061B170B17FF03C011952D
:102070000195110946018A819B81881A990A97FE68
:1020800003C0919481949108801691065CF49C2D74
:102090008D2D6901292F382F9A818B81FB82EA824D
:1020A000E92EF82E8A819B81C816D9065CF49E2DF4
:1020B0008F2D7901292F382F9A818B81DB82CA825B
:1020C000C92ED82E16018A819B81281A390A290126
:1020D0004E185F0857FE03C05194419451083101D6
:1020E00037FE03C09FEF691A790A759467948FEFE2
:1020F000E216F3060CF481E0A82E880FBB088A8153
:102100009B81C816D906CCF04981BC01C701801655
:1021100091061CF0B7018A819B810E94550D6418BD
:10212000750877FE04C0EA0CFB1C620C731C8A81E4
:102130009B8101969B838A83E2CF0F900F900F9033
:10214000DF91CF911F910F91FF90EF90DF90CF9093
:10215000BF90AF909F908F907F906F905F904F90C7
:102160003F902F9008956F927F928F929F92AF929F
:10217000BF92CF92DF92EF92FF920F931F93CF9374
:10218000DF93EC016B015A014901380101E00E9423
:1021900017109701A301B401C5010E941710960101
:1021A000AE01B701C3010E941710DF91CF911F91BB
:1021B0000F91FF90EF90DF90CF90BF90AF909F90E6
:1021C0008F907F906F90089580918801882321F0EF
:1021D0001092880180E008959091A60120918901D4
:1021E000392F321B303138F43F3091F091E093BFFA
:1021F000889513BE089581E08093880190938901AA
:10220000E4ECF1E08081918101968083918381E00B
:102210000895FC014281FB01248135814217130698
:1022200011F40C942C0C80E00895EF92FF920F9320
:102230001F93CF93DF93FB012081213871F5238118
:10224000223259F5DC0112964C91248135814217D6
:10225000130619F5EC010B851C85F12CE12C0115F9
:10226000110589F0F801448155816281738180E80C
:102270000E9421078F3F980749F0E80EF91ED80108
:102280000D911C91ECCF81E08F87C701DF91CF9139
:102290001F910F91FF90EF90089590E080E0F6CFAE
:1022A000CF93DF93CDB7DEB769970FB6F894DEBF53
:1022B0000FBECDBFFC01DB018C918F5F8C939E0123
:1022C0002D5F3F4F8DE0D9011D928A95E9F729E0F6
:1022D000298384E08A8391E09D8383E08E832A872B
:1022E00021E22B879C879D879F8722E2288B27E00E
:1022F0002B8B25E02C8B8E8B20E430E0388F2F8BBE
:10230000998F82818B8395858685998B8A8B838132
:1023100080688D8B49E150E0BE016F5F7F4F80E0A8
:102320000E94210769960FB6F894DEBF0FBECDBF9D
:10233000DF91CF910895CF92DF92EF92FF920F93AA
:102340001F93CF93DF936C01EB017B01E40EF51E2D
:1023500010E000E0CE15DF0581F069916D30D1F31A
:10236000D601ED91FC910190F081E02DC601099517
:10237000892B19F00F5F1F4FEDCFC801DF91CF916F
:102380001F910F91FF90EF90DF90CF900895DC01A7
:10239000683888F1685816968C911697861721F13F
:1023A00017968C9117978617F9F018968C911897B5
:1023B0008617D1F019968C9119978617A9F01A965D
:1023C0008C911A97861781F01B968C911B97861714
:1023D00059F0FD01369690E080E0219121114FC027
:1023E0008A0F9B1FFC016683CD0104960E94780B27
:1023F00081E090E00895862F90E067FF12C0FC0115
:10240000E058F10921E030E001C0220FEA95EAF737
:1024100014968C911497822B14968C93149760E0E9
:10242000BACF1C96ED91FC911D97E80FF91F6491AE
:10243000611109C081E090E013969C938E931297EE
:1024400090E080E00895862F807C803C69F41496AB
:102450008C911497806414968C9314976F736233E5
:1024600009F099CF64E697CF67FFF9CF14968C9166
:102470001497826014968C9314976F77F0CF01961F
:102480008630910509F0A9CFD5CFEF92FF921F9327
:10249000CF93DF93EC01162F0E94C7117C01E8E770
:1024A000E10F183890F4812F90E017FF2AC0FC014B
:1024B000E058F10981E090E001C0880FEA95EAF761
:1024C00080959C8189238C83E0E0DE0186E0EE2309
:1024D00041F016969C911697E91303C016961C922C
:1024E0001697815011968111F2CFCE0104960E9469
:1024F000780BC7019927DF91CF911F91FF90EF9043
:102500000895EC85FD85E80FF91FE491EE2389F32A
:102510008E2F807C803C41F48C818F7B8C83EF7389
:10252000E23399F6E4E6D1CFE7FFFACF8C818D7FD5
:102530008C83EF77F5CF6F927F928F92CF92DF925D
:10254000EF920F931F93CF93DF93C091F601809189
:10255000F501082E000C990BC817190609F477C06D
:102560006091FE017091FF01809100020E94F308CA
:1025700060918C068C2F0E94F82DD091F501092FC7
:1025800010E02D2F0D2E000C330B0217130709F44A
:1025900050C00E94D708E0918D06F0918E06E00FA2
:1025A000F11F8083CF5F2091FE013091FF014091A8
:1025B00000022F5F3F4F4F4F2093FE013093FF01EA
:1025C000409300022091FB013091FC014091FD01FC
:1025D0006090F8017090F9018090FA01C090FE01BE
:1025E000D090FF01E0900002260D371D481D2C15EC
:1025F0003D054E05C1F4803EB1F48091FB01909100
:10260000FC01A091FD018093FE019093FF01A09336
:1026100000020E94C5086091FE017091FF01809147
:1026200000020E94F308DF3F09F0A2CF1092F501EB
:102630009FCF9093F601DF91CF911F910F91EF9073
:10264000DF90CF908F907F906F900C94C508DF91B2
:10265000CF911F910F91EF90DF90CF908F907F904F
:102660006F900895E82FF0E0EA5DFE4F80818130A1
:1026700019F08330A9F0089580917D0181110FC078
:1026800080916F008D7F80936F0080917801E09141
:102690007601F09177019081809589238083089558
:1026A00010928701809186018111F9CF8091840178
:1026B000E0918201F0918301EECFCF93C0E0809151
:1026C000F301C81728F48C2F0E943213CF5FF7CF85
:1026D0001092F401CF910895CF92DF92EF92FF9282
:1026E0001F93CF93DF939091F301891708F03CC0BB
:1026F000813021F490917101911136C067FD34C091
:10270000E82FF0E0EA5DFE4F1081E62FF0E0603345
:1027100098F5E45BFE4FE491CE2FD0E0F12CE12C54
:1027200060E074E284EF90E0A7019E010E945C2DBE
:10273000215031094109510991E02115310581E00C
:10274000480751056CF060E970ED83E090E0A70167
:102750009E010E945C2D215031094109510993E0ED
:10276000113089F0133039F1DF91CF911F91FF9033
:10277000EF90DF90CF900895EE0FFF1FE45BFF4FC7
:10278000C591D491CBCF80917D018111EDCF809106
:102790008100887F892B809381003093890020936A
:1027A0008800109285001092840080916F008260F2
:1027B00080936F00D9CF80919100887F892B80937F
:1027C00091003093990020939800109295001092F8
:1027D0009400D0937301C093720181E080938701CC
:1027E00080917100826080937100BECFCF93DF93A0
:1027F000D1E08091F701811115C0E0917401F09151
:102800007501CF0101969093750180937401E49155
:102810008E2F807FCE2FCF708038D9F48C2F0E94DE
:102820003213E7CF8091F501E0918D06F0918E068D
:10283000E80FF11D87FDFA95E0818F5F082E000CEF
:10284000990B60918C0670E00E94182E8093F50120
:10285000DFCF803999F5E0918F06F09190060995C8
:102860008D27809385018091F70181110FC0E09140
:102870007401F0917501CF010196909375018093D9
:10288000740164918C2F0E946C13B3CF8091F50179
:10289000E0918D06F0918E06E80FF11D87FDFA9507
:1028A00020818F5F082E000C990B60918C0670E0E0
:1028B0000E94182E8093F501622FE4CF87FD63C03C
:1028C0008091F7012E2F30E0322F2227811142C054
:1028D000E0917401F0917501CF010196909375011B
:1028E00080937401E491C9018E2BFC012091720147
:1028F00030917301DF010E94DF2D6C507E4F8F4FAE
:102900009F4F28EE33E040E050E00E94BD2D209321
:102910007E0130937F01409380015093810180912B
:102920007E0190917F01A0918001B0918101892B5E
:102930008A2B8B2B61F481E090E0A0E0B0E08093E3
:102940007E0190937F01A0938001B0938101DF917C
:10295000CF9108958091F501E0918D06F0918E065A
:10296000E80FF11D87FDFA959081F901E92B8F5F42
:10297000082E000C990B60918C0670E00E94182EB6
:102980008093F501B3CF803E29F410927501109227
:1029900074012FCF803F09F02CCF1092F401D7CFD4
:1029A0006093FE017093FF01809300026093FB012E
:1029B0007093FC018093FD012093F8013093F9019D
:1029C0004093FA0181E08093F7011092F6019FEFA6
:1029D0009093F5018093F4018091F40181110E949C
:1029E0009B120C94F6139091F301923009F46DC090
:1029F000292F30E0F901EA5DFE4F408121593E4F19
:102A0000F9018083913031F420916F01281302C0C5
:102A1000909371019F5F9093F30190E0FC01EF535D
:102A2000F84F24918052984FFC01849130E0220F9E
:102A3000331FF901EB55F84F65917491F901ED548D
:102A4000F84FA591B4919C91982B9C93413019F02B
:102A50004330D9F0089590916400977F909364007B
:102A60001092800010928100909181009860909364
:102A70008100909181009160909381007093770123
:102A80006093760180937801089590916500977F17
:102A90009093650010929000109291009091910097
:102AA0009860909391009091910091609093910023
:102AB0007093830160938201809384016CE380E0D2
:102AC0000E946C1380E00C943213089586E190E02C
:102AD0000E94370D63E070E080E090E00E94080CF7
:102AE00086E190E00E94370D65E070E080E090E0C4
:102AF0000E94080C81E190E00E94370D68E070E0D0
:102B000080E090E00E94080C81E190E00E94370D87
:102B10006BE070E080E090E00E94080C81E190E0C2
:102B20000E94370D6DE070E080E090E00E94080C9C
:102B30001092C0000895089590E080E00895FB0190
:102B400001900020E9F73197AF01461B570BDC01DC
:102B5000ED91FC910280F381E02D0994CF93DF93F6
:102B6000BC018EE796E00E946507EC016AE671E021
:102B70008EE796E00E949F158C0F9D1FDF91CF91ED
:102B800008956F927F928F92EF92FF920F931F930F
:102B9000CF93DF931F92CDB7DEB73B01882E10E0B5
:102BA00000E0882DB301600F711F811D0E94F308A2
:102BB00061E070E0CE0101960E94CB08C801019649
:102BC0002981222311F08C01ECCF0E94392E7C0147
:102BD000882DB3010E94F308B801C7010E94CB08F9
:102BE000F701E00FF11F1082E114F10429F0B701A1
:102BF0008EE796E00E949F156AE671E08EE796E008
:102C00000E949F15E114F10469F0C7010F90DF9154
:102C1000CF911F910F91FF90EF908F907F906F90C9
:102C20000C94D52E0F90DF91CF911F910F91FF90B3
:102C3000EF908F907F906F900895CF93DF93EC018A
:102C400063E88EE796E00E94C71162E78EE796E0A0
:102C50000E94C71164E670E080E090E00E94080CDA
:102C60000E94CD0B6CED75E080E090E00E94080CB6
:102C7000BE01DD0F880B0E94C11564E670E080E0A4
:102C800090E00E94080C60EB8EE796E00E94C7116E
:102C900064E670E080E090E00E94080CDF91CF9144
:102CA0000C94CD0B4F925F926F927F928F929F9276
:102CB000AF92BF92CF92DF92EF92FF920F931F934A
:102CC000CF93DF93CDB7DEB74DB65EB680914C079C
:102CD0002DB73EB7281B31090FB6F8943EBF0FBE83
:102CE0002DBF8DB79EB701963C018090EF06912CC9
:102CF0008091EB069091EC06D301FC019F01281B0B
:102D0000390B281539051CF421912D93F7CF8091AB
:102D1000F006882359F18091E7069091E80628E0B3
:102D200097FD09C068E671E00E94182E6DE270E020
:102D30000E94182E262F8091E9069091EA0668E0FD
:102D400097FD08C068E671E00E94182E6DE270E001
:102D50000E94182EF301E80DF91D90E1699FB00162
:102D60001124262B2083F40131964F015301A80C26
:102D7000B91CC090F706D090F806E090F906F090E4
:102D8000FA060091F3061091F4062091F5063091B1
:102D9000F6064091BB065091BC066091BD0670914D
:102DA000BE068091F10681700E945906880E991E18
:102DB0005301A80CB91CC090FF06D0900007E0900A
:102DC0000107F09002070091FB061091FC0620918C
:102DD000FD063091FE064091BF065091C0066091FD
:102DE000C1067091C2068091F106869581700E949D
:102DF0005906880E991E5301A80CB91CC0900707EC
:102E0000D0900807E0900907F0900A0700910307A7
:102E10001091040720910507309106074091C306E1
:102E20005091C4066091C5067091C6068091F10666
:102E300082FB882780F90E945906880E991E53014B
:102E4000A80CB91CC0900F07D0901007E090110794
:102E5000F090120700910B0710910C0720910D07BD
:102E600030910E074091C7065091C8066091C9067F
:102E70007091CA068091F10683FB882780F90E9431
:102E80005906880E991E5301A80CB91CC09017074B
:102E9000D0901807E0901907F0901A0700911307D7
:102EA0001091140720911507309116074091CB0619
:102EB0005091CC066091CD067091CE068091F106BE
:102EC000829581700E945906880E991E5301A80CA4
:102ED000B91CC0901F07D0902007E0902107F09008
:102EE000220700911B0710911C0720911D073091AC
:102EF0001E074091CF065091D0066091D106709187
:102F0000D2068091F10685FB882780F90E94590638
:102F1000880E991E5301A80CB91CC0902707D090A9
:102F20002807E0902907F0902A07009123071091C5
:102F3000240720912507309126074091D70650910C
:102F4000D8066091D9067091DA068091F2068170F8
:102F50000E945906880E991E5301A80CB91CC090F6
:102F60002F07D0903007E0903107F09032070091A2
:102F70002B0710912C0720912D0730912E0740919F
:102F8000D3065091D4066091D5067091D6068091F3
:102F9000F206869581700E945906880E991E53018B
:102FA000A80CB91CC0903707D0903807E0903907BB
:102FB000F0903A07009133071091340720913507BC
:102FC000309136074091DB065091DC066091DD06BA
:102FD0007091DE068091F20682FB882780F90E94BC
:102FE0005906880E991E5301A80CB91CC0903F07C2
:102FF000D0904007E0904107F090420700913B07D6
:1030000010913C0720913D0730913E074091DF062B
:103010005091E0066091E1067091E2068091F2061F
:1030200083FB882780F90E945906880D991D53015A
:10303000A80EB91EC0904707D0904807E0904907F6
:10304000F0904A07009143071091440720914507EB
:10305000309146074091E3065091E4066091E50601
:103060007091E6068091F206829581700E94590661
:103070000E94F70C4C0140914C0780914B0750E0A7
:103080005A01FFEFAF1ABF0A2DB73EB72A193B0905
:103090000FB6F8943EBF0FBE2DBF0DB71EB70F5F22
:1030A0001F4FEDB7FEB78183B301C80101960E949F
:1030B0001B30F4018381A501B80180640E94E00AFD
:1030C0000FB6F8945EBE0FBE4DBEDF91CF911F913B
:1030D0000F91FF90EF90DF90CF90BF90AF909F90B7
:1030E0008F907F906F905F904F900895282F8091E0
:1030F000EE062817B8F4E091EB06F091EC0681E0BB
:1031000090E0A0E0B0E004C0880F991FAA1FBB1F89
:103110002A95D2F72081822B80838091ED06811140
:103120000C9452160895282F8091EE062817C0F4AB
:10313000E091EB06F091EC0681E090E0A0E0B0E0D9
:1031400004C0880F991FAA1FBB1F2A95D2F780952C
:103150009081892380838091ED0681110C94521611
:103160000895CF93DF93EC018091910690919206A0
:10317000009759F020919306309194062C173D0743
:1031800020F081E0DF91CF910895BE016F5F7F4F06
:103190000E945E2F009789F090939206809391068B
:1031A000D0939406C093930620919506309196068D
:1031B000232B39F7FC011082E4CF80E0E3CF82E0DB
:1031C00090E00E94422D882331F03E9A3F9A81E0A0
:1031D00080938A01089510928A013E983F9808953D
:1031E0001F920F920FB60F9211248F939F9380918D
:1031F000E1009091E100937F9093E10083FF0FC085
:103200001092E90091E09093EB001092EC0092E3B1
:103210009093ED001092F20198E09093F00082FFFD
:1032200022C093E09093E9009091F200992319F065
:103230009AE39093E8009091BF01992341F0909117
:10324000BF0191509093BF01911101C05D9A90917F
:10325000F101992341F09091F10191509093F10186
:10326000911101C0289A84FF18C08091E2008E7EDF
:1032700081608093E2008091E1008F7E8093E10085
:103280008091C0018E7E80618093C0019F918F915B
:103290000F900FBE0F901F90189580FFF7CF809171
:1032A000E2008E7E80618093E2008091E1008E7E5C
:1032B0008093E1008091C0018E7E8160E5CF1F92F6
:1032C0000F920FB60F921124CF92DF92EF92FF92DE
:1032D0000F931F932F933F934F935F936F937F931E
:1032E0008F939F93AF93BF93EF93FF93CF93DF930E
:1032F000CDB7DEB76C97DEBFCDBF1092E9008091ED
:10330000E80083FF25C068E0CE0145960E9458077B
:1033100082EF8093E8008D8987FF39C09091E800A3
:1033200090FFFCCF982F907609F034C19E894F8989
:10333000588D2F89F88C911131C0803861F58091BA
:10334000C1018093F1001092F1008EEF8093E800AC
:103350006C960FB6F894DEBF0FBECDBFDF91CF9154
:10336000FF91EF91BF91AF919F918F917F916F915D
:103370005F914F913F912F911F910F91FF90EF908F
:10338000DF90CF900F900FBE0F901F9018959EEF7B
:103390009093E800C7CF1092F100D5CF913059F447
:1033A0008111D3CF4130510581F68091C1018D7FCC
:1033B0008093C101CACF933049F48111C6CF413007
:1033C000510519F68091C1018260F2CF953041F428
:1033D0008091E80080FFFCCF20682093E300B5CF08
:1033E000963009F0A9C00B8D1C8D22E01092E900E7
:1033F0001092BD011092BC01F2122EC01092BB01BE
:103400001092BA010E94CA071F8299E09983FA823A
:1034100091E09E8390EA98879AEF99872091BC016A
:103420003091BD01275F3F4F3C832B838D831092EA
:10343000E9001092BD011092BC011093BB010093F2
:10344000BA0149E050E0BE016F5F7F4F80E00E940B
:1034500021070E94CA0779CF1093BB010093BA01DC
:103460000E94B607DC0112960D911C910115110501
:1034700009F451C1D801ED91FC910480F581E02D52
:10348000BE016B5E7F4FC8010995009709F03EC1F0
:10349000F80100851185EACFF3E0FF120EC08F8995
:1034A000882309F440C0823061F440E867E080EE90
:1034B00096E00E94AC1C811148CF81E28093EB0022
:1034C00047CF813029F440E86BE084ED96E0F1CFFE
:1034D000833099F70E94B607DC011296ED90FC90BC
:1034E0008E010F5F1F4F6801E114F10479F0D701DD
:1034F000ED91FC910680F781E02DB801C701099597
:10350000080F111DF701E084F184EECFD8011C9261
:10351000F60101900020E9F73197BF016C197D0990
:1035200040E0C601C6CF6EEB76E0FB01449150E06F
:1035300080E80E94210709CF973009F4BECF983068
:1035400021F481E08093F10000CF993009F0FDCEA5
:10355000837009F0B2CFE1E0F1E081E031E096E381
:103560002191222371F08093E9003093EB00DF0179
:1035700011972C912093EC009093ED008F5F873092
:1035800079F78EE78093EA001092EA008F898093A2
:10359000F201DBCE8B8D9C8D1092E9001092BD0163
:1035A0001092BC019093BB018093BA01898D811167
:1035B00092C08E899D89913A49F4813209F07DCF7C
:1035C00047E050E06BE071E080E0B3CF913209F06A
:1035D00074CF833269F48F89988DB0E0A0E0809336
:1035E000070190930801A0930901B0930A01ADCEA1
:1035F000803269F48091E80082FFFCCF67E08BE0C5
:1036000091E00E9458078BEF8093E8009ECE8232B3
:1036100009F09BCE8F8980931201EEEFFFE7859131
:1036200094918B3F9C4D51F1E0E0F8E080910B01CB
:1036300090910C01A0910D01B0910E01803B94403E
:10364000A105B105F1F48091120180FD1AC0EE3F91
:103650008AE0F80789F587E797E79183808380916F
:1036600060008093BE0188E19BE00FB6F894A895B6
:10367000809360000FBE9093600067CEEEEFFAE09B
:10368000D5CF808191818737974709F05ECEA89585
:10369000809160008861809360008091BE0180937A
:1036A0006000EE3F2AE0F20789F08091FE0A9091D7
:1036B000FF0A9183808349CE808191818737980763
:1036C00051F29093FF0A8093FE0AC5CF1092FF0A31
:1036D0001092FE0A3ACE0E94B607DC0112960D91B6
:1036E0001C910115110509F4E8CED801ED91FC916A
:1036F0000190F081E02DBE016B5E7F4FC8010995FE
:10370000811123CEF80100851185EBCF181619061B
:103710000CF41BCED2CEF1E0FF12BECE62EC76E00E
:1037200004CF0F920FB68F939F93EF93FF938091E7
:10373000A5018D5F8D3708F08D578093A501E6EACE
:10374000F1E080818E4F808391819F4F91838281B0
:103750008F4F828383818F4F8383EAEAF1E08081F8
:103760008F5F808381818F4F818382818F4F82839E
:1037700083818F4F83838FB18F6066991C9B8827CD
:103780008F3681F48091A401981B963068F0E0E0B8
:10379000F8E087E78083818388E180936000F0937D
:1037A0006000FFCF9093A401FF91EF919F918F91C3
:1037B0000FBE0F9018951F920F920FB60F92112403
:1037C0002F933F934F935F936F937F938F939F9329
:1037D000AF93BF93EF93FF9380918701882389F084
:1037E0008091860181110DC080918501811109C0F0
:1037F00090918401E0918201F09183018081892779
:1038000080838091F401882329F180917E01909139
:103810007F01A0918001B0918101892B8A2B8B2B94
:10382000C9F080917E0190917F01A0918001B091BB
:1038300081010197A109B10980937E0190937F01D5
:10384000A0938001B0938101892B8A2B8B2B11F4DB
:103850000E94F613FF91EF91BF91AF919F918F91CD
:103860007F916F915F914F913F912F910F900FBE7C
:103870000F901F9018951F920F920FB60F92112460
:103880008F939F93AF93BF93EF93FF9380917D01AD
:10389000882309F454C08091790190917A01A09114
:1038A0007B01B0917C01892B8A2B8B2BA1F190910C
:1038B0007801E0917601F0917701808189278083FA
:1038C0008091790190917A01A0917B01B0917C0166
:1038D000181619061A061B069CF48091790190911E
:1038E0007A01A0917B01B0917C010197A109B109F6
:1038F0008093790190937A01A0937B01B0937C012E
:10390000FF91EF91BF91AF919F918F910F900FBE5B
:103910000F901F9018951092860110927D01809152
:103920006F008D7F80936F0080917801E091760128
:10393000F09177019081809589238083E1CF8091F8
:1039400085018111DDCF90917801E0917601F091B0
:10395000770180818927F1CFEF92FF920F931F9318
:10396000CF93DF93F82E192FE62E042F81E0860FD8
:10397000880F0E94F30683E00E94F306CF2DD12F1B
:10398000EC0EFD2EF11CCE15DF05B9F007FF13C0BC
:10399000FE0184910E94F306182F80E00E94F30636
:1039A000812321968111EFCFDF91CF911F910F914C
:1039B000FF90EF9008958881EDCF81E0F5CFEF92F1
:1039C000FF920F931F93CF93DF93CDB7DEB7C65906
:1039D000D1090FB6F894DEBF0FBECDBF10920A0614
:1039E0001092090688EE93E0A0E0B0E080930B0609
:1039F00090930C06A0930D06B0930E0688E391E019
:103A000090930806809307068FEF9FEF909314061C
:103A100080931306109281061092800686E591E04D
:103A200090937F0680937E0680917606811113C065
:103A3000109271061092700680EC98E090937306D5
:103A4000809372068FE290E09093750680937406DF
:103A500081E0809376068091680681112CC011E088
:103A600010935B0610935C0681E696E090935E06E9
:103A700080935D061092600610925F068AE491E0E2
:103A80009093580680935706109263061092620630
:103A900010926506109264061093660610936706EE
:103AA00081EC809361060E94B60767E576E00E948C
:103AB000FB0710936806E0916206F0916306309769
:103AC00009F0F9C180E796E090936306809362065F
:103AD0008091640690916506209174063091750678
:103AE000820F931F909365068093640680E498E0AC
:103AF00090938B0680938A061092EC061092EB0648
:103B00001092EF061092F3061092F4061092F5064A
:103B10001092F6068FEF93E0A0E0B0E08093F706F6
:103B20009093F806A093F906B093FA061092FB065C
:103B30001092FC061092FD061092FE068093FF067E
:103B400090930007A0930107B09302071092030718
:103B5000109204071092050710920607809307073A
:103B600090930807A0930907B0930A0710920B07D8
:103B700010920C0710920D0710920E0780930F07FA
:103B800090931007A0931107B09312071092130798
:103B900010921407109215071092160780931707BA
:103BA00090931807A0931907B0931A0710921B0758
:103BB00010921C0710921D0710921E0780931F077A
:103BC00090932007A0932107B09322071092230718
:103BD000109224071092250710922607809327073A
:103BE00090932807A0932907B0932A0710922B07D8
:103BF00010922C0710922D0710922E0780932F07FA
:103C000090933007A0933107B09332071092330797
:103C100010923407109235071092360780933707B9
:103C200090933807A0933907B0933A0710923B0757
:103C300010923C0710923D0710923E0780933F0779
:103C400090934007A0934107B09342071092430717
:103C50001092440710924507109246078093470739
:103C600090934807A0934907B0934A0733E03093F5
:103C70004B0744E04093EE061092F0063093F106B5
:103C80001092F20625E0298381E08A8399E09B83E4
:103C90002C83F1EAFD838E8355E85F83388729877B
:103CA0009A8759E15B878C8759E25D874E87A5E14A
:103CB000AF87188A55E2598B8A8BE5E7EB8B8C8BA3
:103CC00075E97D8B4E8B55E55F8B188E55E6598FC8
:103CD0001A8E61E86B8F52E05C8FED8F8E8F7F8F35
:103CE00048A369A33AA32BA38CA39DA38EA3AFA340
:103CF00018A687E289A78FEF8AA78BA71CA61DA607
:103D0000EEA780E18FA778AB59ABFAAB1BAA9CABAF
:103D100080E38DAB9EAB81E38FAB68AF59AF80EC96
:103D20008AAF8BAF8BE390E00E94392E7C018BE34E
:103D3000FE013196D70101900D928A95E1F787E057
:103D400090E00E94392E8C01DC0111961C921E928B
:103D50001396FC92EE9212978BE390E015969C934B
:103D60008E93149716961C920E94F70CFC01A38563
:103D7000B485109709F0A9C01487038785859685B7
:103D8000D80114962D913C91820F931F96878587B9
:103D90009091EE06892F869586958695977009F005
:103DA0009CC08093EF061091EF06812F90E00E9457
:103DB000392E9093EC068093EB0681E09091F0060B
:103DC000911101C080E01C5F810F80934C0710921D
:103DD000BB061092BC061092BD061092BE06109251
:103DE000BF061092C0061092C1061092C206109231
:103DF000C3061092C4061092C5061092C606109211
:103E0000C7061092C8061092C9061092CA061092F0
:103E1000CB061092CC061092CD061092CE061092D0
:103E2000CF061092D0061092D1061092D2061092B0
:103E3000D3061092D4061092D5061092D606109290
:103E4000D7061092D8061092D9061092DA06109270
:103E5000DB061092DC061092DD061092DE06109250
:103E6000DF061092E0061092E1061092E206109230
:103E7000E3061092E4061092E5061092E6068FEF34
:103E80009FEF9093E8068093E7069093EA0680936D
:103E9000E90690E080E02091EF0628171906F9F076
:103EA000F4F0E091EB06F091EC06E80FF91F1082B8
:103EB0000196F1CFFC01808191810097D9F780E7CD
:103EC00096E09183808304CEDC018D919C911197C3
:103ED0000097D1F70D931C9351CF8F5F62CF109253
:103EE000BA061092B90682E691E09093B8068093E4
:103EF000B70684EA94E09093900680938F0687E952
:103F000096E090938E0680938D0680E280938C06D7
:103F100010929206109291061092940610929306B7
:103F2000109296061092950690E080E00E94B118DB
:103F30002091910630919206811120C02115310502
:103F400019F0C9010E94D52E109292061092910686
:103F5000109296061092950610929406109293066F
:103F6000CA56DF4F0FB6F894DEBF0FBECDBFDF914C
:103F7000CF911F910F91FF90EF90089510929606A8
:103F8000109295066CE671E0C901CA56DF4F0FB674
:103F9000F894DEBF0FBECDBFDF91CF911F910F917F
:103FA000FF90EF900C94243000D0CDB7DEB778941A
:103FB00083E084BD83E085BD81E080936E00E1E80D
:103FC000F0E083E08083E0E881E08083E1E983E062
:103FD0008083E0E981E08083E1EC87E08083E3ECAB
:103FE00081E08083E0EC82E08083E2EC81E080830A
:103FF000EAE787E08083806880831092F201109264
:10400000C1011092C0018091D70081608093D700D8
:1040100080EA8093D80089B5806189BD89B58260C6
:1040200089BD09B400FEFDCF81E090E00E94CC0A7A
:104030008091D8008F7C80618093D8008091E000CF
:10404000807F8093E0008091E1008E7E8093E1008C
:104050008DE08093E200559A209A81EC80937C0059
:1040600081EF85B987EE84B982E38BB982EF8AB993
:10407000769A6E9880EF81BB10BA80E58CBD81E0A6
:104080008DBD85E00E942C0D5F9A85E00E942C0D6D
:104090005C98E8E9F7E085918EBD00000DB407FE5D
:1040A000FDCFE53AC1F75C9A81E88093640081E036
:1040B000809365000E94141080E80E9409108823F4
:1040C000A9F05C9885EA8EBD00000DB407FEFDCF17
:1040D0005C9A2E982F982D9880916400806280932E
:1040E000640081E083BF889513BEFCCF84E00E940A
:1040F00009108823B9F12D9884E80E9409108823BB
:10410000A1F02D9A88EC0E942C0D2F986FEF82E081
:1041100090E00E944A2D84EF91E00E94CC0A2F9AF1
:1041200084E80E9409108111FBCF84E10E940910EC
:104130008823A1F02D9A88EC0E942C0D2E9860E027
:1041400082E090E00E944A2D84EF91E00E94CC0A28
:104150002E9A84E10E9409108111FBCF88EC0E9405
:104160002C0DC4CF2D9A0E94DF1881E090E00E94B0
:10417000422D282F2470F22E81FF0CC021112E9881
:1041800001EF1FEF80E40E940910882309F4D2C0D8
:104190002E9A2F9A82E30E942C0D0E942F0D8111DE
:1041A000F9CF5E9A5E9AE4E1F0E086EC9FEF25910C
:1041B0003591559145912851354909F4CA018093AB
:1041C000C2019093C30159988BEA0E94C50A599A7B
:1041D000109218011092170180E890E090931A0154
:1041E00080931901E6EFF7E02491E7EDF7E0849181
:1041F0008823C9F090E0880F991FFC01ED54F84F17
:1042000045915491FC01EB55F84FA591B4919FB79E
:10421000F894FA0180812095822380838C91E22F8B
:10422000E823EC939FBF8FEF9FEF9093140680934A
:10423000130681E08093ED060E9452164FEF5FEF68
:10424000BA014093F3065093F4066093F506709319
:10425000F60681E090E0A0E0B0E08093F70690934E
:10426000F806A093F906B093FA064093FB06509324
:10427000FC066093FD067093FE068093FF06909304
:104280000007A0930107B093020780E498E09093A1
:104290008B0680938A060E94DF1888EC90E00E94CB
:1042A000B11885E00E94F3148DE00E94F31435E00C
:1042B000A32EB12C8EEF682E77247A9492E4C92E27
:1042C000D12C29E3822E912C0E94E410882359F1ED
:1042D0008091F0018093EF010E942F0D8093F001F7
:1042E0008091EE01813009F41CC108F4BEC0823017
:1042F00009F495C7833011F40C94D82C84E00E9403
:10430000F40F882359F08091EE01823039F08091CA
:10431000ED01813019F02E982F982D985E9881E04C
:104320000E94A7045E9A80E090E0892B69F20E94C7
:104330000000C0CFFF2029F00430110511F42E9A9F
:104340002F9881E00E94A704802F8770E82EA80193
:1043500063E0559547956A95E1F79A013695322FB6
:10436000222737952795295F3D4F70E060E04E3F4B
:104370009FEF590761F190E080E0DB01A851B94F50
:104380006901E0E8CE0ED11CFD01E80FF91FE491B0
:10439000F0E03F010E2C02C0660C771C0A94E2F795
:1043A0004F3F540739F05901A80EB91EF501948802
:1043B0009628948AEE2039F05601A80EB91EF50110
:1043C00094889728948A019688359105E9F64F5F7D
:1043D0005F4F20583F4F685A7F4F603B710539F659
:1043E0000E9414108FE00E942C0D0F5F1F4F0931A7
:1043F000110509F0C7CEFF2011F02F9A2D9880E902
:1044000091E00E94CC0A2D9A81E090E00E94422D1A
:1044100080FFC0CE8AE090E00E94422D9FEF980F6F
:104420009E3F08F0B7CE22E330E03093EB012093BB
:10443000EA0128E330E03093E9012093E8010AE043
:1044400010E0682F87EB96E00E94910F0F5F1F4FDF
:10445000C8010E94422D0031110599F70E941410E5
:1044600088EE93E00E94CC0A95CE1091C601E12C13
:10447000012F20E030E040E070E060E08DE290E06D
:104480000E9412098091C4019091C5016CE070E016
:104490000E94042E892B59F4173008F03FC01F5F8B
:1044A0001093C6018091D0018F5F8093D00110924C
:1044B0001401109213010CE110E010931601009307
:1044C000150164EC76E180E00E94FF0866E873E382
:1044D00080E00E944F0A85E590E09093140180935C
:1044E0001301109316010093150164E973E380E052
:1044F0000E944F0A88E00E94F40F882331F02E9A20
:104500002F9A2D9A81E08093EE018091D001853120
:1045100009F0F4CE81E08093EE01F0CE1092C60156
:10452000C6CF8091ED01811130C106E0E02EF12C63
:10453000F0921801E092170100E810E010931A01C0
:104540000093190164E574E180E00E94FF08F09295
:104550001401E092130110921601109215016BE9FB
:1045600073E380E00E944F0A1092CF0180E490E054
:104570009093140180931301B0921601A09215013B
:10458000909318018093170110931A010093190159
:104590001091CE01113009F4EAC008F4DFC01230E6
:1045A00009F4ECC080E10E94F40F882329F0123056
:1045B00018F41F5F1093CE0180E80E94F40F882347
:1045C00039F08091CE01882319F081508093CE017B
:1045D0006091CD016450770B24E044E090E080E0EE
:1045E0000E94920E8091ED01833009F02FC58091D9
:1045F000F40181110E949B12B0921401A092130148
:10460000109216011092150164EC76E180E00E9490
:10461000FF0865EF74E380E00E944F0AB092140136
:10462000A09213018CE090E0909316018093150105
:1046300069ED74E380E00E944F0AB0921401A092E9
:104640001301E8E1F0E0F0931601E093150167EE45
:1046500074E380E00E944F0A8091C901813009F41F
:104660009BC408F490C4823009F4A1C465E278E0E8
:1046700087EB96E00E946507E12C00E024EC37E030
:1046800040E06AE070E08EE590E00E9412098EE55D
:1046900090E090931C0180931B0180911B019091ED
:1046A0001C018E3791050CF089C4809164008E7FC7
:1046B00080936400EDE1F8E0849120917B00982FD5
:1046C000990F990F90722F7D922B90937B0087709A
:1046D000806480937C0080917A00806480937A006B
:1046E00080917A0086FDFCCF90917800A0917900AE
:1046F00080916400816080936400BA2FA92F2BE120
:1047000030E00E942C2E28EC30E040E050E00E9487
:104710005C2D19012A01FFE02F0E311C411C511C98
:1047200030921E0120921D01E0901B01F0901C01AF
:104730006091C7017091C80101E09101A701C70113
:104740000E9417103092C8012092C7012FEFE21A81
:10475000F20AF0921C01E0921B019FCF8AE0809345
:10476000CD0162EC73E380E00E944F0A1BCF84E12D
:104770008093CD016AEF73E380E0F6CF8EE1809302
:10478000CD0168E274E380E0EFCF8230C9F580E8C4
:104790000E94F40F882339F08091CC01882319F00E
:1047A00081508093CC0180E10E94F40F882339F07E
:1047B0008091CC01823018F48F5F8093CC0180917E
:1047C000CC018130B1F048F0823009F00BCFE12C00
:1047D00000E020E530E140E005C0E12C00E028E405
:1047E00038E040E064EF7FEF90E080E00E94120943
:1047F000F9CE18E0E12E00E02CE43CE040E0F2CFFE
:10480000813009F0EFCE1092140110921301109232
:1048100016011092150164EC76E180E00E94FF0819
:104820008091CB01823009F4A3C008F06AC08823CC
:1048300009F476C0813009F485C067E278E087EB3F
:1048400096E00E94650780E10E94F40F1091D1016B
:10485000882349F08091CB01853028F4111103C0E1
:104860008F5F8093CB0180E80E94F40F882349F08A
:104870008091CB01882329F0111103C081508093CE
:10488000CB0188E00E94F40F882349F0111107C082
:104890000E9466151092CA0181E08093D101809137
:1048A000D101882309F46BC31091CB012EE240E4BF
:1048B0006FE070E080E490E00E94B10E64E574E186
:1048C00080E00E94FF08113009F445C208F48FC04F
:1048D000123009F446C2133009F4EFC267E178E000
:1048E00087EB96E00E94650788E00E94F40F9091A4
:1048F0001F01882309F43CC391113AC31092D101DE
:1049000071CE843009F460C008F448C0853009F0E5
:1049100094CFB0921401A092130188E290E05AC0A3
:10492000B0921401A09213017092EB016092EA011F
:104930001092E9011092E8016EE374E380E00E94B6
:104940004F0A7BCFB0921401A092130188E090E04F
:1049500090931601809315017092EB016092EA0129
:104960009093E9018093E80168E774E380E0E7CF82
:10497000B0921401A092130180E190E0909316018F
:10498000809315017092EB016092EA019093E90126
:104990008093E80168E874E380E0D1CFB09214011D
:1049A000A092130188E190E0909316018093150185
:1049B0007092EB016092EA019093E9018093E80123
:1049C00061EC74E380E0BBCFB0921401A0921301BC
:1049D00080E290E090931601809315017092EB01B4
:1049E0006092EA019093E9018093E80126CFD0928A
:1049F0001801C092170180E890E090931A0180930B
:104A0000190180E10E94F40F882339F08091CA01D6
:104A1000833018F48F5F8093CA0180E80E94F40FFE
:104A2000882339F08091CA01882319F0815080933E
:104A3000CA018091CA0181115DC0D0921401C09257
:104A4000130183E190E090931601809315019092F9
:104A5000EB018092EA019093E9018093E8016CE414
:104A600074E380E00E944F0A84E00E94F40F8823E0
:104A700009F4FDC068E873E180E090E00E94080C52
:104A800082E096E30E941D1660EA7FE080E090E0FD
:104A90000E94080C6DE076E380E00E94C11560ED95
:104AA00077E080E090E00E94080C62E376E380E02B
:104AB0000E94C11560ED77E080E090E00E94080C54
:104AC00062E078E08EE796E00E94650760E776E3B3
:104AD00080E00E94C1158FEF97E00E94AE1560ED57
:104AE00077E080E090E00E94080C6DEF75E380E0D5
:104AF0000E94C1158091CA01813009F0B8C090921E
:104B0000EB018092EA01E8E1F0E0F093E901E09343
:104B1000E801D0921401C0921301F0931601E093C2
:104B2000150167E674E380E00E944F0A84E00E946A
:104B3000F40F882309F4E8C068E873E180E090E0AE
:104B40000E94080C62E88EE796E00E94C71163ECB1
:104B50008EE796E00E94C71164E670E080E090E086
:104B60000E94080C0E94CD0B6CED75E080E090E097
:104B70000E94080C67E075E38EE796E00E949F159F
:104B800060EB8EE796E00E94C7110E94CD0B68EBA8
:104B90007BE080E090E00E94080C66E175E380E035
:104BA0000E94C11560ED77E080E090E00E94080C63
:104BB00062E275E380E00E94C11560ED77E080E07D
:104BC00090E00E94080C67E375E380E00E94C11545
:104BD00060ED77E080E090E00E94080C68E475E307
:104BE00080E00E94C11560ED77E080E090E00E94D7
:104BF000080C68E575E380E00E94C11560ED77E080
:104C000080E090E00E94080C60EA75E380E00E947A
:104C1000C11560ED77E080E090E00E94080C60E84C
:104C20008EE796E00E94C71168E78EE796E00E9443
:104C3000C71164E670E080E090E00E94080C0E94DA
:104C4000CD0B60ED77E080E090E00E94080C6BEF08
:104C500075E380E00E94C11568EB7BE080E090E0A6
:104C60000E94080C6DEF75E380E00E94C1158091F1
:104C7000CA01823009F048C0D0921401C0921301D9
:104C80000EE110E010931601009315016AE574E33C
:104C900080E00E944F0A9092EB018092EA0110930B
:104CA000E9010093E80184E00E94F40F882309F4ED
:104CB00015CE68E873E180E090E00E94080C82E085
:104CC00098E30E941D1668EB7BE080E090E00E9474
:104CD000080C66E078E380E00E94C11560ED77E0A3
:104CE00080E090E00E94080C60E278E380E00E949F
:104CF000C11560ED77E080E090E00E94080C69E269
:104D000078E380E00E94C1158091CA01833009F0E8
:104D1000E5CDD0921401C092130103E210E010938C
:104D200016010093150165EF77E380E00E944F0ABA
:104D30009092EB018092EA011093E9010093E8015F
:104D400084E00E94F40F882309F4C8CD8DEC97E32A
:104D50000E941D16C3CD0E94661582E08093EE016D
:104D6000BDCDD0921801C092170180E890E09093D9
:104D70001A018093190180E10E94F40F882339F011
:104D80008091CA01823018F48F5F8093CA0180E855
:104D90000E94F40F882339F08091CA01882319F00A
:104DA00081508093CA018091CA01811127C0D0929D
:104DB0001401C092130183E190E090931601809357
:104DC00015019092EB018092EA019093E9018093A2
:104DD000E80163E974E380E00E944F0A84E00E94E6
:104DE000F40F8823B9F163E88EE796E00E94C711BB
:104DF00081E198E00E94AE150E94CD0B8091CA011E
:104E0000813041F5D0921401C092130188E190E005
:104E100090931601809315019092EB018092EA0124
:104E20009093E9018093E80160EA74E380E00E94D6
:104E30004F0A84E00E94F40F882309F44FCD63E801
:104E40008EE796E00E94C71183E198E00E94AE15BC
:104E50000E94CD0B8091CA01823009F03FCDD092E3
:104E60001401C09213018EE190E09093160180939B
:104E700015019092EB018092EA019093E9018093F1
:104E8000E80160EB74E380E00E944F0A84E00E9436
:104E9000F40F882309F422CD60E88EE796E00E94A3
:104EA000C71162E88EE796E00E94C71185E198E09D
:104EB0000E94AE150E94CD0B11CDD0921801C09268
:104EC000170180E890E090931A018093190180E126
:104ED0000E94F40F882339F08091CA01823018F4BF
:104EE0008F5F8093CA0180E80E94F40F882339F015
:104EF0008091CA01882319F081508093CA01809162
:104F0000CA0181111FC0D0921401C092130183E124
:104F100090E090931601809315019092EB0180929E
:104F2000EA019093E9018093E80168EC74E380E082
:104F30000E944F0A84E00E94F40F882309F4CECC2B
:104F400083E00CCF813009F0C9CCD0921401C0921B
:104F50001301E8E1F0E0F0931601E093150190925F
:104F6000EB018092EA01F093E901E093E801B6CC0D
:104F7000992309F437CB915090931F0133CB82E0F2
:104F800080931F012FCB7092EB016092EA01109287
:104F9000E9011092E8016ACB7092EB016092EA019C
:104FA0008AE090E09093E9018093E8015FCB7092F2
:104FB000EB016092EA0187E190E0F4CF80E10E948A
:104FC000F40F882339F08091C901823018F48F5F83
:104FD0008093C90180E80E94F40F882339F0809102
:104FE000C901882319F081508093C90188E00E948B
:104FF000F40F882359F08091C901811107C0809175
:10500000F401882309F499C00E945D1388E00E948E
:10501000F40F882359F08091C901813039F48091CF
:10502000F401882309F492C00E945D1388E00E9475
:10503000F40F882359F08091C901823039F48091AE
:10504000F401882309F48BC00E945D131092EB01D8
:105050001092EA0188E390E09093E9018093E801DF
:1050600069E278E087EB96E00E94650701E024E3BF
:1050700030E040E850E064E370E090E080E00E94BF
:10508000171020E430E042E250E064E370E082E296
:1050900090E00E94171020E430E040E450E064E328
:1050A00070E080E490E00E94171020E430E04EE5CC
:1050B00050E064E370E08EE590E00E94171084E019
:1050C0000E9409101091ED01882339F0113009F484
:1050D00051C01092D0011092EE01111149C001E0AF
:1050E00023E330E043E250E063E370E090E080E0EF
:1050F0000E94171020E430E043E250E063E370E0E8
:1051000083E290E00E94171080E40E94F40F88234D
:1051100029F0133018F41F5F1093ED0180E20E9414
:10512000F40F882309F4EAC88091ED01882309F47B
:10513000E5C881508093ED01E1C824E833E340E005
:105140006EE27AE280E00E94D01460CF25EC34E277
:1051500040E068EC7CE180E00E94D01467CF2CE254
:105160003AE240E067EC74E280E00E94D0146ECF37
:105170001130F1F401E023E330E041E450E063E377
:1051800070E081E290E00E94171021E430E041E2FB
:1051900050E063E370E081E290E00E94171020E4A9
:1051A00030E041E450E063E370E081E490E0AACFB6
:1051B0001230F1F401E020E430E04FE350E063E32B
:1051C00070E08FE390E00E94171023E330E04FE59A
:1051D00050E063E370E08FE390E00E94171020E45A
:1051E00030E04FE550E063E370E08FE590E08ACF78
:1051F000133009F089CF01E020E430E04DE550E0C4
:1052000063E370E08DE590E00E94171023E330E047
:1052100040E850E063E370E08DE590E073CF0E94DA
:10522000200C0091E4011091E5012091E6013091FC
:10523000E701061717072807390708F0DCC0809137
:10524000E301811104C08091E201882351F082E0E2
:105250000E94931883E00E9493181092E20110922A
:10526000E30180E80E940910882359F080E10E9440
:10527000FF0F882331F08FEF9FEF9093E101809330
:10528000E00180E80E94FF0F882349F080E10E943E
:10529000FF0F882321F01092E1011092E00180E1DC
:1052A0000E940910882359F080E80E94FF0F88238C
:1052B00031F081E090E09093E1018093E00180E1A2
:1052C0000E9409108111FAC01092DC011092DD01D8
:1052D0001092DE011092DF0180E20E940910882303
:1052E00059F080E40E94FF0F882331F08FEF9FEF89
:1052F0009093DB018093DA0180E20E94FF0F882304
:1053000049F080E40E94FF0F882321F01092DB0116
:105310001092DA0180E40E940910882359F080E29B
:105320000E94FF0F882331F081E090E09093DB0131
:105330008093DA0180E40E9409108111FEC010926E
:10534000D6011092D7011092D8011092D90188E0AD
:105350000E940910882309F42FC180E00E9476186A
:1053600084E00E940910882309F42AC181E00E9488
:1053700076180091E0011091E1018091D4019091A3
:10538000D50108171907B1F0C801012E000CAA0BAE
:10539000BB0B8093BF069093C006A093C106B09349
:1053A000C2068091ED0681110E9452161093D5011C
:1053B0000093D4010091DA011091DB018091D201B8
:1053C0009091D30108171907B1F0C801012E000C04
:1053D000AA0BBB0B8093BB069093BC06A093BD06A3
:1053E000B093BE068091ED0681110E945216109373
:1053F000D3010093D2018091E201882349F080918A
:10540000E301882329F01092D10181E08093EE011D
:105410000E94E410811176C2982FE7E0F2E091112A
:105420009FEF8FEF91939193919391938150D0F748
:105430001092E9011092E8011092EB011092EA013A
:105440008091DA019091DB01009709F4BDC08130B1
:10545000910509F438C1019609F0F9C0E5E2EE2E94
:10546000F12C02E110E029E130E04EE150E06DE086
:1054700070E082E190E00E94F30429E14CE06DE0ED
:1054800070E087E090E00E94920EF9E1EF2EF12C9F
:1054900002E210E025E230E04EE250E06DE070E024
:1054A0008EE290E00E94B31029E14CE06DE070E0E4
:1054B0008EE290E00E94B10E00E0BFC080E80E9442
:1054C0000910882309F400CF2090DC013090DD0121
:1054D0004090DE015090DF01211431044104510459
:1054E00059F40E94200C6093DC017093DD018093DD
:1054F000DE019093DF01F0CE0E94200C6219730947
:10550000840995096D3271408105910508F4E4CE56
:105510000E94200C68517C4F8F4F9F4F6093E40195
:105520007093E5018093E6019093E70183E00E9488
:10553000761881E08093E301CFCE80E20E940910CB
:10554000882309F4FCCE2090D6013090D7014090FA
:10555000D8015090D901211431044104510459F467
:105560000E94200C6093D6017093D7018093D801DC
:105570009093D901ECCE0E94200C62197309840922
:1055800095096D3271408105910508F4E0CE0E94C5
:10559000200C68517C4F8F4F9F4F6093E4017093B4
:1055A000E5018093E6019093E70182E00E9476187E
:1055B00081E08093E201CBCE80E00E949318D0CEB0
:1055C00081E00E949318D5CEA5E2EA2EF12C02E1EB
:1055D00010E029E130E04EE150E06DE070E082E162
:1055E00090E00E94B31029E14CE06DE070E087E0AC
:1055F00090E00E94B10EB9E1EB2EF12C02E210E036
:1056000025E230E04EE250E06DE070E08EE290E0A6
:105610000E94B31029E14CE06DE070E08EE290E072
:105620000E94B10E00E024E230E042E150E06EE082
:1056300070E082E190E00E94171024E230E04EE238
:1056400050E06EE070E08EE290E00E9417108091D2
:10565000E0019091E101009709F46DC0813091055E
:1056600009F458C1019609F0A7C02BE0E22EF12CF5
:1056700004E110E02BE030E04CE250E067E170E044
:1056800080E290E00E94F3042CE049E170E060E0E9
:1056900084E190E00E94920E37E2E32EF12C27E2A3
:1056A00030E04CE250E06BE170E080E290E00E947C
:1056B000B3102CE049E167E270E084E190E00E94E1
:1056C000B10E00E06FC065E2E62EF12C02E110E0C1
:1056D00029E130E04EE150E06DE070E082E190E0E1
:1056E0000E94B31029E14CE06DE070E087E090E0AB
:1056F0000E94B10E79E1E72EF12C02E210E025E2E2
:1057000030E04EE250E06DE070E08EE290E00E940A
:10571000F30429E14CE06DE070E08EE290E00E943D
:10572000920E00E024E230E042E150E06EE070E0F2
:1057300082E190E08ACF4BE0E42EF12C04E110E00E
:105740002BE030E04CE250E067E170E080E290E076
:105750000E94B3102CE049E170E060E084E190E049
:105760000E94B10E57E2E52EF12C27E230E04CE228
:1057700050E06BE170E080E290E00E94B3102CE01A
:1057800049E167E270E084E190E00E94B10E00E040
:105790002BE030E045E150E06BE070E08BE290E020
:1057A0000E94171027E230E04BE250E067E270E021
:1057B00085E190E00E94171088E00E94091088237C
:1057C00009F4DEC049E162E170E088E590E00E9402
:1057D000AB0D10E000E023E04CE06EE170E088E506
:1057E00090E00E940F0E84E00E940910882309F4C3
:1057F000CEC049E16CE070E083E790E00E94AB0D21
:1058000010E000E023E04CE068E170E083E790E026
:105810000E940F0E8091E201882309F4BFC028E0A6
:1058200042E168E370E089E290E00E94920E05E0B8
:1058300010E021E041E069E370E08AE390E00E943B
:105840000F0E22E041E069E370E089E290E00E94FF
:105850000F0E8091E301882309F4A5C028E042E1FE
:1058600068E370E085E490E00E94920E05E010E0AD
:1058700021E041E069E370E086E590E00E940F0ED0
:1058800022E041E069E370E085E490E00E940F0EC1
:1058900040E070E060E084E190E00E943F0D40E075
:1058A00070E060E08CE290E00E943F0D40E062E337
:1058B00070E084E190E00E943F0D40E062E370E020
:1058C0008CE290E00E943F0D40E06DE070E087E0E8
:1058D00090E00E943F0D40E065E270E087E090E0DC
:1058E0000E943F0D40E06DE070E089E390E00E948F
:1058F0003F0D40E065E270E089E390E00E943F0DDB
:105900000E9414106AE070E080E090E00E94080CB1
:105910000C947E218BE0E82EF12C04E110E02BE0CA
:1059200030E04CE250E067E170E080E290E00E94FD
:10593000B3102CE049E170E060E084E190E00E9467
:10594000B10E97E2E92EF12C27E230E04CE250E074
:105950006BE170E080E290E00E94F3042CE049E10A
:1059600067E270E084E190E00E94920E00E02BE09C
:1059700030E045E150E06BE070E08BE290E01ACF60
:105980006EE170E088E590E00E94D90E2CCF68E1CE
:1059900070E083E790E00E94D90E3CCF88E290E06F
:1059A0000E94D10D56CF84E490E00E94D10D70CFBB
:1059B0008091EC01882301F11092EB011092EA0131
:1059C0001092E9011092E8016EE378E087EB96E02F
:1059D0000E94650740919506509196066091910648
:1059E0007091920687EB96E00E9489076AE671E063
:1059F00087EB96E00E949F1587E096E00E94AB0837
:105A0000181619065CF587E096E00E946908F82EE2
:105A100089831A8200919506109196060F5F1F4F99
:105A2000C8010E94B118882399F020919106309105
:105A300092068091950690919606BE016F5F7F4F0A
:105A4000820F931F0E9424301093960600939506B0
:105A5000FAE0FF1203C081E08093EC0188E00E942D
:105A6000F40F882311F40C947E211092EE010C9413
:105A70007E218091910690919206009711F00C94EE
:105A8000D52E0895F999FECF92BD81BDF89A992738
:105A900080B50895262FF999FECF92BD81BDF89A61
:105AA000019700B4021639F01FBA20BD0FB6F89462
:105AB000FA9AF99A0FBE0895052E97FB1EF40094EA
:105AC0000E94732D57FD07D00E94BD2D07FC03D007
:105AD0004EF40C94732D50954095309521953F4F81
